:020000040800F2
:10000000503E0020D50200085D3700082333000869
:1000100001360008A11E0008694A0008000000001F
:10002000000000000000000000000000153F000874
:10003000A31E000800000000413D0008173F000813
:10004000EF020008EF020008EF020008EF020008CC
:10005000EF020008EF020008EF020008EF020008BC
:10006000EF020008EF020008EF020008EF020008AC
:10007000EF020008EF020008EF020008EF0200089C
:10008000EF020008EF020008EF020008EF0200088C
:10009000EF020008EF020008EF020008EF0200087C
:1000A000EF02000841400008EF020008EF020008DC
:1000B000EF020008EF020008EF020008EF0200085C
:1000C000EF020008EF020008EF020008EF0200084C
:1000D000EF02000805470008D5470008B1480008AE
:1000E000EF020008EF020008EF020008EF0200082C
:1000F000EF020008EF020008EF020008EF0200081C
:10010000EF020008EF020008EF020008EF0200080B
:100110005D45000839460008EF020008EF020008BC
:10012000EF020008EF020008EF020008EF020008EB
:10013000EF020008EF020008EF020008EF020008DB
:10014000EF020008EF020008EF020008EF020008CB
:10015000EF020008EF020008EF0200088D490008D6
:10016000EF020008EF020008EF020008EF020008AB
:10017000EF020008EF020008EF0200080000000094
:10018000EF020008EF02000800F002F800F092F819
:100190000AA090E8000C82448344AAF10107DA45E2
:1001A00001D100F087F8AFF2090EBAE80F0013F0A2
:1001B000010F18BFFB1A43F0010318470C4E000053
:1001C0002C4E0000103A24BF78C878C1FAD85207E4
:1001D00024BF30C830C144BF04680C6070470000C1
:1001E0000023002400250026103A28BF78C1FBD840
:1001F000520728BF30C148BF0B6070476E2900F01E
:10020000E083702900F0ED81662904F04E856529B0
:1002100004F04B85672904F04885612904F047857F
:1002200003681B0A28BF41F08001692900F05E8144
:10023000642900F05B81752900F058816F2900F076
:10024000E084782900F0B981E92900F07B84E42971
:1002500000F07884F52900F07584EF2900F0DD8442
:10026000F82900F0B8810368DB0928BF41F080015C
:10027000632900F0EA83732900F0EF83E32901F09A
:10028000E580F32901F0EA80002070471FB504F0F3
:1002900007FD01F039F904000020002104F0EAFC18
:1002A000401C60600020002104F0CEFCE0601FBD17
:1002B00010B510BD01F0FAF81146FFF7E7FF04F0A2
:1002C0000BFC01F0D7F903B4FFF7F2FF03BC04F015
:1002D000FBFB00000948804709480047FEE7FEE7AE
:1002E000FEE7FEE7FEE7FEE7FEE7FEE7FEE7FEE7E6
:1002F00004480549054A064B704700003140000894
:1003000089010008502C0020503E0020502E002073
:10031000502E0020704753EA020C00F069802DE94E
:10032000F04B4FF00006002B1FBFB3FA83F503FA22
:1003300005F424FA05F65E4012BF1643B2FA82F5C0
:1003400002FA05F4C5F120051EBF22FA05FC44EAB5
:100350000C04203556EA044C4FEA144418BF641CC0
:100360004FF000084FF00009904271EB030C39D3B5
:10037000002919BFB1FA81F701FA07F6B0FA80F740
:1003800000FA07F6C7F120071EBF20FA07FC46EA6D
:100390000C062037B6FBF4FCA7EB0507103F07F06F
:1003A0001F0BCBF120060CFA0BFB2CFA06F644BF10
:1003B000B3460026202FA4BF5E464FF0000B5BEA39
:1003C000060C08BF4FF0010B19EB0B09ABFB027CCD
:1003D00048EB0608C01B06FB02CC0BFB03CC71EB01
:1003E0000C01C1E70B46024641464846BDE8F08B8A
:1003F00013B54FF000004FF00001AFF30080BDE8EF
:100400001C40704710B54C1084EA530404D5404298
:10041000C1F1000138BF491E1B4204D55242C3F14D
:10042000000338BF5B1EFFF776FF14F0804F04D047
:100430004042C1F1000138BF491E14F0004F04D002
:100440005242C3F1000338BF5B1E10BD7CB51D4690
:1004500016460C00009001D02044401E074B7B4400
:100460002A4669460190304600F0C5FA05461CB19F
:100470000020694600F0D2FA28467CBDC505000080
:100480000FB4044910B503AA029800F0EBFA10BCAF
:100490005DF814FB4C00002070B50C460546012A9F
:1004A00005D02878800600D5EA69002302E0012300
:1004B00005E05B1C934202D2E05C0028F9D1A869F8
:1004C000E618C01AA861286A18442862284600F075
:1004D000E6F904E0D5E9012114F8010B9047B44294
:1004E000F8D3284600F0F1F970BD00002DE9F04185
:1004F0000646002410687529314616A510D000F074
:10050000F5F9002802DA404213A507E031688A07AE
:1005100001D512A502E0490704D511A5012401E087
:1005200000F0EDF900210A2206F1240709E0B0FBF2
:10053000F2FCB0FBF2F302FB1C003030785418469A
:10054000491C0028F3D123462A463046BDE8F04135
:1005500000F0DEB9000000002D0000002B000000BC
:1005600020000000F0B40D460188090502D5214C99
:100570007C4402E01F4C7C440E34002100F1240630
:1005800008E002F00F071209E75D42EA03721B0957
:100590007754491C52EA0307F3D10278002312076B
:1005A00004D5702D06D009B1022311342246F0BCC7
:1005B00000F0AEB901231034F8E770B504460D46DB
:1005C0002146106800F09BF9024629462046BDE806
:1005D00070400023C6E7D21D22F00703D3E90023B1
:1005E000C0E70368126843F0200303600823C36177
:1005F0000023B7E7164800002DE9F05F894604465E
:100600004FF0000ADFF874B1FB44C0F820A0204688
:10061000E1688847002874D0252806D0D4E9012154
:100620009047206A401C2062F1E700265F46204682
:10063000E16888472028054607DB312D05D2781967
:1006400010F8200C08B10643F1E7B00701D526F0F9
:100650000406C4F81CA00027C4F818A02A2D09D04D
:10066000284604F02AFA38B304EB8708303DC8F86E
:10067000185019E059F8041B204604EB87029161D9
:10068000E1688847012F054618D1E069002820DA83
:1006900026F020061DE0D8F8180000EB800005EBDE
:1006A00040003038C8F818002046E1688847054601
:1006B00004F003FA0028EED1012F0AD02E2D08D124
:1006C0002046E16888477F1C0546022F46F0200639
:1006D000C4DBA069002803DA404246F00106A061AD
:1006E000F00701D026F010066C2D0BD0682D09D034
:1006F0004C2D39D06A2D35D0742D35D07A2D33D08C
:1007000016E038E0E1682F4620468847B8420546A3
:1007100009D16C2F26D04FF48060E1680643204653
:100720008847054604E06C2F1AD04FF480700643CA
:100730000DB3A5F14100192802D8203546F4006612
:100740004A462946204626604E46FFF757FD80B1AF
:1007500001280BD0F61D26F0070000F1080956E726
:100760004020E4E78020D8E70020D6E706F104091E
:100770004DE7284652E7206ABDE8F09FA6470000F3
:1007800010B5431C02E010F8011B71B18107FAD1CA
:100790004FF0013202C88C1A8C4314EAC211F9D00E
:1007A000C01A0A0603D0C01E10BDC01A10BD0A042C
:1007B00001D0801E10BD0902FCD0401E10BD032ACE
:1007C00040F2308010F0030C00F0158011F8013B6E
:1007D000BCF1020F624498BF11F801CB00F8013B55
:1007E00038BF11F8013BA2F1040298BF00F801CB19
:1007F00038BF00F8013B11F0030300F01982083AFA
:10080000C0F0088051F8043B083A51F804CBA0E846
:100810000810F5E7121D5CBF51F8043B40F8043B9B
:10082000AFF30080D20724BF11F8013B11F801CBD0
:1008300048BF11F8012B24BF00F8013B00F801CBA1
:1008400048BF00F8012B70474FF0000200B5134677
:1008500094469646203922BFA0E80C50A0E80C50E0
:10086000B1F12001BFF4F7AF090728BFA0E80C5091
:1008700048BF0CC05DF804EB890028BF40F8042B8A
:1008800008BF704748BF20F8022B11F0804F18BFF7
:1008900000F8012B7047704770477047704770B57C
:1008A000044685690068C10601D5302600E020268F
:1008B000C00707D070BDD4E9012130469047206AB7
:1008C000401C20626D1EF6D570BD70B5044685696A
:1008D0000078C00707D170BDD4E9012120209047DE
:1008E000206A401C20626D1EF6D570BD09684A055D
:1008F00001D540B27047C905FCD500B27047096800
:100900004A0501D5C0B27047C905FCD580B2704711
:100910002DE9F0470D4699469246044600F1240819
:100920000168880604D5E06921F01001216000E02B
:100930000120A84201DD471B00E00027A1697A19C8
:1009400002EB0900081AA0612078C00602D42046F4
:10095000FFF7A5FF002608E0D4E901211AF80600F8
:100960009047206A401C761C20624E45F4DB2078BC
:10097000C0060AD52046FFF792FF06E0D4E9012120
:1009800030209047206A401C2062381EA7F10107E2
:10099000F4DC07E0D4E9012118F805009047206A4B
:1009A000401C2062281EA5F10105F3DC2046FFF75C
:1009B0008CFF2078000602D50220BDE8F0870120D8
:1009C000FBE711680268006A530501D508700AE068
:1009D000D30501D5088006E0130603D5C217C1E987
:1009E000000200E0086001207047000001694A1C15
:1009F00002610878704700B58FB0CDE90131002160
:100A0000059105497944CDE9031011466846FFF781
:100A1000F3FD0FB000BD0000E5FFFFFF0A6802F81C
:100A2000010B0A607047D1E900239A4202D2531C9D
:100A30000B601070704710B5436913B1AFF30080BD
:100A400001E0FFF729FD012010BD127800F124011B
:100A50000A7000224A700122EDE711684FF0FF3260
:100A6000E9E70000074B70B50D467B44FFF7C3FF75
:100A70000446284600F0F6FC10B14FF0FF3070BD80
:100A8000204670BD5D4000002DE9FF5F15468A4697
:100A90000446DFF8AC80F8440027D8E900103E4651
:100AA000CDE9001010E03AF816106A4602A800F0EE
:100AB000DDFC411C07D02178890603D5E26939188D
:100AC00091420DD80744761C2078800602D5E06953
:100AD000B84205DDAE42E6DB3AF816000028E2D166
:100AE000A069C01BA0612046FFF7D9FED8E900101D
:100AF000CDE90010002017E03AF818106A4602A865
:100B000000F0B4FCB0F1FF3F81460BD000250DF1A1
:100B1000080B05E0D4E901211BF8050090476D1C86
:100B20004D45F7D308F10100B0428046E4DB206A6E
:100B3000384420622046FFF7C8FEBDE8FF9F000052
:100B40002A4300002DE9F0418046D21D22F0070221
:100B50000025D2E90002F52915A614D0011E72F174
:100B6000000106DA0023D0EB030063EB020211A6BA
:100B700008E0D8F800108B0701D50FA602E049075E
:100B800001D50EA601251146002408F1240704E032
:100B900000F080F830323A55641C50EA0102F7D177
:100BA0002B46324621464046BDE8F041FFF7B0BE35
:100BB000000000002D0000002B00000020000000BD
:100BC00030B4002100F1240408E002F00705D20847
:100BD000303542EA4372DB086554491C52EA03058A
:100BE000F3D10468002310A2250707D5A40600D47A
:100BF00021B1C46901230DA2641EC46130BCFFF79A
:100C000087BE10B5044621461068FFF778FE0246FD
:100C10002046BDE810400023D2E7D21D22F0070194
:100C2000D1E90023CCE70000000000003000000004
:100C300010B5203AC0F00B80B1E81850203AA0E877
:100C40001850B1E81850A0E81850BFF4F5AF5FEAAB
:100C5000027C24BFB1E81850A0E8185044BF18C95E
:100C600018C0BDE810405FEA827C24BF51F8043B05
:100C700040F8043B08BF7047D20728BF31F8023B59
:100C800048BF11F8012B28BF20F8023B48BF00F8ED
:100C9000012B704730B5B0F10A024FEA900E71F1A6
:100CA00000034EEA817EB0EB0E0061EB91014FEA4A
:100CB000101E4EEA017E10EB0E0041EB11114FEABF
:100CC000102E4EEA016E10EB0E0041EB11214FEA9F
:100CD000104E4EEA014E10EB0E0041EB1141401850
:100CE00041F100014FEAD00040EA41704FEAD101E2
:100CF00010EB80054FEA810444EA907444EB010450
:100D00006D1944EB0404521BA3414FF0000348BF8C
:100D10000A3200D530BD401C41F1000130BD7047A2
:100D20002DE9FF4F0C461E464FF0FF378BB0D2E93E
:100D30000001DDF860800A908A46C1F30A5505B9C2
:100D40003D46002108464FF00000BAF1000F00F4C4
:100D5000400005DA00EB80004FF4400101EA50004A
:100D60004FEA9059B9F1010F00DDB9460A9850EAEF
:100D70004A000ED044F61050A5F2FF3545432F141B
:100D8000B8F1000F1ED07542291E1EDDC9F1000208
:100D90001CE0B8F1010F4FF0000001D0302103E05A
:100DA000F24305E02154401CB042FBDB30460022F8
:100DB000002121540B99C1F80880C1E900200FB02F
:100DC000BDE8F08FBD1B6D1CDEE74A4600DA6942C4
:100DD00006A800F0DDFB06AB93E8070003AB83E851
:100DE000070050460A9900F093FC8DE80700A0F533
:100DF00000501F3800900398002D0ADD42F21F01B9
:100E00004A460844002303A90390684600F0FCFE0C
:100E100009E0A0F500504A461F38002303A90390BB
:100E2000684600F006FF8DE807000004000C03D0C0
:100E30004FF0FF30410800E01046B8F1000F03D03A
:100E40000022009215461EE0751E05D4FFF722FF12
:100E5000303262556D1EF9D5B3460122084302D0E7
:100E600000227F1C04E02078302801D100227F1E60
:100E7000002A099784D01DE0112D07DAFFF70AFF39
:100E8000303262556D1C50EA0102F5D1084302D0A0
:100E90000098C8B10EE00021681E05E0235C625C8A
:100EA00063542254401E491C8142F7DBAB46A81B09
:100EB000401E0990002004F80B000B98099AC0F816
:100EC0000880C0E9002B7AE711264FF0000857E7A9
:100ED0002DE9F04F88460446D21D22F0070191B05B
:100EE000D1E90001CDE90A0103F0BFFD02460B98EC
:100EF000C00F01D02D2007E02068810701D52B20ED
:100F000002E0202101EAC000032A099001D0072A4B
:100F100005DB03464146204600F0FAFA0BE1207853
:100F2000800601D5E06900E00620B8F1650F814632
:100F300006D0B8F1660F18D0B8F1670F70D131E064
:100F40000020B9F1110F009001DB112301E009F13C
:100F500001030AAA01A90CA8FFF7E2FEDDE90C7063
:100F6000002609F10105834647E001204B46009029
:100F70004FF000470AAA01A90CA8FFF7D1FEDDE94E
:100F80000DB00C995D46002610B909F101000D184D
:100F9000B9EB050003D4C0F1FF3609F10105A5EB5B
:100FA00009002BE0B9F1010F01DA4FF0010900202F
:100FB000B9F1110F0090484601DD112300E003460E
:100FC0000AAA01A90CA8FFF7ABFEDDE90C704D469B
:100FD00000268346207800070AD4AB4500DA5D4638
:100FE00001A8012D04DD411911F8011C302907D099
:100FF0004F4502DA17F1040F04DA012082460FE0B0
:101000006D1EEEE7002F02DCED1B3E4403E0781C72
:10101000A84200DD7D1CB81B00F1010A4FF000471B
:101020002078000703D4AA4501DB4FF0FF3A0021E6
:10103000B7F1004F0DF143088DF8431024D0022082
:101040002B23002F01DA7F422D230A21021EA0F15B
:10105000010000DC5FB197FBF1FC97FBF1F201FBB3
:101060001C7C17460CF1300C08F801CDEEE7A8F116
:10107000010003702188090501D5452100E06521A3
:10108000A0F1010800F8011C09980FA9A1EB0807BD
:10109000FF1D00B10120411901EBEA70A16938443C
:1010A000081A401EA0612078C00602D42046FFF72F
:1010B000F6FB099828B1D4E901219047206A401C29
:1010C00020622078C00622D52046FFF7E8FB1EE00C
:1010D000002E04DBB34502DD01A8805D00E0302076
:1010E000D4E901219047206A401C2062761CAAF1B5
:1010F00001005FEA000A0AD100F006FAC068016840
:10110000405CD4E901219047206A401C2062281EDF
:10111000A5F10105DCDC07E0D4E9012118F8010B99
:101120009047206A401C2062381EA7F10107F3DCBB
:101130002046FFF7CAFB032011B041E62DE9F04F2E
:1011400004460D46D21D22F0070089B0D0E9009771
:101150004846394603F089FC0246F80F01D02D239A
:1011600007E02068810701D52B2302E0202101EA56
:10117000C0038DF820300BB1012000E00020032ACD
:10118000824601D0072A04DB2946204600F0C0F938
:101190003FE12078800601D40D2500E0E569C7F322
:1011A0000A560D2D49DA00214FEA175B08464FF029
:1011B0000000002F00F4400007DA00EB80004FF43D
:1011C000400100EBD07001EA60008115012901DDCA
:1011D0004FF0FF3100224FEA850CBCF1180F06D307
:1011E0001346ACF118004FF08052C24003E04FF4B8
:1011F000801323FA0CF30CF10C0CBCF1200F04D378
:10120000ACF1200C09FA0CF001E007FA0CF000290F
:101210004FF0004801DD18B90FE00ED140450CD366
:1012200019EB02095F4121B9404502D19F4329EAE8
:101230000209BBEB175F00D0761C2088000502D5A1
:101240007B48784402E07A487844193808AA302369
:1012500002F80A30037C0AF10101002E0AF1020AA9
:1012600053546A4602DC4FF0300101E04FF0310187
:101270004FF001088DF8001002D0A6F2FF3603E00F
:1012800059EA470100D06B4E002D02DC2178090796
:1012900004D54FF002082E218DF80110C44600211C
:1012A0000BE0C7F303433F01C35C491C6D1E02F80A
:1012B0000830052908F1010801DA002DF1DC0021D0
:1012C0000CE000EB1973491C1B786D1E082902F80D
:1012D00008304FEA091908F1010801DA002DF0DCA5
:1012E00021688B0602D516E0A8F10108E04505DD6E
:1012F00002EB080313F8013C302BF5D0B8F1000FD6
:1013000009DD02EB080313F8013C2E2B03D109077A
:1013100001D4A8F10108002D05DD3E2102F80810D6
:101320006D1E08F10108407C002E02F8080008F14B
:10133000010804DA2D20764202F8080002E02B2092
:1013400002F808000A214FF47A70864208F1010879
:101350000BDB96FBF0F3303302F8083096FBF0F32A
:1013600008F1010800FB136601E0642E0CDB642029
:1013700096FBF0F3303302F8083096FBF0F308F1F7
:10138000010800FB136601E00A2E06DB96FBF1F074
:10139000303002F8080008F1010896FBF1F001FB7B
:1013A0001060303002F80800A16908F1010808EB6C
:1013B000050202EB0A00081AA0612078C00602D4D8
:1013C0002046FFF76CFA216A08AE01EB0A002062A2
:1013D00004E0D4E9012116F8010B9047BAF1010AA3
:1013E000F7D22078C00602D52046FFF758FA6E469D
:1013F00009E016F8010B3E280FD0D4E901219047EF
:10140000206A401C2062B8F10108F2D22046FFF7A2
:101410005CFA09B00320BDE8F08F206A28442062FE
:1014200003E0D4E90121302090476D1EEBD3F8E7AB
:10143000993B000002FCFFFF10B5436913B1AFF305
:10144000008001E0FFF720FB012010BD128800F1B1
:10145000240182840022C2840122EDE711684FF04A
:10146000FF32E9E7007B00F08000704770B5164658
:101470000C46054600F040F8036893F80101012886
:1014800006D0FF2C0FD8185D68B101202C7070BDFC
:10149000D3F807013246214603F2071303442846D6
:1014A000BDE8704018474FF0FF3070BD754600F042
:1014B000EBF8AE4605006946534620F00700854626
:1014C00018B020B5FEF714FFBDE820404FF000062D
:1014D0004FF000074FF000084FF0000B21F007011C
:1014E000AC46ACE8C009ACE8C009ACE8C009ACE85F
:1014F000C0098D467047000010B500F005F8001DCA
:1015000010BD00BF7137000000487047102C00204C
:101510002DE9F0411F46044603260168072A01F41D
:10152000006004DB08B116A505E016A503E008B1CC
:1015300015A500E015A521F010002060A069C01ECF
:10154000A0610FB1401EA0612046FFF7A8F94FB17E
:10155000D4E9012138469047206A401C2062C01C13
:10156000206206E0206AFAE7D4E9012115F8010BB0
:101570009047761EF8D22046FFF7A7F9BDE8F08124
:101580004E414E006E616E00494E4600696E660027
:101590002DE9F047814616468AB0354878440DC893
:1015A0008DE80D0032487844801C03AC0DC884E8F7
:1015B0000D0041F69B300844372190FBF1F290FB7F
:1015C000F1F5A5F1800501FB12041B3C02D5644234
:1015D000012000E00020DFF898A080460027FA44B0
:1015E000AAF1BE0A0EE0E0070AD03246684607EBD1
:1015F000470101230AEB810100F01BFB8DE8070086
:1016000064107F1C002CEED1194F7F44AE3F19E0CF
:10161000E80715D007EB04100DF1180A90E80E004A
:101620008AE80E00C068F04201D19819089032464D
:10163000012306A903A800F0FCFA03AB83E8070026
:101640006D10641C002DE3D14FF001033246694652
:10165000B8F1000F03A802D000F0D6FA01E000F0C4
:10166000E8FAC9E90001C9F808200AB0BDE8F08726
:10167000D038000010B50446AFF300802046BDE826
:101680001040FEF720BE000000487047F02B0020FD
:101690004FF0013C50F8042B51F8043B9A4221D101
:1016A000A2EB0C03934313EACC1317D150F8042B8D
:1016B00051F8043B9A4215D1A2EB0C03934313EA71
:1016C000CC130BD150F8042B51F8043B9A4209D1AA
:1016D000A2EB0C03934313EACC13DBD04FF00000D2
:1016E000704700BFD01A01BAB1FA81F101F01801B8
:1016F00022FA01F0CB40C1F12001DBB2C0B2C01A26
:101700002CFA01F3D11A914311EAC311E6D17047C3
:101710005FEA400C08BF91F0000F4FEA8C234FEABC
:10172000C12243EA51514FEA1C5018BF00F5F04066
:101730004FEA300018BF41F000415FEA6C5C00F0F6
:101740002980BCF1FF3F08BF40F080407047130C78
:1017500006BF12044FF0100C4FF0000C130E04BF24
:1017600012020CF1080C130F04BF12010CF1040C4F
:10177000930F04BF92000CF1020CD30F04BF520070
:101780000CF1010C11464FF00002A0F11F00A0EB7C
:101790000C00704711F0004F08BF704731F0004156
:1017A0003FF4D5AF0B0C06BF09044FF0100C4FF0FF
:1017B000000C0B0E04BF09020CF1080C0B0F04BF48
:1017C00009010CF1040C8B0F04BF89000CF1020C11
:1017D000CB0F04BF49000CF1010CCCF12003A0EBAE
:1017E0000C0022FA03F302FA0CF241EA030100F1C1
:1017F0000100704720F07F4C80EA030023F07F4710
:10180000ACEB070303F57C5300F0004003F1FF034A
:101810002DE980494FEA154B09B44FEA144325EAF4
:101820000B4E24EA03480FF2042606EB132749085F
:101830003E785FEA320203FB0667C7F5000707FB45
:1018400006F64FEA54374FEAD64606F1020607FB82
:10185000066CCCF1005C4FEA1C472CEA074C07FBF6
:1018600006F40CFB06F504EB15464FEA961634BF5A
:1018700000204FF000404FEAD13706FB07FC4FEA4B
:101880001C4C0CFB0BF7D21B03FB0CF761EB0701A5
:101890000CFB0EF7B0EB074072EB17420CFB08F79E
:1018A00034BFA2EB0742B2EB074261EB17414FEAAC
:1018B0000C444FEA910706FB07FC4FEA1C4C0CFB5B
:1018C0000BF7B0EBC74072EB573203FB0CF734BF9A
:1018D000A2EBC742B2EBC74261EB57310CFB0EF7EC
:1018E000B0EBC70072EB57720CFB08F734BFA2EBEA
:1018F000C702B2EBC70261EB5771039F4FEA8161E8
:1019000041EA921104EBCC044FEAD1374FEA8262EC
:1019100006FB07FC42EA90124FEA80604FEA1C4C3B
:101920000CFB0BF7D21B03FB0CF761EB07010CFB65
:101930000EF7B0EB074072EB17420CFB08F734BF11
:10194000A2EB0742B2EB074261EB17414FEA8C551D
:101950004FEA910704EB9C2406FB07FC4FEA1C4C62
:101960000CFB0BF7B0EBC74072EB573203FB0CF7E5
:1019700034BFA2EBC742B2EBC74261EB57310CFB5D
:101980000EF7B0EBC70072EB57720CFB08F734BFD1
:10199000A2EBC702B2EBC70261EB577115EB4C2506
:1019A0004FEA816141EA92114FEA82624FEAD137F0
:1019B00042EA901206FB07FC44F100044FEA806003
:1019C0004FEA1C4C0CFB0BF7D21B03FB0CF761EB33
:1019D00007010CFB0EF7B0EB074072EB17420CFB54
:1019E00008F734BFA2EB0742B2EB074261EB1741A5
:1019F00015EB1C154FEA813141EA92414FEA8232E0
:101A000042EA90424FEA80304FEA0C7644F10004FB
:101A100048EA03434EEA0B484FF0000EB2EB080CC5
:101A200071EB030724BF624639464EEB0E0E4FF0B2
:101A3000000B0018524149414BEB0B0BB2EB080C69
:101A400071EB03077BF1000B24BF624639464EEB76
:101A50000E0E4FF0000B0018524149414BEB0B0B9F
:101A6000B2EB080C71EB03077BF1000B24BF62465D
:101A700039464EEB0E0E51EA020718BF46F001063A
:101A800016EB0E7655F1000254F1000103D5BDE8C6
:101A90008901BDE80088BDE88901BDE80048B619A4
:101AA000524141EB0101A3F10103704780807F7E29
:101AB0007D7C7B7A797877767675747372717170C4
:101AC0006F6E6E6D6C6C6B6A6A6968686766666576
:101AD0006464636362616160605F5F5E5E5D5D5C04
:101AE0005C5B5B5A5A595958585757565655555575
:101AF0005454535352525251515050504F4F4F4ED5
:101B00004E4D4D4D4C4C4C4B4B4B4A4A4A49494922
:101B10004848484747474746464645454544444464
:101B2000444343434342424242414141002B9C468D
:101B300030D477002BD01CB54FEA370703B44FF0F1
:101B400010004FF01001BAF1000F06D0BCF1000FE9
:101B5000DCBF40F0080040F008014FF000000FBC6F
:101B6000BDE810400BF1010BBBF1010F08BF5FEAAC
:101B7000170722BF12F1010211F101014FF00041DC
:101B800043F1000300F0004043EA00007047F9D33E
:101B90005708D0E746EA064613F1400F4FEA1646CB
:101BA0001FDD13F1200FDFBF16430A46002120334B
:101BB0005B42BED0C3F1200746EA064602FA07F7A9
:101BC0004FEA164646EA0706C3F1200722FA03F257
:101BD00001FA07F721FA03F14FF0000342EA070286
:101BE000A7E746EA020646EA06464FEA164646EAEE
:101BF0000106BCBF46EA0646360C4FF000034FF024
:101C000000024FF0000194E72DE9804C9A4693467C
:101C100070B491E8380007C831EA400C48BF34EA94
:101C2000430C03D5FFF7E6FDFFF780FFF0BCBDE8EE
:101C3000008C2DE9804C9A46934670B491E83800A8
:101C400007C810F0804F08BF13F0804F03D100F099
:101C500005F8FFF76BFFF0BCBDE8008C20F07F4774
:101C600080EA030023F07F4C07EB0C03A3F57C53C1
:101C700000F00040A3F1FE0392F0000F00F0B380EB
:101C800095F0000F00F077802DE901494FEA1140EF
:101C90004FEA144621EA004800FB06FC24EA064706
:101CA00008FB06F607FB08F800FB07F718EB0648E9
:101CB0004CEB164C4FEA124B18EB07484FEA15460F
:101CC0004CEB174022EA0B4E0BFB06FC25EA0647BD
:101CD0000EFB06F607FB0EFE0BFB07F71EEB064E90
:101CE0004CEB164C4FF000061EEB074E4CEB174B1F
:101CF00018EB0B0840F1000018EB0E0B58EB000836
:101D000040F100008F1A4FF000013CBFC943661B31
:101D100014BFB5EB040C00213CBFC943F61B4FEACE
:101D200017444EEA8E0E27EA04454FEA1C4704FB8F
:101D300007622CEA074C05FB07F70CFB05F604FBD2
:101D40000CFC16EB074642EB174216EB0C4642EB37
:101D50001C421BEB060658EB0202414146EA9E0676
:101D600001D5BDE80189B619524141EB0101A3F14A
:101D70000103BDE801894FEA14454FEA114724EAFF
:101D8000054621EA074C05FB07F406FB07F70CFBA9
:101D900006F105FB0CFC11EB074144EB17444FEA3D
:101DA000124711EB0C4144EB1C4422EA074C05FBA3
:101DB00007F206FB07F70CFB06F605FB0CFC16EB1F
:101DC000074642EB174216EB0C4642EB1C456A18DD
:101DD00054F1000148BF7047B619524141EB01016F
:101DE000A3F10103704795F0000F37D04FEA11427D
:101DF0004FEA144721EA024624EA074C02FB07F1A6
:101E000006FB07F70CFB06F402FB0CFC14EB074483
:101E100041EB17414FEA154714EB0C4441EB1C41D1
:101E200025EA074C02FB07F506FB07F70CFB06F655
:101E300002FB0CFC16EB074645EB174516EB0C4670
:101E400045EB1C42121951F1000148BF7047B61909
:101E5000524141EB0101A3F1010370474FEA1445E0
:101E60004FEA114724EA054621EA074C05FB07F132
:101E700006FB07F70CFB06F24FF0000605FB0CFC17
:101E800012EB074241EB174112EB0C4251EB1C41A4
:101E900048BF7047921841EB0101A3F1010370475D
:101EA000FEE77047401A80B200B2704700487047A2
:101EB000D82B00200E4910B50968002048620D4952
:101EC000096848623C210A4800F0C4FF08B10120BB
:101ED00010BD3C21074800F0BDFF20B13C21044863
:101EE00000F0FFFFF3E700F007F8002010BD00004E
:101EF000A0000020E800002009480068416A094865
:101F0000018009490968496A418008490020086040
:101F1000486008814881C860086188827047000075
:101F2000A000002054000020E8000020D82B002052
:101F30002DE9F047054620480068406A1FFA80F9FD
:101F40001E480068406A1E4C1FFA80F848462188E7
:101F5000FFF7A8FF074661884046FFF7A3FFA4F8F4
:101F60000090A4F80280174C064627816081206803
:101F7000384420606168881960600020ADB14FF47A
:101F80007A7887FB08012A460023FEF73BFAE060D7
:101F900086FB08012A460023FEF734FA2061B5F5D6
:101FA000803F05D34FF6FF7003E0E060206100E062
:101FB000A8B2A082BDE8F087A0000020E8000020C1
:101FC00054000020D82B002072B6FEE72DE9F05F08
:101FD0004FF00008234F814680F8008044464FF4BC
:101FE000807A4FF0010B0020E10701D04FF4007020
:101FF000A10701D540F48060610701D540F400607D
:1020000040F06060B861142000F02EF800263546DC
:102010005146384600F0E2F9012801D1761CF6B2AB
:102020006D1C072D02D2032000F01EF8EDB2072D23
:10203000EED3042E04D30BFA04F0C0B240EA080831
:1020400046B1072E06D099F800100BFA04F00143B0
:1020500089F80010641CE4B2082CC4D34046BDE8E3
:10206000F09F000000100240064A10B55368064970
:10207000064C0968B1FBF4F141435068C01A88422C
:10208000FBD310BD001000E03800002040420F00DC
:1020900070B586B014216846FEF7D6FB1F480024B1
:1020A000016841F010010160016801F01001059123
:1020B000016841F008010160006800F00800059027
:1020C0001748016841F0807101601648446001685A
:1020D00041F001010160050D134E002229463046F2
:1020E00000F089F901200095CDE9010469463046E8
:1020F000039400F07BF8B015CDE900046946304642
:10210000029400F073F84FF4F850CDE900046946EA
:102110000648029400F06AF806B070BD30380240FC
:10212000FCED00E0001000E000100240000C024056
:10213000F8B504466846FFF749FF204A0125917823
:1021400011B9107050709570117892F801C00B465B
:1021500041EA0C01014003EA0C06314321700E46AE
:102160009DF8001080EA03070F4380EA0C010F433B
:10217000677053701070124800680022C0F304208A
:10218000A070104B1146104605FA00F7374204D0F4
:102190001F56491C3A4412B2C9B2401CC0B20828AA
:1021A000F2D341B102EB8200400090FBF1F0A57147
:1021B00000B2A080F8BD0020A071FAE75000002016
:1021C000100C0240C24C000870B5044600F018F92B
:1021D0000546601C02D004480078044400F010F961
:1021E000401BA042FAD370BD2C0000202DE9F84F0F
:1021F000DFF8BCA10022012503264FF00F090AF1E8
:10220000040BAAF1040E00BF0B6805FA02F4234088
:10221000A34270D10F7907F00307012F01D0022FDD
:1022200016D187684FEA420806FA08FC27EA0C072D
:10223000D1F80CC00CFA08FC4CEA070CC0F808C036
:102240004768A7430C79C4F3001494403C434460AE
:102250000C79E443A4070AD0C4684FEA420C06FA9A
:102260000CF7BC438F6807FA0CF72743C7600C795B
:1022700004F00304022C12D1D40800EB840CDCF827
:1022800020405707FF0E09FA07F824EA0804D1F89E
:10229000108008FA07F848EA0408CCF8208004689F
:1022A0004FEA420C06FA0CF7BC430F7907F003071C
:1022B00007FA0CF7274307604C6814F4403F70D0CE
:1022C0003C4C276847F480472760246822F00307C6
:1022D00004F480440094384C07EB040CDCF8084804
:1022E00097074FEA177809FA08F7BC43334FB8420B
:1022F00002D1002724E054E0314FB84201D1012738
:102300001EE0304FB84201D1022719E02E4FB842EB
:1023100001D1032714E02D4FB84201D104270FE06B
:102320002B4FB84201D105270AE02A4FB84201D10C
:10233000062705E0284FB84201D1072700E008270B
:1023400007FA08F72743CCF80878DAF80040574630
:10235000D1F804C09C435FEACC2C00D51C433C6000
:10236000DBF800405F46D1F804C09C435FEA8C2C48
:1023700000D51C433C60DEF800407746D1F804C02D
:102380009C435FEA8C3C00D51C433C60084F083FEF
:102390003C68D1F804C09C435FEACC3C00D51C43A8
:1023A0003C60521C102AFFF42FAFBDE8F88F0000EC
:1023B000083C014044380240003001400000024027
:1023C0000004024000080240000C024000100240DD
:1023D0000014024000180240001C0240006908403E
:1023E00000D001207047426921EA02030A4043EA13
:1023F0000241816170470AB1816170470904FBE7BE
:1024000001488068704700002C0000200248816865
:1024100002781144816070472C0000200B4810B5F1
:10242000016841F400710160016841F4806101605C
:10243000016841F480710160032000F06FF80F2003
:1024400000F006F800F024F8002010BD003C024027
:1024500070B50D4D04464FF47A712878B1FBF0F059
:102460000A490968B1FBF0F000F0ECFA48B9102C09
:1024700007D200222146501E00F030F800206C6088
:1024800070BD012070BD00002C000020380000202D
:102490000A4808B5016841F480410160006800F411
:1024A000804000900548001F016841F080510160A4
:1024B000006800F08050009008BD000044380240E1
:1024C000002809DB00F01F02012191404009800033
:1024D00000F1E020C0F8001170470000F0B40E4B8E
:1024E0001B680C46C3F30223C3F10705042D00D972
:1024F0000425191D072901D2002300E0DB1E012657
:1025000006FA05F1491E214099409E40761E16406C
:102510003143F0BC02F0C1BA0CED00E0064900F016
:10252000070208684FF6FF03184040EA0220034AFA
:1025300010430860704700000CED00E00000FA0551
:102540002DE9F0470E46050065D0DFF81481D8F874
:102550000000F7B200F00700B04207D288F8007020
:10256000D8F8000000F00700B04254D128683D4C74
:10257000810712D5400703D5206840F4E050206061
:102580002878000703D5206840F460402060206868
:10259000A96820F0F000084320602878C0072DD0FB
:1025A000304968680839012812D0022813D003285E
:1025B00011D00968890700292DDA216821F003016B
:1025C00001432160FFF71CFF814641F2883A0EE08B
:1025D00009688903EFE709688901ECE7FFF710FF55
:1025E000A0EB0901514502D90320BDE8F08720681E
:1025F000696800F00C00B0EB810FEFD1D8F8001043
:10260000404601F00701B14207D90770006800F0A9
:102610000700B04201D00120E7E72878400705D540
:102620002068E96820F4E05008432060287800071B
:1026300006D52068296920F4604040EAC100206086
:1026400000F018F82168084AC1F30311515CC84032
:102650000649086006480068FFF7FAFE0020C4E754
:10266000003C024008380240B24C0008380000200C
:1026700030000020154810B5006810F00C02144816
:1026800013D01449042A0FD0082A0ED10F4C241F4E
:102690002268236802F03F025B0207D52068C0F37E
:1026A0008810A0FB010106E0084610BD2168C1F3B7
:1026B0008811A1FB00010023FDF72DFE2168C1F365
:1026C0000141491C4900B0FBF1F010BD083802403F
:1026D0000024F40040787D012DE9F84F04006ED00D
:1026E0002078DFF84C93C007A9F104054AD009F11E
:1026F00004000168C1F38101012908D00068C0F31A
:10270000810002280AD1D9F80000400206D52868C5
:10271000800337D560680028E1D033E06068B0F509
:10272000803F10D0B0F5A02F286810D020F4803062
:102730002860286820F4802028606068A8B1FFF72E
:102740005FFE06460DE0286840F48030F4E740F470
:1027500080202860F7E700BFFFF752FE801B642847
:1027600073D828688003F7D50CE0FFF749FE0646CA
:1027700005E000BFFFF744FE801B6428F0D82868FE
:102780008003F7D42078DFF8AC8280074FF0000A8E
:102790003ED5A748001D016811F00C0F08D0006855
:1027A000C0F3810002280BD1D9F80000400207D401
:1027B0002868800716D5E068012800D112E033E1CF
:1027C000E068B8B10120C8F80000FFF719FE06461E
:1027D00005E000BFFFF714FE801B0228C0D8286860
:1027E0008007F7D52868216920F0F80040EAC10089
:1027F00028600DE0C8F800A0FFF702FE064604E0DE
:10280000FFF7FEFD801B02281FD828688007F7D439
:102810002078000722D5864F87486169703771B1EB
:1028200001210160FFF7ECFD064604E0FFF7E8FD3B
:10283000801B022809D838688007F7D50EE0C0F859
:1028400000A0FFF7DDFD064605E082E0FFF7D8FDBA
:10285000801B02287DD838688007F7D4207840078D
:1028600068D5DFF8CCB100270BF13C0BDBF800009A
:10287000C0000BD4DBF8001041F08051CBF8001001
:10288000DBF80000012700F0805000906B4E3068AC
:10289000C00510D4306840F480703060FFF7B0FDA0
:1028A000009005E0FFF7ACFD0099401A022850D8CF
:1028B0003068C005F6D55E4EA0686C3601280FD092
:1028C0000528306810D020F001003060306820F01A
:1028D00004003060A068B8B1FFF792FD00900FE0EF
:1028E000306840F00100F4E740F004003060F7E7A2
:1028F000FFF786FD0099411A41F28830814266D87F
:1029000030688007F4D50EE0FFF77AFD009007E00D
:10291000FFF776FD0099411A41F28830814256D87E
:1029200030688007F4D42FB1DBF8001021F080511B
:10293000CBF80010A069C8B33D49091D0968C1F36F
:10294000810102294AD00228504607D0C8F8600009
:1029500000E03CE0FFF754FD04463BE04746C8F882
:102960006000FFF74DFD064605E000BFFFF748FD9C
:10297000801B02282BD828688001F7D4D4E90701EE
:102980000843A16A2E4A490802EB0141626A41EA02
:102990008211084394F82C1040EA0161C9F8001034
:1029A00001203866FFF72CFD044606E03EE000BF3C
:1029B000FFF726FD001B022809D828688001F7D5FB
:1029C00034E000BFFFF71CFD001B022802D90320E2
:1029D000BDE8F88F28688001F4D427E00128F7D0FB
:1029E000D9F80000E26900F4800191421CD1226A0A
:1029F00000F03F01914217D147F6C071626A014071
:102A0000B1EB821F10D1A26A4FF0FF3300F44031C6
:102A100003EB5202B1EB024F06D194F82C1000F0F8
:102A20007060B0EB016F01D00120D1E70020CFE74B
:102A30000438024000004742800E474200700040C8
:102A40000000FFFF10B5401EB0F1807F01D30120D0
:102A500010BD4FF0E02460610F21601702F01DF8F7
:102A60000020A06107202061002010BD7047704742
:102A700070B590F83C20012A32D0012480F83C4007
:102A8000022280F83D2003685A689D6822F0700693
:102A90000A6832435A60134B02689A4214D0B2F16A
:102AA000804F11D0104B9A420ED0104B9A420BD04F
:102AB0000F4B9A4208D00F4B9A4205D00E4B9A42C8
:102AC00002D00E4B9A4204D1496825F08003194385
:102AD000916080F83D40002180F83C10084670BDB0
:102AE000022070BD000001400004004000080040CA
:102AF000000C00400004014000400140001800406C
:102B000010B5040003D094F83D0010B107E0012097
:102B100010BD002084F83C00204600F01FF8022081
:102B200084F83D00211D206801F090FA012084F80E
:102B3000460084F83E0084F83F0084F8400084F8A2
:102B4000410084F8420084F8430084F8440084F88B
:102B5000450084F83D00002010BD000008B5006865
:102B60000B49884212D10B48016841F00101016014
:102B70000068002200F00100009011461920FFF7C4
:102B8000ADFCBDE808401920FFF79ABC08BD000065
:102B9000000001404438024090F83D10012901D066
:102BA00001207047022180F83D100168CA6842F098
:102BB0000102CA6000681149884214D0B0F1804F08
:102BC00011D00F4988420ED00E4988420BD00E49D1
:102BD000884208D00D49884205D00D49884202D06C
:102BE0000C49884204D1816801F00701062903D00D
:102BF000016841F0010101600020704700000140C0
:102C00000004004000080040000C004000040140A7
:102C1000004001400018004070B5044690F83C00A8
:102C20000025012817D0012684F83C60022084F892
:102C30003D002068826822F0770222F47F428260A1
:102C40000868502838D00DDC20284FD005DC90B320
:102C5000102811D14AE0022070BD302846D040280B
:102C60000AD13BE060282FD070280DD0B0F5805FEE
:102C700003D0B0F5005F12D0012584F83D6000203C
:102C800084F83C00284670BDCB68D1E9012120685A
:102C900001F055FA2068816841F0770109E0CB68BE
:102CA000D1E90121206801F04AFA2068816841F4E5
:102CB00080418160E1E719E0CA684968206801F055
:102CC00013FB5021206806E0CA684968206801F0BB
:102CD0001CFB6021206801F03CFACEE7CA68496815
:102CE000206801F001FB40212068F4E722680146DA
:102CF0001046F0E72DE9F0410D46040003D094F8AA
:102D00003D0018B108E00120BDE8F081002084F802
:102D10003C00204600F040F8022084F83D00206886
:102D2000816844F2070291438160211D206801F00F
:102D30008DF9226890689169166A2B68AF69034320
:102D400040F20330814341EA0721A868EF69084354
:102D50004FF6FC418843E96840EA072001432869AF
:102D60002F6A000140EA0730084369686D6926F060
:102D7000AA0646EA0515294393602268906154F833
:102D8000460B0162012004F81F09E0752076E07609
:102D90002077A0750020B7E730B587B0044614212E
:102DA0006846FDF751FD264824682549103802225F
:102DB0000123B4F1804F1DD0224DAC4218D10C68D4
:102DC00044F002040C60096801F0020105910168F9
:102DD00041F0040101600068694600F004000590BC
:102DE000C0208DE80D00039217480492FFF7FEF90A
:102DF00007B030BD0C6844F001040C60096801F0B4
:102E000001010591016841F001010160016801F0D3
:102E100001010591016841F0020101600068694605
:102E200000F00200059020208DE80D000748CDE954
:102E30000323FFF7DBF90820009069460448D5E733
:102E400040380240000400400008024000000240F8
:102E50000004024070B590F83E60044690F83F5080
:102E600090F8423090F84320022021B104290ED07E
:102E7000012E1BD114E0012E18D1012B16D184F89C
:102E80003E0084F8420001220021206820E0012D4C
:102E90000CD1012A0AD184F83F0084F8430014E0E1
:102EA000012D03D1012B01D1012A01D0012070BDD8
:102EB00084F83E0084F83F0084F8420084F8430020
:102EC00001220021206801F02DF90122042120684F
:102ED00001F028F92068016841F00101016000203B
:102EE00070BD30B5044600680D0023D0042D04D019
:102EF0000022114601F016F920680022042101F099
:102F000011F92068016A41F21112114207D1016AD8
:102F10009210114203D1016821F0010101600120EA
:102F20005DB1042D0DD004F83E0F6070207160710A
:102F3000002030BD00221146E1E704F83E0F207169
:102F4000F6E704F83F0FFAE770472DE9F041044631
:102F50000068C66805694FF00007A90713D5B107D7
:102F600011D5F91E01610120207720688069800752
:102F7000204602D0FFF7E8FF04E000F0A9F8204661
:102F800000F04EF92777680716D5700714D5216829
:102F90006FF004000861022020772068806910F437
:102FA000407F204602D0FFF7CFFF04E000F090F80A
:102FB000204600F035F92777280715D5300713D5B7
:102FC00021686FF008000861042020772068C0693C
:102FD0008007204602D0FFF7B7FF04E000F078F842
:102FE000204600F01DF92777E80616D5F00614D51F
:102FF00021686FF010000861082020772068C06900
:1030000010F4407F204602D0FFF79EFF04E000F05E
:103010005FF8204600F004F92777E80708D0F007AA
:1030200006D021686FF001000861204600F05EF9CB
:10303000280608D5300606D521686FF080000861A3
:103040002046FFF713FD680608D5700606D52168EF
:103050006FF040000861204600F062F9A8060AD52A
:10306000B00608D521686FF0200008612046BDE851
:10307000F041FFF7FCBCBDE8F081000010B586B060
:10308000044614216846FDF7DFFB0E49206888429C
:1030900015D10D480021026842F008020260006864
:1030A00000F0080005904FF4C04000900220CDE9E8
:1030B00001010390049069460448FFF797F806B0B1
:1030C00010BD00000008004030380240000C0240F3
:1030D000704770B5044690F83C0000260D46012864
:1030E0000FD0012084F83C006AB1042A1DD0082AC0
:1030F0002FD00C2A3FD00126002084F83C00304617
:1031000070BD022070BD206801F02CF82068816934
:1031100041F0080181612068816921F00401816129
:10312000206881692A69114311E0206801F04AF89A
:103130002068816941F4006181612068816921F41E
:1031400080618161206881692A6941EA0221816187
:10315000D2E7206801F06CF82068C16941F00801ED
:10316000C1612068C16921F00401C1612068C169A1
:103170002A69114311E0206801F08EF82068C169C6
:1031800041F40061C1612068C16921F48061C161BD
:103190002068C1692A6941EA0221C161ACE710B522
:1031A000040003D094F83D0010B107E0012010BDE9
:1031B000002084F83C00204600F01EF8022084F82D
:1031C0003D00211D206800F041FF012084F84600E9
:1031D00084F83E0084F83F0084F8400084F8410001
:1031E00084F8420084F8430084F8440084F84500E1
:1031F00084F83D00002010BD08B5006806498842EB
:1032000008D10648016841F004010160006800F03F
:103210000400009008BD0000000800404038024053
:103220007047000010B50446022249B104290ED0AF
:10323000082913D094F84100012816D0012010BDB0
:1032400094F83E000128F9D184F83E200FE094F86C
:103250003F000128F2D184F83F2008E094F84000B4
:103260000128EBD184F8402001E084F841200122BC
:10327000206800F057FF16492068164A884201D09E
:10328000904203D1436C43F4004343642068884276
:1032900013D0B0F1804F10D00F4988420DD00F49A4
:1032A00088420AD00E49884207D0904205D00D4985
:1032B000884202D00C49884204D1816801F007019C
:1032C000062903D0016841F001010160002010BD12
:1032D00000000140000401400004004000080040DC
:1032E000000C0040004001400018004010B500688C
:1032F000084988420CD1084CA088411CA180B0F537
:103300007A7F05D304210548FFF76DF80020A080DF
:1033100010BD000000000140000000200004024039
:103320007047FEE74FF41671884201DD084670478A
:10333000002801DA0020704700B2704700210180A8
:10334000817070472DE9F0410E4617460546B27967
:1033500006999846002092B1AA781AB1B0882A88B6
:10336000801A00B2B6F9042000EB4000920002EB94
:103370004004B4F5004F0BDB47F6FF740CE000206F
:103380002880A8703880A8F800000880BDE8F08187
:103390000A48844200DA04460C8004F59670FFF770
:1033A000C1FF3880C4F59670FFF7BCFFA8F8000095
:1033B000B08828800120A870E8E700000080FFFFA7
:1033C00070B58CB00E46054624216846FDF73CFAE0
:1033D000002409940A94C5E900644FF6FF70C5E91A
:1033E00002402C61AC610320CDE900040120CDE94D
:1033F000020408210491CDE90540CDE90741694661
:103400002846FFF777FC08B1FEF7DEFD099409A90D
:1034100028460A94FFF72CFB002801D0FEF7D4FDC4
:103420000CB070BDF0B587B014216846FDF70CFAFA
:103430002C480024016841F080010160016801F01E
:1034400080010591016841F004010160016801F00B
:1034500004010591016841F002010160016801F079
:1034600002010591016841F00101016000681E4EF2
:1034700000F001000590002220213046FEF7BBFF3E
:103480001A4F002204213846FEF7B5FF2020009095
:103490000125CDE90154694630460394FEF7A6FEA6
:1034A00004200090CDE90154694638460394FEF7A4
:1034B0009DFE02200095CDE9014069460C48FEF7CB
:1034C00095FE00221F213046FEF795FF1F20009039
:1034D000CDE90154694630460394FEF787FE07B0F4
:1034E000F0BD0000303802400008024000040240F5
:1034F0000000024010B586B00024184800940194E2
:10350000029403940494144905940160A721C0E92E
:10351000011440F2E731C0E903148021C0E90541FC
:10352000FFF7EEFA08B1FEF74FFD4FF48050009020
:1035300069460A48FFF770FB08B1FEF745FD0494A1
:1035400004A906480594FFF793FA002801D0FEF776
:103550003BFD06B010BD00000000014058000020F7
:103560004FF080410148FFF72BBF0000A000002072
:1035700001490248FFF724BF00040040E800002092
:1035800010B58AB0002407941C2168460894FDF702
:103590005BF91A481849C0E9001442F2CF01C0E9AA
:1035A0000241802104618161FFF7F9FD08B1FEF756
:1035B0000BFD079407A911480894FFF759FA08B1C1
:1035C000FEF702FD6020CDE9000402940422694662
:1035D0000A480494FFF77DFD08B1FEF7F5FC0822C8
:1035E00069460648FFF775FD08B1FEF7EDFC034894
:1035F000FFF744FD0AB010BD000800403001002074
:10360000FEE74FF47A71884202DC4942884200DAD0
:103610000846704710B500F079F804210748FFF715
:1036200001FE08B1012010BD08210448FFF7FAFD92
:103630000028F8D000F06AF8F4E70000300100201C
:10364000002800DA404205490968C96A491C484314
:103650004FF47A71B0FBF1F07047000030010020A8
:1036600070B51D461646DDE90432012A01D0012459
:1036700000E00024002B03DA134622461C4603E038
:1036800002D14FF000021446FEF7B5FE224629464D
:103690003046BDE87040FEF7AEBE00002DE9FC41AB
:1036A0000D46FFF7AEFF04462846FFF7AAFF0127A5
:1036B000144ECDE9004705463246022339461046EE
:1036C000FFF7CEFFCDE9005732460823042110460C
:1036D000FFF7C6FF2046FFF7B3FF0B4F396888633B
:1036E0002846FFF7ADFF3968C8632C4307D0012295
:1036F00002B03046BDE8F0411021FEF77CBE00224A
:10370000F6E70000000802403001002010B5114C1F
:10371000002210212046FEF76EFE0F4A002110689D
:1037200081631068C1630A4601212046FEF763FEEB
:10373000002202212046FEF75EFE002204212046E0
:10374000FEF759FE20460022BDE810400821FEF792
:1037500052BE00000008024030010020FEE710B514
:10376000044600F0E7F9782000F00AFA002000F0A3
:1037700007FA204600F004FABDE8104000F0EFB967
:1037800070B501703A214170002101250BE000BFA6
:1037900005FA01F4144201D0312400E03024461827
:1037A000491CB470C9B29942F2D318440021817007
:1037B00070BD000030B587B014216846FDF744F8AD
:1037C0003D480021026842F002020260006800F0F9
:1037D000020005903948026842F080720260384861
:1037E0004160016841F001010160364D4FF44074C1
:1037F000012221462846FEF7FEFD1120CDE90040BA
:10380000012002900220039069462846FEF7EEFC54
:103810006420FEF7D9FCAE20FFF7A1FF2020FFF7C0
:103820009EFF0220FFF79BFF8120FFF798FF7F207C
:10383000FFF795FFA120FFF792FFC820FFF78FFF4A
:10384000A620FFF78CFFA820FFF789FF3F20FFF796
:1038500086FFD320FFF783FF0020FFF780FFD520EE
:10386000FFF77DFF8020FFF77AFFD920FFF777FF72
:10387000F120FFF774FFDA20FFF771FF1220FFF746
:103880006EFFDB20FFF76BFF4020FFF768FF8D2006
:10389000FFF765FF1420FFF762FFAF20FFF75FFF20
:1038A000002409A1204600F093F9641CE4B2082C1E
:1038B000F7D307B030BD000030380240FCED00E027
:1038C000001000E000040240000000002DE9FF4F5E
:1038D00093B08F4E8A468146DDE92215DDE920CB83
:1038E00045CE249C8DE845008AA603AF45CE87E8E7
:1038F00045008BA28CA6D2E90002CDE9090245CE93
:1039000006AF87E845000A2091FBF0F10AB295FB6B
:10391000F0F11E270426062509B2BCF1000F2AD0BB
:10392000002B02DAC3F100031BB24FF0450C8DF8F7
:1039300000C04FF03A0C8DF801C002DA4FF02D0CA8
:1039400001E04FF02B0C8DF802C093FBF0FC0CF162
:10395000300C8DF803C04FF02E0C8DF804C093FB93
:10396000F0FC00FB1C3303F130038DF805304FF001
:1039700000038DF806304FF0640892FBF8F393FBD8
:10398000F0FC00FB1C3303F130038DF80E3092FB8A
:10399000F0F393FBF0FC00FB1C3303F130038DF8D4
:1039A0000F3092FBF0F300FB132202F130028DF88E
:1039B000102091FBF8F292FBF0F300FB132202F1CE
:1039C00030028DF8142091FBF0F292FBF0F300FB33
:1039D000132202F130028DF8152091FBF0F200FB6A
:1039E000121101F130018DF81610002C02DA61423B
:1039F00009B200E0214691FBF0F109B2B1F57A7FFE
:103A000001DB40F2E731002C01DA2D2200E02B220D
:103A10008DF8262091FBF8F292FBF0F300FB1322C5
:103A200030328DF8272091FBF0F292FBF0F300FB8F
:103A3000132230328DF8282091FBF0F200FB121196
:103A400030318DF8291097FBF0F191FBF0F200FB7B
:103A5000121130318DF8191097FBF0F100FB117144
:103A600030318DF81A1096FBF0F191FBF0F200FB6B
:103A7000121130318DF81D1096FBF0F100FB116131
:103A800030318DF81E1095FBF0F191FBF0F200FB48
:103A9000121130318DF8211095FBF0F100FB11501F
:103AA00030308DF822004946002000F091F80823BC
:103AB000524647210BA8FFF763FE0BA9012000F037
:103AC00087F8082355210EA8159AFFF759FE0EA96D
:103AD000022000F07DF86946032000F079F803A980
:103AE000042000F075F809A9052000F071F80523FD
:103AF0005A46412111A8FFF743FE11A9062000F004
:103B000067F806A9072000F063F817B0BDE8F08F4A
:103B1000804D00084C3A30303020523A303030007E
:103B2000433A2B30303000004230302050303020CB
:103B30004430300070B501214C02204600F0E4F81A
:103B400001210D02284600F0DFF80021204600F098
:103B5000DBF82846BDE87040002100F0D5B810B56C
:103B60004FF400740021204600F0CEF80121080235
:103B700000F0CAF82046BDE81040012100F0C4B8AA
:103B80002DE9F04100244FF4007705467E10E90945
:103B9000384600F0B9F80121304600F0B5F80021B0
:103BA000304600F0B1F86806641C050EE4B2082C3B
:103BB000EDD30121384600F0A7F80121304600F08E
:103BC000A3F83046BDE8F041002100F09DB80000A8
:103BD000F0B5A3B00C46064680216846FCF734FEDB
:103BE0000020074620AB6D465CE000BFA2F130012B
:103BF000092910D8DFF80CC102EB820200216244CF
:103C000002EB010C1CF8F0CC03F801C0491CC9B24E
:103C10000529F5D33AE0A2F14101192915D8DFF8B9
:103C2000E4C002EB82020CF1320C002102EB0C0228
:103C300002EB010CACF5805C9CF8BBCE03F801C034
:103C4000491CC9B20529F3D320E08DF880702B2AD6
:103C50004AD02D2A48D000218DF881102B2A45D03A
:103C60002D2A45D03A2A45D02E2A45D05FF00001B2
:103C70008DF882102B2A41D02D2A3FD03A2A3FD0EE
:103C80005FF000018DF883108DF8847000215A5C7C
:103C90002A54401C491CC9B2C0B20529F7D3401CA4
:103CA000C0B2641C22780AB17A289FD3B036F0B231
:103CB000FFF755FD0020FFF752FD1020FFF74FFDE5
:103CC000FFF738FF7820FFF75BFF4020FFF758FF32
:103CD0000024285DFFF754FF641CE4B2802CF8D365
:103CE000FFF73DFF23B0F0BD0821B5E71C21BFE77A
:103CF0000821BDE72421BBE74021B9E70821C1E73E
:103D00002421BFE7CC4C00080A4610B501460848FC
:103D1000FEF771FB074A51680748084B0068B0FB83
:103D2000F3F0400053685B1A8342FBD310BD0000E0
:103D300000040240001000E03800002040420F0064
:103D400070470000F0B5574CA1B0B4F90430002B17
:103D500002DA584200B200E0184653A2D2E900123B
:103D6000CDE91E12A179C9B1002B01DA2D2200E0A4
:103D70002B228DF878200A2590FBF5F230328DF851
:103D800079202E228DF87A2090FBF5F205FB1200A7
:103D900030308DF87B0000208DF87C00414D243DB3
:103DA0002878012876D0022876D041A0B5F90A708B
:103DB000B5F90860B5F906C0A2788DE80610CDE91E
:103DC000036762782178FFF781FD2878012865D0A4
:103DD000022865D038A1286A0DF1680CD0E9036784
:103DE000B0F90820B0F90A308CE8CC00D0E90067BF
:103DF000838AA0780DF1580CC0F300128CE8CC0037
:103E0000C0F3C003C0F38002C0F3400600F001001D
:103E1000CDE91206CDE91423B5F90A00B5F9082059
:103E2000B5F906301EADCDE91020CDE90E5360780E
:103E30000AAFC609C0F38015C0F34013C0F30012E7
:103E400087E86C00C0F3C003C0F38002C0F34005F4
:103E500000F00100CDE90605CDE90823207802AE87
:103E6000C509C0F38014C0F34013C0F3001286E804
:103E70003C00C0F3C003C0F38002CDE90023C0F3CF
:103E8000400300F001020E4800F04CFB21B0F0BDF1
:103E900000E001E00BA089E70CA087E70DA19AE7FD
:103EA0000DA198E7240000204E4F4C494E450000DC
:103EB00048332057414954005741495400000000FD
:103EC000884E000848332052554E00004833204C9D
:103ED0004F53540052554E004C4F535400000000B5
:103EE00010B50446FFF712FC0848FFF727FA074908
:103EF00000221C390648CA800A814A810C700122BE
:103F0000BDE810402021FEF776BA00001C0000201A
:103F1000000802407047FEF779BA000030B593B050
:103F200030216846FCF790FC14210CA8FCF78CFCAF
:103F30001E480025016841F080510160006800F0D2
:103F4000805011901A48016841F480410160006876
:103F5000022400F4804011900120009000040190A0
:103F60008001CDE90640192008904FF4A870CDE9F2
:103F7000090404200B906846FEF7AEFB08B172B648
:103F8000FEE70CA90F2081E831004FF4A0500F90FC
:103F90004FF48050109005210CA8FEF7D1FA0028AC
:103FA00001D072B6FEE713B030BD000040380240C9
:103FB0000070004070B5194C2068194A10F00C01CF
:103FC000184804D0184D042903D0082903D00260F2
:103FD0001BE0056019E01149091F0B68C3F3805607
:103FE0000B6803F03F0316B1B5FBF3F201E0B2FB3F
:103FF000F3F20B680968C3F388135A43C1F3014114
:10400000491C4900B2FBF1F101602168074AC1F384
:104010000311515C0268CA40026070BD083802405A
:104020000024F4003800002040787D01B24C0008E4
:104030000248016841F470010160704788ED00E0BA
:104040000148FEF782BF000058000020F0B502686A
:10405000294C2A4D2A4E2B4F2B4B4FF0804CA0421F
:1040600009D0604507D0A84205D0B04203D0B8427D
:1040700001D0984204D122F0700E4A6842EA0E0242
:10408000A0421BD0604519D0A84217D0B04215D02D
:10409000B84213D0984211D01C4DA8420ED01C4DEE
:1040A000A8420BD01B4DA84208D01B4DA84205D0FA
:1040B0001A4DA84202D01A4DA84203D122F44075ED
:1040C000CA682A434D6922F080022A4302608A6846
:1040D000C2620A688262A04201D0984201D1096995
:1040E0000163012141610169C90703D0016921F020
:1040F00001010161F0BD000000000140000400402A
:1041000000080040000C0040000401400040014055
:10411000004401400048014000180040001C0040DD
:104120000020004010B501F01F030121046A9940EE
:104130008C430462016A9A401143016210BD10B5BC
:10414000846842EA032224F47F440A4322438260C3
:1041500010BD826822F070020A4342F007018160BC
:1041600070470000F0B5036A026A22F001020262A1
:1041700042688469124E24F073050C682C4323F0C6
:1041800002058B682B430D4DA84201D0B04205D1EA
:1041900023F00807CB683B4323F00403A84201D077
:1041A000B04205D14D6922F4407215438A692A4311
:1041B00042608461496841630362F0BD00000140D0
:1041C00000040140F0B5026A036A23F010030362A1
:1041D000436884690D6824F4E64444EA05248D6844
:1041E00022F0200242EA05120F4D104EA84201D0E3
:1041F000B04206D1CF6822F0800242EA071222F0D4
:104200004002A84201D0B04207D14D6923F4406377
:1042100043EA85038D6943EA850343608461496805
:1042200081630262F0BD0000000001400004014013
:10423000F0B5026A036A23F4807303624368C469B9
:1042400022F4007224F073050C68124E2C438D6822
:1042500042EA05220E4DA84201D0B04206D1CF68F5
:1042600022F4006242EA072222F48062A84201D0CE
:10427000B04207D14D6923F4405343EA05138D69D9
:1042800043EA05134360C4614968C1630262F0BD3B
:10429000000001400004014030B5046A026A22F4C3
:1042A000805202624268C3690D6823F4E64343EA20
:1042B00005238D6824F4005444EA0534084DA842CF
:1042C00002D0084DA84204D14D6922F4804242EA4E
:1042D00085124260C36149680164046230BD000018
:1042E000000001400004014010B5036A046A24F094
:1042F00001040462846924F0F00444EA021423F007
:104300000A020A438461026210BD10B5036A046A9E
:1043100024F010040462846923F0A00324F47044A0
:1043200044EA023243EA01118261016210BD0000D9
:10433000F0B506464B4885B0016841F010010160B8
:1043400048481438016841F001010160464C0025DD
:10435000E56014216846FCF777FA4FF4C0600090DE
:104360000220019001200290032003900720049076
:1043700069463E48FDF73AFF012211462520FEF727
:10438000ADF82520FEF79CF8FFF714FE384F38688B
:10439000400800EE100A3001B8EE401A00EE100A94
:1043A000B8EE400AC1EE000ABCEEE00A10EE100AB8
:1043B00080B200EE100AB8EE400A30EEC00AF3EE0A
:1043C000000A20EE200ABCEEC00A10EE101A89B2D4
:1043D00041EA0010A060E06840F00400E060E0689E
:1043E00040F00800E060E06820F48050E060256163
:1043F000206920F4405020616561606920F0400030
:104400006061606920F080006061E06820F08000F9
:10441000E060E06840F02000E060E06840F01000FC
:10442000E0606FF0F0002060E06840F40050E06071
:104430001049A1F54660416000F5666181600EA0FB
:10444000FCF71EF8FFF7B6FD1A493868B0FBF1F12A
:1044500019A0FCF715F831462048FCF711F805B013
:10446000F0BD00004438024000100140000002404E
:1044700038000020D80D00200D0D0D3D3D3D3D3D87
:104480003D3D3D3D3D3D202053544D33324634307B
:1044900037564520CDE2C9E820B3F5CABCBBAFB161
:1044A000A8B8E6203D3D3D3D3D3D3D3D3D3D3D0DFA
:1044B0000000000040420F00CFB5CDB3CAB1D6D343
:1044C000C6B5C2CA20202020202020202020202065
:1044D000202564204D487A0D00000000844F00081C
:1044E000F0B50E4B00224FF4006C16469D680AE0B2
:1044F0009C89875C2F55641CA4B29C81644500D1C3
:104500009E81521C92B28A42F2D30548C1680906C4
:1045100003D4C16841F08001C160F0BD7801002082
:10452000001001400FB410B5ADF5007D4FF40074DC
:1045300021466846FCF788F983AB21466846829A93
:10454000FBF784FF6846FCF71BF981B26846FFF76A
:10455000C7FF0DF5007D10BC5DF814FB2DE9F04799
:10456000264D2868264C00064FF0000705F104068A
:104570004FF4007218D521480C300168090613D594
:10458000E189A3685B5C3360491C89B2E181914297
:1045900000D1E781E189A289914203D1016821F02C
:1045A00080010160BDE8F0872868DFF85880800648
:1045B0000ED5B8F80600904203D313A0FBF760FFB6
:1045C00019E032681B4B1A54401CA8F80600E9E7B2
:1045D0002868C006E6D52780914616496068FCF732
:1045E000EEF8B8F806102180A8F806704946114880
:1045F000FCF72AF928683068D4E70000004C004036
:10460000A80100203C000020BEAFB8E6A3BA554187
:10461000525434B5A5D6A1BDD3CAD5C1BFA3ACD21F
:10462000D1B3ACB3F6BDD3CAD5BBBAB4E6B4F3D0FC
:10463000A10D2100D80700202DE9F041224C20686F
:10464000224D00064FF000074FF4007116D5E068C8
:10465000000613D5E889AA68125C6260401C80B22B
:10466000E881884200D1EF81E889A989884203D195
:10467000E06820F08000E060BDE8F0812068144E22
:1046800080060CD53089884203D312A0FBF7F8FED0
:1046900017E061681A4A1154401C3081ECE7206829
:1046A000C006E9D52F8088460A4615496868FCF798
:1046B00086F830892880378141461148FCF7C4F8D4
:1046C00020686068D8E7000000500040B801002072
:1046D0003C000020BEAFB8E6A3BA5541525435B5F0
:1046E000A5D6A1BDD3CAD5C1BFA3ACD2D1B3ACB3FB
:1046F000F6BDD3CAD5BBBAB4E6B4F3D0A10D210040
:10470000D80900202DE9F041244C2068244D0006F2
:104710004FF0000717D5E068000614D5E889A968AE
:10472000095C6160401C80B2E881B0F5006F00D187
:10473000EF81E889A989884203D1E06820F08000F0
:10474000E060BDE8F0812068164E80064FF40071ED
:104750000DD53088884203D313A0FBF791FE1AE0F1
:1047600061680F4A60321154401C3080E9E72068CC
:10477000C006E6D588460A4609492F806031686838
:10478000FCF71DF8308828800548378041466030A6
:10479000FCF75AF820686068D3E700000010014079
:1047A000780100203C000020BEAFB8E6A3BA554116
:1047B000525431B5A5D6A1BDD3CAD5C1BFA3ACD281
:1047C000D1B3ACB3F6BDD3CAD5BBBAB4E6B4F3D05B
:1047D000A10D21002DE9F047264D2868264C000642
:1047E0004FF0000705F104064FF4007218D5214878
:1047F0000C300168090613D5E189A3685B5C33605E
:10480000491C89B2E181914200D1E781E189A28905
:10481000914203D1016821F080010160BDE8F08779
:104820002868DFF8588080060ED5B8F8020090425C
:1048300003D313A0FBF724FE19E032681B4B1A5474
:10484000401CA8F80200E9E72868C006E6D52780E2
:10485000914616496068FBF7B2FFB8F80210218054
:10486000A8F8027049461148FBF7EEFF2868306847
:10487000D4E7000000440040880100203C000020F4
:10488000BEAFB8E6A3BA5541525432B5A5D6A1BDC4
:10489000D3CAD5C1BFA3ACD2D1B3ACB3F6BDD3CAD2
:1048A000D5BBBAB4E6B4F3D0A10D2100D8030020E3
:1048B0002DE9F047264D2868264C00064FF00007EA
:1048C00005F104064FF4007218D521480C30016838
:1048D000090613D5E189A3685B5C3360491C89B282
:1048E000E181914200D1E781E189A289914203D11E
:1048F000016821F080010160BDE8F0872868DFF8D9
:10490000588080060ED5B8F80400904203D313A057
:10491000FBF7B6FD19E032681B4B1A54401CA8F88F
:104920000400E9E72868C006E6D5278091461649C5
:104930006068FBF744FFB8F804102180A8F8047001
:1049400049461148FBF780FF28683068D4E700002B
:1049500000480040980100203C000020BEAFB8E6AF
:10496000A3BA5541525433B5A5D6A1BDD3CAD5C1BA
:10497000BFA3ACD2D1B3ACB3F6BDD3CAD5BBBAB426
:10498000E6B4F3D0A10D2100D80500202DE9F047B1
:10499000264D2868264C00064FF0000705F1040656
:1049A0004FF4007218D521480C300168090613D560
:1049B000E189A3685B5C3360491C89B2E181914263
:1049C00000D1E781E189A289914203D1016821F0F8
:1049D00080010160BDE8F0872868DFF85880800614
:1049E0000ED5B8F80A00904203D313A0FBF748FD98
:1049F00019E032681B4B1A54401CA8F80A00E9E77A
:104A00002868C006E6D52780914616496068FBF7FE
:104A1000D6FEB8F80A102180A8F80A704946114855
:104A2000FBF712FF28683068D4E70000001401404B
:104A3000C80100203C000020BEAFB8E6A3BA554133
:104A4000525436B5A5D6A1BDD3CAD5C1BFA3ACD2E9
:104A5000D1B3ACB3F6BDD3CAD5BBBAB4E6B4F3D0C8
:104A6000A10D2100D80B0020FEE703B401984100FE
:104A7000009850EAC12018BF04204A0D18BF40F02A
:104A8000010040F2FF72B2EB515F08BF40F002003C
:104A9000012808BF052002B070470907090E002849
:104AA00004DB00F1E02080F80014704700F00F00F4
:104AB00000F1E02080F8141D704730380A2801D238
:104AC0000120704700207047704703B501216846F8
:104AD000FFF706FD00980CBD08B5FDF79FFCFFF73A
:104AE0001DFAFEF79FFCFEF705FDFEF739FDFEF708
:104AF0003FFDFEF745FDDFF83C81012220214046C5
:104B0000FDF779FC4FF4E130FFF712FC4A48FEF75D
:104B100043F8FDF7BDFAFEF74DFEFDF7CBF908B1FE
:104B200072B6FEE7FDF7C2F9444C2062FEF772FD53
:104B300008B172B6FEE741481C30FEF7FFFB3F4864
:104B40002430FDF7F5FA0020FFF7CAF94FF416708C
:104B500041100090062304223948FFF7E3FCDFF8F8
:104B6000E49000275FF00106FDF74AFC0546206946
:104B7000281A0A2818D3314825612430FDF7D8FABD
:104B80002078012810D12D480A30831E021F00F121
:104B90001A0100901230FEF7D5FBE8B3B4F9081003
:104BA000B4F90600FEF77AFD01214846FDF716FC30
:104BB000012800D000206178884201D06070E56053
:104BC000A17888421BD0E268A91A142917D3A070D3
:104BD000A8B12078012827D018481C30FEF7AEFB7A
:104BE0001648E7802781243067818079F0B1FDF78E
:104BF00083F92670002220214046FDF7FCFB606906
:104C0000281A642802D36561FDF792F9A069281A71
:104C10006428A9D3A56100E002E0FFF793F8A3E7B9
:104C20000220FFF75DF9BFE7002000E00220FFF758
:104C300057F9E4E700080240580000200000002077
:104C4000104F00080000024010B500290AD0087873
:104C5000002807D005487844FCF71AFD002801D049
:104C6000002010BD0248784410BD000092030000EF
:104C70008A03000010B500290AD00878002807D060
:104C800005487844FCF704FD002801D0002010BD41
:104C90000248784410BD0000820300007A0300003F
:104CA0004FF04070E1EE100A7047FCF711B9FCF7C5
:104CB00045BA0000000000000000010203040607DE
:104CC0000809F9FBFDFF0103050700003E514945B6
:104CD0003E00427F400042615149462141454B31EF
:104CE0001814127F1027454545393C4A494930017F
:104CF000710905033649494936064949291E7E117D
:104D000011117E7F494949363E414141227F41414F
:104D1000221C7F494949417F090909013E4149490E
:104D20007A7F0808087F00417F41002040413F0111
:104D30007F081422417F404040407F020C027F7F69
:104D40000408107F3E4141413E7F090909063E416A
:104D500051215E7F09192946464949493101017FA0
:104D600001013F4040403F1F2040201F3F4038404E
:104D70003F631408146307087008076151494543ED
:104D8000453A4E4F4C494E450000303132333435B0
:104D90003637383941424344454640305800303177
:104DA0003233343536373839616263646566403092
:104DB000780004000008000000000000000200016C
:104DC000000010000000000000000000303132330D
:104DD000343536373839616263646566787000301F
:104DE00031323334353637383941424344454658F9
:104DF0005000000002400000000000A00000000081
:104E000005400000000000C8000000000C40000049
:104E10000000409C00000000194000000020BCBEC3
:104E20000000000034400000BFC91B8E00000004D9
:104E3000B5400000504BCFD06607E2CF0100000024
:104E40006C4100003E8251AADFEEA7340100000051
:104E5000D9420000DCB5A0E23A301F97FFFFFFFF08
:104E6000B4450000FD25A0C8E9A3C14FFFFFFFFF27
:104E7000FF3F00000000008000000000FF3F000036
:104E8000000000800000000048332C25732C473DB3
:104E90002575257525752575257525752575257542
:104EA0002C553D2575257525752575257525752583
:104EB0007525752C453D25732C4C3D25642C523DA4
:104EC00025642C433D25642C413D257525752575AC
:104ED000257525752C4544543D25752C454C543D70
:104EE000256C642C4552543D256C642C454C443D46
:104EF00025642C4552443D25642C454C4350533D7C
:104F0000256C642C45524350533D256C640D0A00BA
:104F1000483320656E636F646572206163717569E3
:104F2000736974696F6E2072656164793B205041CA
:104F30003020746F67676C65732072756E2F7374A1
:104F40006F703B20423D25642C503D25642C443D30
:104F500025642C4D41583D25643B204C3D50413546
:104F60002F5042332C523D5043362F5043373B2075
:104F700072617720636F756E7473206F6E6C790D3C
:104F80000A000000554152543120B3F5CABCBBAFF2
:104F9000C5E4D6C320202020202020202025642DF9
:104FA0004E6F6E652D382D313B20D2D1CDEAB3C97D
:104FB000B3F5CABCBBAFC5E4D6C3A1A2CAD5B7A2DC
:104FC000C5E4D6C30D000000145100080000002005
:104FD00058000000C40100086C510008580000206F
:104FE000F83D0000E00100081C0000004300000044
:104FF000F8FFFFFF0C0000000E0000000F00000093
:105000002E0000001001000043000000F8FFFFFF29
:1050100000404040404040404040414141414140CB
:105020004040404040404040404040404040404080
:10503000400502020202020202020202020202020F
:105040000220202020202020202020020202020214
:10505000020290909090909010101010101010106C
:105060001010101010101010101010100202020278
:1050700002028888888888880808080808080808BC
:1050800008080808080808080808080802020202B8
:1050900040000000000000000000000000000000D0
:1050A0000000000000000000000000000000000000
:1050B00000000000000000000000000000000000F0
:1050C00000000000000000000000000000000000E0
:1050D00000000000000000000000000000000000D0
:1050E00000000000000000000000000000000000C0
:1050F00000000000000000000000000000000000B0
:10510000000000000000000000000000000000009F
:10511000000000000000000000000000000000008F
:10512000000000000000000000000000000000007F
:10513000000000000000000000000000000000006F
:105140000100000010000000000000000024F40036
:10515000000000000000000000000000000000004F
:0C51600000000000000000000000000043
:040000050800018965
:00000001FF
