:020000040800F2
:10000000F03E00203102000839230008731D00086B
:100010008921000879080008693A000800000000FA
:100020000000000000000000000000006D2D00082E
:100030007B0800080000000081290008512F0008FB
:100040004B0200084B0200084B0200084B0200085C
:100050004B0200084B0200087D0800084B02000814
:100060004B0200084B0200084B0200084B0200083C
:100070004B0200084B0200084B0200084B0200082C
:100080004B0200084B0200084B0200084B0200081C
:100090004B0200084B0200084B0200084B0200080C
:1000A0004B020008793000084B0200084B020008A0
:1000B0004B0200084B0200084B0200084B020008EC
:1000C0004B0200084B0200084B0200084B020008DC
:1000D0004B02000805370008D5370008B138000882
:1000E0004B0200084B0200084B0200084B020008BC
:1000F0004B0200084B0200084B0200084B020008AC
:100100004B0200084B0200084B0200084B0200089B
:100110005D350008393600084B0200084B02000824
:100120004B0200084B0200084B0200084B0200087B
:100130004B0200084B0200084B0200084B0200086B
:100140004B0200084B0200084B0200084B0200085B
:100150004B0200084B0200084B0200088D390008D2
:100160004B0200084B0200084B0200084B0200083B
:100170004B0200084B0200084B0200080000000080
:100180004B0200084B02000800F002F800F041F8B2
:100190000AA090E8000C82448344AAF10107DA45E2
:1001A00001D100F036F8AFF2090EBAE80F0013F0F3
:1001B000010F18BFFB1A43F001031847703B000002
:1001C000903B0000103A24BF78C878C1FAD8520793
:1001D00024BF30C830C144BF04680C6070470000C1
:1001E0000023002400250026103A28BF78C1FBD840
:1001F000520728BF30C148BF0B607047642900F028
:10020000DF80002070471FB503F0F4FC1FBD10B560
:1002100010BD00F0FFFA1146FFF7F5FF03F044FCB4
:1002200000F01DFB03B4FFF7F2FF03BC03F034FC46
:100230000948804709480047FEE7FEE7FEE7FEE77A
:10024000FEE7FEE7FEE7FEE7FEE7FEE704480549B6
:10025000054A064B70470000693000088901000814
:10026000F02C0020F03E0020F02E0020F02E002088
:10027000704753EA020C00F069802DE9F04B4FF013
:100280000006002B1FBFB3FA83F503FA05F424FA26
:1002900005F65E4012BF1643B2FA82F502FA05F483
:1002A000C5F120051EBF22FA05FC44EA0C042035E6
:1002B00056EA044C4FEA144418BF641C4FF000087F
:1002C0004FF00009904271EB030C39D3002919BF9C
:1002D000B1FA81F701FA07F6B0FA80F700FA07F6EB
:1002E000C7F120071EBF20FA07FC46EA0C0620379C
:1002F000B6FBF4FCA7EB0507103F07F01F0BCBF193
:1003000020060CFA0BFB2CFA06F644BFB346002677
:10031000202FA4BF5E464FF0000B5BEA060C08BF1F
:100320004FF0010B19EB0B09ABFB027C48EB060805
:10033000C01B06FB02CC0BFB03CC71EB0C01C1E72D
:100340000B46024641464846BDE8F08B13B54FF0D8
:1003500000004FF00001AFF30080BDE81C40704783
:1003600010B54C1084EA530404D54042C1F1000199
:1003700038BF491E1B4204D55242C3F1000338BFA7
:100380005B1EFFF776FF14F0804F04D04042C1F1AE
:10039000000138BF491E14F0004F04D05242C3F18F
:1003A000000338BF5B1E10BD0FB4044910B503AA8B
:1003B000029800F0E7F910BC5DF814FB6000002023
:1003C0002DE9F0410646002410687529314616A52E
:1003D00010D0AFF30080002802DA404213A507E0F6
:1003E00031688A0701D512A502E0490704D511A595
:1003F000012401E0AFF3008000210A2206F1240766
:1004000009E0B0FBF2FCB0FBF2F302FB1C00303061
:1004100078541846491C0028F3D123462A46304612
:10042000BDE8F04100F03CB9000000002D000000E4
:100430002B000000200000002DE9F05F89460446F3
:100440004FF0000ADFF874B1FB44C0F820A020464A
:10045000E1688847002874D0252806D0D4E9012116
:100460009047206A401C2062F1E700265F46204644
:10047000E16888472028054607DB312D05D2781929
:1004800010F8200C08B10643F1E7B00701D526F0BB
:100490000406C4F81CA00027C4F818A02A2D09D00F
:1004A000284603F0F2FA38B304EB8708303DC8F869
:1004B000185019E059F8041B204604EB870291619B
:1004C000E1688847012F054618D1E069002820DA45
:1004D00026F020061DE0D8F8180000EB800005EBA0
:1004E00040003038C8F818002046E16888470546C3
:1004F00003F0CBFA0028EED1012F0AD02E2D08D11F
:100500002046E16888477F1C0546022F46F02006FA
:10051000C4DBA069002803DA404246F00106A0616E
:10052000F00701D026F010066C2D0BD0682D09D0F5
:100530004C2D39D06A2D35D0742D35D07A2D33D04D
:1005400016E038E0E1682F4620468847B842054665
:1005500009D16C2F26D04FF48060E1680643204615
:100560008847054604E06C2F1AD04FF4807006438C
:100570000DB3A5F14100192802D8203546F40066D4
:100580004A462946204626604E46FFF737FE80B190
:1005900001280BD0F61D26F0070000F1080956E7E8
:1005A0004020E4E78020D8E70020D6E706F10409E0
:1005B0004DE7284652E7206ABDE8F09F8A380000E0
:1005C000032A40F2308010F0030C00F0158011F87F
:1005D000013BBCF1020F624498BF11F801CB00F857
:1005E000013B38BF11F8013BA2F1040298BF00F8AB
:1005F00001CB38BF00F8013B11F0030300F0D480B9
:10060000083AC0F0088051F8043B083A51F804CB8E
:10061000A0E80810F5E7121D5CBF51F8043B40F854
:10062000043BAFF30080D20724BF11F8013B11F85F
:1006300001CB48BF11F8012B24BF00F8013B00F8A3
:1006400001CB48BF00F8012B70474FF0000200B506
:10065000134694469646203922BFA0E80C50A0E8E5
:100660000C50B1F12001BFF4F7AF090728BFA0E893
:100670000C5048BF0CC05DF804EB890028BF40F85F
:10068000042B08BF704748BF20F8022B11F0804FA1
:1006900018BF00F8012B70477047704770477047CC
:1006A0002DE9F0470D4699469246044600F124088C
:1006B0000168880604D5E06921F01001216000E09E
:1006C0000120A84201DD471B00E00027A1697A193B
:1006D00002EB0900081AA0612078C00602D4204667
:1006E000AFF30080002608E0D4E901211AF80600E3
:1006F0009047206A401C761C20624E45F4DB20782F
:10070000C0060AD52046AFF3008006E0D4E90121F7
:1007100030209047206A401C2062381EA7F1010754
:10072000F4DC07E0D4E9012118F805009047206ABD
:10073000401C2062281EA5F10105F3DC2046AFF322
:1007400000802078000602D50220BDE8F087012055
:10075000FBE7000001694A1C02610878704700B598
:100760008FB0CDE901310021059105497944CDE9EA
:10077000031011466846FFF75FFE0FB000BD000092
:10078000E5FFFFFF074B70B50D467B44FFF7E7FF22
:100790000446284600F03AF810B14FF0FF3070BD23
:1007A000204670BD0D33000010B5203AC0F00B801C
:1007B000B1E81850203AA0E81850B1E81850A0E865
:1007C0001850BFF4F5AF5FEA027C24BFB1E81850BF
:1007D000A0E8185044BF18C918C0BDE810405FEA2F
:1007E000827C24BF51F8043B40F8043B08BF7047AB
:1007F000D20728BF31F8023B48BF11F8012B28BFB0
:1008000020F8023B48BF00F8012B7047007B00F046
:1008100080007047754600F02BF8AE46050069462B
:10082000534620F00700854618B020B5FFF70EFDAF
:10083000BDE820404FF000064FF000074FF00008E1
:100840004FF0000B21F00701AC46ACE8C009ACE862
:10085000C009ACE8C009ACE8C0098D46704710B5C6
:100860000446AFF300802046BDE81040FFF7DABC35
:10087000004870478C2C0020FEE77047012000F0F4
:10088000AFB9401A80B200B270470000004870470C
:10089000742C00200E4910B50968002048620D49EB
:1008A000096848623C210A4800F0DAFF08B10120DB
:1008B00010BD3C21074800F0D3FF20B13C21044883
:1008C00001F015F8F3E700F007F8002010BD000074
:1008D000F40000203C01002009480068416A0948F2
:1008E000018009490968496A418008490020086077
:1008F000486008814881C8600861888270470000AC
:10090000F4000020680000203C010020742C00202E
:100910002DE9F047054620480068406A1FFA80F933
:100920001E480068406A1E4C1FFA80F8484621881D
:10093000FFF7A7FF074661884046FFF7A2FFA4F82C
:100940000090A4F80280174C064627816081206839
:10095000384420606168881960600020ADB14FF4B0
:100960007A7887FB08012A460023FFF7F9FCE0604C
:1009700086FB08012A460023FFF7F2FC2061B5F54B
:10098000803F05D34FF6FF7003E0E060206100E098
:10099000A8B2A082BDE8F087F40000203C0100204E
:1009A00068000020742C002072B6FEE72DE9F05F8D
:1009B0004FF00008234F814680F8008044464FF4F2
:1009C000807A4FF0010B0020E10701D04FF4007056
:1009D000A10701D540F48060610701D540F40060B3
:1009E00040F06060B861142000F02EF80026354613
:1009F0005146384600F0F8F9012801D1761CF6B2CC
:100A00006D1C072D02D2032000F01EF8EDB2072D59
:100A1000EED3042E04D30BFA04F0C0B240EA080867
:100A200046B1072E06D099F800100BFA04F00143E6
:100A300089F80010641CE4B2082CC4D34046BDE819
:100A4000F09F000000100240064A10B553680649A6
:100A5000064C0968B1FBF4F141435068C01A884262
:100A6000FBD310BD001000E04C00002040420F00FE
:100A700070B586B014216846FFF7E7FD1F480024D3
:100A8000016841F010010160016801F01001059159
:100A9000016841F008010160006800F0080005905D
:100AA0001748016841F08071016016484460016890
:100AB00041F001010160050D134E00222946304628
:100AC00000F09FF901200095CDE901046946304608
:100AD000039400F091F8B015CDE900046946304662
:100AE000029400F089F84FF4F850CDE9000469460B
:100AF0000648029400F080F806B070BD303802401D
:100B0000FCED00E0001000E000100240000C02408C
:100B1000F8B504466846FFF749FF204A0125917859
:100B200011B9107050709570117892F801C00B4691
:100B300041EA0C01014003EA0C06314321700E46E4
:100B40009DF8001080EA03070F4380EA0C010F4371
:100B5000677053701070124800680022C0F30420C0
:100B6000A070104B1146104605FA00F7374204D02A
:100B70001F56491C3A4412B2C9B2401CC0B20828E0
:100B8000F2D341B102EB8200400090FBF1F0A5717D
:100B900000B2A080F8BD0020A071FAE76400002038
:100BA000100C02400E3C000870B5044600F02EF90F
:100BB0000546601C02D004480078044400F026F981
:100BC000401BA042FAD370BD40000020012803D191
:100BD0000248C16A491CC162704700000000002041
:100BE000044910B50A68024202D00860FFF7EEFF20
:100BF00010BD0000143C01402DE9F84FDFF8BCA106
:100C00000022012503264FF00F090AF1040BAAF177
:100C1000040E00BF0B6805FA02F42340A34270D112
:100C20000F7907F00307012F01D0022F16D1876833
:100C30004FEA420806FA08FC27EA0C07D1F80CC074
:100C40000CFA08FC4CEA070CC0F808C04768A74338
:100C50000C79C4F3001494403C4344600C79E443A1
:100C6000A4070AD0C4684FEA420C06FA0CF7BC434A
:100C70008F6807FA0CF72743C7600C7904F0030468
:100C8000022C12D1D40800EB840CDCF8204057076A
:100C9000FF0E09FA07F824EA0804D1F8108008FAD0
:100CA00007F848EA0408CCF8208004684FEA420CB0
:100CB00006FA0CF7BC430F7907F0030707FA0CF7A5
:100CC000274307604C6814F4403F70D03C4C2768C1
:100CD00047F480472760246822F0030704F4804427
:100CE0000094384C07EB040CDCF8084897074FEAEF
:100CF000177809FA08F7BC43334FB84202D10027EE
:100D000024E054E0314FB84201D101271EE0304FBA
:100D1000B84201D1022719E02E4FB84201D1032772
:100D200014E02D4FB84201D104270FE02B4FB842F9
:100D300001D105270AE02A4FB84201D1062705E074
:100D4000284FB84201D1072700E0082707FA08F723
:100D50002743CCF80878DAF800405746D1F804C0A9
:100D60009C435FEACC2C00D51C433C60DBF8004080
:100D70005F46D1F804C09C435FEA8C2C00D51C432D
:100D80003C60DEF800407746D1F804C09C435FEA3F
:100D90008C3C00D51C433C60084F083F3C68D1F8B0
:100DA00004C09C435FEACC3C00D51C433C60521C11
:100DB000102AFFF42FAFBDE8F88F0000083C014077
:100DC000443802400030014000000240000402406C
:100DD00000080240000C02400010024000140240D3
:100DE00000180240001C02400069084000D00120A9
:100DF0007047426921EA02030A4043EA02418161E5
:100E000070470AB1816170470904FBE701488068B7
:100E100070470000400000200248816802781144B9
:100E200081607047400000200B4810B5016841F414
:100E300000710160016841F480610160016841F462
:100E400080710160032000F06FF80F2000F006F8B9
:100E500000F024F8002010BD003C024070B50D4D9C
:100E600004464FF47A712878B1FBF0F00A4909681A
:100E7000B1FBF0F000F0ECFA48B9102C07D20022D8
:100E80002146501E00F030F800206C6070BD01203B
:100E900070BD0000400000204C0000200A4808B54A
:100EA000016841F480410160006800F480400090D6
:100EB0000548001F016841F080510160006800F0A2
:100EC0008050009008BD000044380240002809DB33
:100ED00000F01F02012191404009800000F1E02054
:100EE000C0F8001170470000F0B40E4B1B680C46B0
:100EF000C3F30223C3F10705042D00D90425191DEE
:100F0000072901D2002300E0DB1E012606FA05F1C5
:100F1000491E214099409E40761E16403143F0BC48
:100F200002F0A3BD0CED00E0064900F007020868DE
:100F30004FF6FF03184040EA0220034A10430860BE
:100F4000704700000CED00E00000FA052DE9F047C5
:100F50000E46050065D0DFF81481D8F80000F7B21E
:100F600000F00700B04207D288F80070D8F80000FF
:100F700000F00700B04254D128683D4C810712D5DB
:100F8000400703D5206840F4E0502060287800072F
:100F900003D5206840F4604020602068A96820F0F4
:100FA000F000084320602878C0072DD030496868D9
:100FB0000839012812D0022813D0032811D009685B
:100FC000890700292DDA216821F0030101432160FE
:100FD000FFF71CFF814641F2883A0EE00968890359
:100FE000EFE709688901ECE7FFF710FFA0EB0901C3
:100FF000514502D90320BDE8F0872068696800F0F8
:101000000C00B0EB810FEFD1D8F80010404601F092
:101010000701B14207D90770006800F00700B0422D
:1010200001D00120E7E72878400705D52068E96866
:1010300020F4E050084320602878000706D5206897
:10104000296920F4604040EAC100206000F018F8EF
:101050002168084AC1F30311515CC8400649086081
:1010600006480068FFF7FAFE0020C4E7003C024093
:1010700008380240FE3B00084C00002044000020DD
:10108000154810B5006810F00C02144813D014492C
:10109000042A0FD0082A0ED10F4C241F226823687F
:1010A00002F03F025B0207D52068C0F38810A0FB66
:1010B000010106E0084610BD2168C1F38811A1FBBB
:1010C00000010023FFF7D5F82168C1F30141491C55
:1010D0004900B0FBF1F010BD083802400024F400D4
:1010E00040787D012DE9F84F04006ED02078DFF8BC
:1010F0004C93C007A9F104054AD009F10400016826
:10110000C1F38101012908D00068C0F381000228E1
:101110000AD1D9F80000400206D52868800337D5E7
:1011200060680028E1D033E06068B0F5803F10D0FF
:10113000B0F5A02F286810D020F4803028602868EF
:1011400020F4802028606068A8B1FFF75FFE0646A3
:101150000DE0286840F48030F4E740F480202860F7
:10116000F7E700BFFFF752FE801B642873D828689A
:101170008003F7D50CE0FFF749FE064605E000BF07
:10118000FFF744FE801B6428F0D828688003F7D45A
:101190002078DFF8AC8280074FF0000A3ED5A748E0
:1011A000001D016811F00C0F08D00068C0F3810029
:1011B00002280BD1D9F80000400207D42868800724
:1011C00016D5E068012800D112E033E1E068B8B13B
:1011D0000120C8F80000FFF719FE064605E000BF31
:1011E000FFF714FE801B0228C0D828688007F7D5B7
:1011F0002868216920F0F80040EAC10028600DE06D
:10120000C8F800A0FFF702FE064604E0FFF7FEFD67
:10121000801B02281FD828688007F7D42078000791
:1012200022D5864F87486169703771B1012101600D
:10123000FFF7ECFD064604E0FFF7E8FD801B0228FF
:1012400009D838688007F7D50EE0C0F800A0FFF78E
:10125000DDFD064605E082E0FFF7D8FD801B022891
:101260007DD838688007F7D42078400768D5DFF844
:10127000CCB100270BF13C0BDBF80000C0000BD415
:10128000DBF8001041F08051CBF80010DBF80000D3
:10129000012700F0805000906B4E3068C00510D4DC
:1012A000306840F480703060FFF7B0FD009005E0DA
:1012B000FFF7ACFD0099401A022850D83068C005ED
:1012C000F6D55E4EA0686C3601280FD00528306830
:1012D00010D020F001003060306820F00400306051
:1012E000A068B8B1FFF792FD00900FE0306840F0C1
:1012F0000100F4E740F004003060F7E7FFF786FDF7
:101300000099411A41F28830814266D830688007DE
:10131000F4D50EE0FFF77AFD009007E0FFF776FDC9
:101320000099411A41F28830814256D830688007CE
:10133000F4D42FB1DBF8001021F08051CBF800106D
:10134000A069C8B33D49091D0968C1F3810102299B
:101350004AD00228504607D0C8F8600000E03CE0C0
:10136000FFF754FD04463BE04746C8F86000FFF72E
:101370004DFD064605E000BFFFF748FD801B022833
:101380002BD828688001F7D4D4E907010843A16A63
:101390002E4A490802EB0141626A41EA8211084380
:1013A00094F82C1040EA0161C9F800100120386659
:1013B000FFF72CFD044606E03EE000BFFFF726FDE8
:1013C000001B022809D828688001F7D534E000BF47
:1013D000FFF71CFD001B022802D90320BDE8F88F8F
:1013E00028688001F4D427E00128F7D0D9F800005C
:1013F000E26900F4800191421CD1226A00F03F01B1
:10140000914217D147F6C071626A0140B1EB821F69
:1014100010D1A26A4FF0FF3300F4403103EB5202C7
:10142000B1EB024F06D194F82C1000F07060B0EBD5
:10143000016F01D00120D1E70020CFE7043802403E
:1014400000004742800E4742007000400000FFFF4E
:1014500010B5401EB0F1807F01D3012010BD4FF0C8
:10146000E02460610F21601702F0FFFA0020A06104
:1014700007202061002010BD7047704770B590F8BC
:101480003C20012A32D0012480F83C40022280F81E
:101490003D2003685A689D6822F070060A6832434E
:1014A0005A60134B02689A4214D0B2F1804F11D0A7
:1014B000104B9A420ED0104B9A420BD00F4B9A42CF
:1014C00008D00F4B9A4205D00E4B9A4202D00E4BD9
:1014D0009A4204D1496825F080031943916080F84D
:1014E0003D40002180F83C10084670BD022070BDD0
:1014F000000001400004004000080040000C0040D3
:1015000000040140004001400018004010B50400F4
:1015100003D094F83D0010B107E0012010BD002079
:1015200084F83C00204600F01FF8022084F83D00BB
:10153000211D206801F0A6FD012084F8460084F8F2
:101540003E0084F83F0084F8400084F8410084F8AD
:10155000420084F8430084F8440084F8450084F88D
:101560003D00002010BD000008B500680B4988420E
:1015700012D10B48016841F00101016000680022AE
:1015800000F00100009011461920FFF7ADFCBDE806
:1015900008401920FFF79ABC08BD00000000014078
:1015A0004438024090F83D10012901D001207047D5
:1015B000022180F83D100168CA6842F00102CA6049
:1015C00000681149884214D0B0F1804F11D00F4902
:1015D00088420ED00E4988420BD00E49884208D06E
:1015E0000D49884205D00D49884202D00C498842F5
:1015F00004D1816801F00701062903D0016841F098
:10160000010101600020704700000140000400401B
:1016100000080040000C0040000401400040014070
:101620000018004070B5044690F83C0000250128E1
:1016300017D0012684F83C60022084F83D00206821
:10164000826822F0770222F47F4282600868502884
:1016500038D00DDC20284FD005DC90B3102811D1F4
:101660004AE0022070BD302846D040280AD13BE035
:1016700060282FD070280DD0B0F5805F03D0B0F572
:10168000005F12D0012584F83D60002084F83C0002
:10169000284670BDCB68D1E90121206801F06BFDBF
:1016A0002068816841F0770109E0CB68D1E9012128
:1016B000206801F060FD2068816841F4804181600C
:1016C000E1E719E0CA684968206801F029FE502165
:1016D000206806E0CA684968206801F032FE60218F
:1016E000206801F052FDCEE7CA684968206801F021
:1016F00017FE40212068F4E7226801461046F0E713
:101700002DE9F0410D46040003D094F83D0018B1D6
:1017100008E00120BDE8F081002084F83C0020466C
:1017200000F040F8022084F83D002068816844F20F
:10173000070291438160211D206801F0A3FC22680B
:1017400090689169166A2B68AF69034340F20330D1
:10175000814341EA0721A868EF6908434FF6FC413D
:101760008843E96840EA0720014328692F6A00019D
:1017700040EA0730084369686D6926F0AA0646EA20
:101780000515294393602268906154F8460B016265
:10179000012004F81F09E0752076E0762077A07517
:1017A0000020B7E730B587B0044614216846FEF73D
:1017B0004CFF264824682549103802220123B4F141
:1017C000804F1DD0224DAC4218D10C6844F0020469
:1017D0000C60096801F002010591016841F0040103
:1017E00001600068694600F004000590C0208DE8A3
:1017F0000D00039217480492FFF7FEF907B030BDC1
:101800000C6844F001040C60096801F001010591C5
:10181000016841F001010160016801F001010591D9
:10182000016841F0020101600068694600F00200B1
:10183000059020208DE80D000748CDE90323FFF730
:10184000DBF90820009069460448D5E7403802409B
:101850000004004000080240000002400004024072
:1018600070B590F83E60044690F83F5090F84230D2
:1018700090F84320022021B104290ED0012E1BD163
:1018800014E0012E18D1012B16D184F83E0084F803
:10189000420001220021206820E0012D0CD1012A04
:1018A0000AD184F83F0084F8430014E0012D03D1ED
:1018B000012B01D1012A01D0012070BD84F83E0026
:1018C00084F83F0084F8420084F84300012200219C
:1018D000206801F043FC01220421206801F03EFC55
:1018E0002068016841F001010160002070BD30B541
:1018F000044600680D0023D0042D04D000221146B8
:1019000001F02CFC20680022042101F027FC206853
:10191000016A41F21112114207D1016A921011427B
:1019200003D1016821F00101016001205DB1042DA6
:101930000DD004F83E0F607020716071002030BD42
:1019400000221146E1E704F83E0F2071F6E704F8A3
:101950003F0FFAE770472DE9F04104460068C6687A
:1019600005694FF00007A90713D5B10711D5F91E76
:10197000016101202077206880698007204602D01D
:10198000FFF7E8FF04E000F0BFF8204600F070F930
:101990002777680716D5700714D521686FF0040003
:1019A0000861022020772068806910F4407F20467B
:1019B00002D0FFF7CFFF04E000F0A6F8204600F0C9
:1019C00057F92777280715D5300713D521686FF009
:1019D00008000861042020772068C069800720463D
:1019E00002D0FFF7B7FF04E000F08EF8204600F0C9
:1019F0003FF92777E80616D5F00614D521686FF071
:101A000010000861082020772068C06910F4407F2A
:101A1000204602D0FFF79EFF04E000F075F8204654
:101A200000F026F92777E80708D0F00706D02168EC
:101A30006FF001000861204600F080F9280608D503
:101A4000300606D521686FF0800008612046FFF758
:101A500013FD680608D5700606D521686FF04000B2
:101A60000861204600F084F9A8060AD5B00608D51A
:101A700021686FF0200008612046BDE8F041FFF7C3
:101A8000FCBCBDE8F081000010B586B0044614210E
:101A90006846FEF7DAFD2368164C0022164802213C
:101AA000A34210D1036843F008030360006800F00C
:101AB000080005904FF4C0408DE8070003910491A1
:101AC00069460E4811E00E4CA34210D1036843F062
:101AD0000103036000680091CDE9011200F00100EC
:101AE000CDE90410039169460648FFF785F806B072
:101AF00010BD00000008004030380240000C0240D9
:101B0000000C004000000240704770B5044690F899
:101B10003C0000260D4601280FD0012084F83C002F
:101B20006AB1042A1DD0082A2FD00C2A3FD00126E2
:101B3000002084F83C00304670BD022070BD206853
:101B400001F02CFB2068816941F008018161206867
:101B5000816921F004018161206881692A6911434A
:101B600011E0206801F04AFB2068816941F40061BE
:101B700081612068816921F48061816120688169C7
:101B80002A6941EA02218161D2E7206801F06CFBF9
:101B90002068C16941F00801C1612068C16921F074
:101BA0000401C1612068C1692A69114311E02068FC
:101BB00001F08EFB2068C16941F40061C1612068B9
:101BC000C16921F48061C1612068C1692A6941EA63
:101BD0000221C161ACE710B5040003D094F83D00C8
:101BE00010B107E0012010BD002084F83C00204621
:101BF00000F01EF8022084F83D00211D206801F04D
:101C000041FA012084F8460084F83E0084F83F0041
:101C100084F8400084F8410084F8420084F84300CE
:101C200084F8440084F8450084F83D00002010BD8D
:101C300008B50C4A01680C48914207D1016841F08F
:101C400004010160006800F0040009E0074A9142C5
:101C500007D1016841F008010160006800F0080048
:101C6000009008BD0008004040380240000C0040D1
:101C70007047000010B50446022249B104290ED075
:101C8000082913D094F84100012816D0012010BD76
:101C900094F83E000128F9D184F83E200FE094F832
:101CA0003F000128F2D184F83F2008E094F840007A
:101CB0000128EBD184F8402001E084F84120012282
:101CC000206801F04BFA16492068164A884201D074
:101CD000904203D1436C43F400434364206888423C
:101CE00013D0B0F1804F10D00F4988420DD00F496A
:101CF00088420AD00E49884207D0904205D00D494B
:101D0000884202D00C49884204D1816801F0070161
:101D1000062903D0016841F001010160002010BDD7
:101D200000000140000401400004004000080040A1
:101D3000000C0040004001400018004010B5006851
:101D4000084988420CD1084CA088411CA180B0F5FC
:101D50007A7F05D304210548FFF74BF80020A080C7
:101D600010BD0000000001400000002000040240FF
:101D70007047FEE74FF41671884201DD0846704750
:101D8000002801DA0020704700B27047002101806E
:101D900041808180C1800172417270472DE9F05FFE
:101DA000054698469146002388792A7ADDF828A0CE
:101DB0009B4650B1B1F9046006F10A00142825D8F9
:101DC000002E1EDA6FF0130431E072B1687A1E281B
:101DD0000BD2401C68726988A9F80010A988A8F87D
:101DE0000010E988AAF8001066E02846FFF7CEFF49
:101DF000A9F800B0A8F800B0AAF800B00020BDE82B
:101E0000F09F01DD142412E0002410E012B12988B3
:101E1000711A0BB206EB460101EBC3048C2C01DDF9
:101E20008C2404E06FF08B018C4200DA0C4692B1F6
:101E3000152806D2B5F9000010F10A0F01DB0A28B7
:101E400009DDB5F9061001F11E00A04202DB3C38A5
:101E5000A04200DD0446002C01DA604200E020468A
:101E60004FF4A57714280DDD1438C0EB0010800066
:101E7000782190FBF1F0C0F5A5774FF48770874289
:101E800000DA0746AAF800403819FFF773FFA9F8EF
:101E90000000381BFFF76EFFA8F800002E80B9F88D
:101EA00000006880B8F80000A880BAF80000E88058
:101EB0000120287285F809B00120A0E770B58CB028
:101EC0000E46054624216846FEF7BFFB0024099410
:101ED0000A94C5E900644FF6FF70C5E902402C6121
:101EE000AC610320CDE900040120CDE90204082102
:101EF0000491CDE90540CDE9074169462846FFF741
:101F0000FFFB08B1FEF750FD099409A928460A9481
:101F1000FFF7B4FA002801D0FEF746FD0CB070BD03
:101F2000F0B587B014216846FEF78FFB31480024D6
:101F3000016841F080010160016801F080010591B4
:101F4000016841F004010160016801F0040105919C
:101F5000016841F002010160016801F00201059190
:101F6000016841F0010101600068234E00F00100AA
:101F70000590002220213046FEF743FF1F4F00222C
:101F800004213846FEF73DFF202000900125CDE9D1
:101F90000154694630460394FEF72EFE042000905B
:101FA000CDE90154694638460394FEF725FE4FF407
:101FB0008810CDE900500220029069461048FEF7D3
:101FC0001BFE002203210620FEF78EFF0620FEF7EF
:101FD0007DFF00221F213046FEF713FF1F200090D7
:101FE000CDE90154694630460394FEF705FE07B07B
:101FF000F0BD0000303802400008024000040240FA
:102000000000024010B586B00024184800940194E6
:10201000029403940494144905940160A721C0E933
:10202000011440F2E731C0E903148021C0E9054101
:10203000FFF76CFA08B1FEF7B7FC4FF48050009040
:1020400069460A48FFF7EEFA08B1FEF7ADFC0494C2
:1020500004A906480594FFF711FA002801D0FEF7FD
:10206000A3FC06B010BD000000000140AC00002041
:102070004FF080410148FFF721BF0000F40000202D
:1020800001490248FFF71ABF000400403C0100204C
:1020900010B58AB0002407941C2168460894FEF706
:1020A000D4FA1A481849C0E9001442F2CF01C0E935
:1020B0000241802104618161FFF78DFD08B1FEF7C7
:1020C00073FC079407A911480894FFF7D7F908B1E2
:1020D000FEF76AFC6020CDE9000402940422694600
:1020E0000A480494FFF711FD08B1FEF75DFC0822D1
:1020F00069460648FFF709FD08B1FEF755FC03489D
:10210000FFF7C2FC0AB010BD0008004084010020A7
:1021100010B58AB0002407941C2168460894FEF785
:1021200094FA1848164901605321C0E9011444F695
:102130001F61C0E9031480218161FFF74CFD08B1E4
:10214000FEF732FC079407A90E480894FFF796F9AA
:1021500008B1FEF729FC602000904FF47A70CDE9B9
:1021600001040422694607480494FFF7CEFC08B135
:10217000FEF71AFC0348FFF787FC0AB010BD000009
:10218000000C0040CC010020FEE70000114910B512
:102190000A68002090630968C8630F4C0122114649
:1021A0002046FEF72EFE012202212046FEF729FEE0
:1021B000012204212046FEF724FE012208212046A8
:1021C000FEF71FFE20460122BDE810401021FEF759
:1021D00018BE000084010020000802404FF47A710C
:1021E000884202DC4942884200DA08467047000013
:1021F00010B500F079F804210748FFF73BFD08B15E
:10220000012010BD08210448FFF734FD0028F8D054
:1022100000F06AF8F4E7000084010020002800DAEA
:10222000404205490968C96A491C48434FF47A711C
:10223000B0FBF1F0704700008401002070B51D462E
:102240001646DDE90432012A01D0012400E0002411
:10225000002B03DA134622461C4603E002D14FF05E
:1022600000021446FEF7CDFD224629463046BDE861
:102270007040FEF7C6BD00002DE9FC410D46FFF79A
:10228000ADFF04462846FFF7A9FF0127144ECDE90C
:10229000004705463246022339461046FFF7CEFF77
:1022A000CDE900573246082304211046FFF7C6FF48
:1022B0002046FFF7B3FF0B4F396888632846FFF7C6
:1022C000ADFF3968C8632C4307D0012202B0304605
:1022D000BDE8F0411021FEF794BD0022F6E70000B2
:1022E000000802408401002010B5114C002210218A
:1022F0002046FEF786FD0F4A0021106881631068B2
:10230000C1630A4601212046FEF77BFD002202211F
:102310002046FEF776FD002204212046FEF771FDDF
:1023200020460022BDE810400821FEF76ABD0000EB
:102330000008024084010020FEE710B5044600F0CA
:1023400019FA782000F03CFA002000F039FA204613
:1023500000F036FABDE8104000F021BA70B5017007
:102360003A214170002101250BE000BF05FA01F47C
:10237000144201D0312400E030244618491CB470C6
:10238000C9B29942F2D318440021817070BD000097
:1023900030B587B014216846FEF757F93D48002153
:1023A000026842F002020260006800F0020005903C
:1023B0003948026842F08072026038484160016822
:1023C00041F001010160364D4FF440740122214675
:1023D0002846FEF716FD1120CDE9004001200290AD
:1023E0000220039069462846FEF706FC6420FEF7AB
:1023F000DBFBAE20FFF7A1FF2020FFF79EFF0220AE
:10240000FFF79BFF8120FFF798FF7F20FFF795FFE5
:10241000A120FFF792FFC820FFF78FFFA620FFF74C
:102420008CFFA820FFF789FF3F20FFF786FFD3200E
:10243000FFF783FF0020FFF780FFD520FFF77DFF28
:102440008020FFF77AFFD920FFF777FFF120FFF711
:1024500074FFDA20FFF771FF1220FFF76EFFDB2019
:10246000FFF76BFF4020FFF768FF8D20FFF765FF48
:102470001420FFF762FFAF20FFF75FFF002409A1E0
:10248000204600F0C5F9641CE4B2082CF7D307B06D
:1024900030BD000030380240FCED00E0001000E0EC
:1024A00000040240000000002DE9FF4F93B08F4E62
:1024B0008A468146DDE92215DDE920CB45CE249C04
:1024C0008DE845008AA603AF45CE87E845008BA27C
:1024D0008CA6D2E90002CDE9090245CE06AF87E815
:1024E00045000A2091FBF0F10AB295FBF0F121279B
:1024F0000326082509B2BCF1000F2AD0002B02DA0E
:10250000C3F100031BB24FF0450C8DF800C04FF033
:102510003A0C8DF801C002DA4FF02D0C01E04FF0BB
:102520002B0C8DF802C093FBF0FC0CF1300C8DF8F5
:1025300003C04FF02E0C8DF804C093FBF0FC00FBA1
:102540001C3303F130038DF805304FF000038DF894
:1025500006304FF0640892FBF8F393FBF0FC00FBAD
:102560001C3303F130038DF80E3092FBF0F393FB34
:10257000F0FC00FB1C3303F130038DF80F3092FBAD
:10258000F0F300FB132202F130028DF8102091FBD2
:10259000F8F292FBF0F300FB132202F130028DF807
:1025A000142091FBF0F292FBF0F300FB132202F1F6
:1025B00030028DF8152091FBF0F200FB121101F1B1
:1025C00030018DF81610002C02DA614209B200E0E9
:1025D000214691FBF0F109B2B1F57A7F01DB40F2BF
:1025E000E731002C01DA2D2200E02B228DF8262085
:1025F00091FBF8F292FBF0F300FB132230328DF8DE
:10260000272091FBF0F292FBF0F300FB1322303213
:102610008DF8282091FBF0F200FB121130318DF87B
:10262000291097FBF0F191FBF0F200FB1211303111
:102630008DF8191097FBF0F100FB117130318DF816
:102640001A1096FBF0F191FBF0F200FB1211303101
:102650008DF81D1096FBF0F100FB116130318DF803
:102660001E1095FBF0F191FBF0F200FB12113031DE
:102670008DF8211095FBF0F100FB115030308DF8F2
:1026800022004946002000F0C3F8082352464721A3
:102690000BA8FFF763FE0BA9012000F0B9F808238F
:1026A00055210EA8159AFFF759FE0EA9022000F039
:1026B000AFF86946032000F0ABF803A9042000F04E
:1026C000A7F809A9052000F0A3F805235A464121DF
:1026D00011A8FFF743FE11A9062000F099F806A9FA
:1026E000072000F095F817B0BDE8F08FCC3C00084B
:1026F0004C3A30303020523A30303000433A2B30B0
:102700003030000042303020503030204430300033
:102710001CB516A2D2E90012CDE900126421B0FB6B
:10272000F1F0B0F57A7F01D340F2E730B0FBF1F27F
:102730000A21B2FBF1F301FB132230328DF80220A3
:10274000B0FBF1F2B2FBF1F301FB132230328DF852
:102750000320B0FBF1F201FB120030308DF80500D0
:102760006946072000F054F81CBD0000543A303090
:102770002E30530070B501214C02204600F0E4F8E1
:1027800001210D02284600F0DFF80021204600F06C
:10279000DBF82846BDE87040002100F0D5B810B540
:1027A0004FF400740021204600F0CEF80121080209
:1027B00000F0CAF82046BDE81040012100F0C4B87E
:1027C0002DE9F04100244FF4007705467E10E90919
:1027D000384600F0B9F80121304600F0B5F8002184
:1027E000304600F0B1F86806641C050EE4B2082C0F
:1027F000EDD30121384600F0A7F80121304600F062
:10280000A3F83046BDE8F041002100F09DB800007B
:10281000F0B5A3B00C46064680216846FDF715FFCB
:102820000020074620AB6D465CE000BFA2F13001FE
:10283000092910D8DFF80CC102EB820200216244A2
:1028400002EB010C1CF8F0CC03F801C0491CC9B222
:102850000529F5D33AE0A2F14101192915D8DFF88D
:10286000E4C002EB82020CF1320C002102EB0C02FC
:1028700002EB010CACF5805C9CF8BBCE03F801C008
:10288000491CC9B20529F3D320E08DF880702B2AAA
:102890004AD02D2A48D000218DF881102B2A45D00E
:1028A0002D2A45D03A2A45D02E2A45D05FF0000186
:1028B0008DF882102B2A41D02D2A3FD03A2A3FD0C2
:1028C0005FF000018DF883108DF8847000215A5C50
:1028D0002A54401C491CC9B2C0B20529F7D3401C78
:1028E000C0B2641C22780AB17A289FD3B036F0B205
:1028F000FFF723FD0020FFF720FD1020FFF71DFD4F
:10290000FFF738FF7820FFF75BFF4020FFF758FF05
:102910000024285DFFF754FF641CE4B2802CF8D338
:10292000FFF73DFF23B0F0BD0821B5E71C21BFE74D
:102930000821BDE72421BBE74021B9E70821C1E711
:102940002421BFE7183C00080A4610B50146084894
:10295000FEF757FA074A51680748084B0068B0FB72
:10296000F3F0400053685B1A8342FBD310BD0000B4
:1029700000040240001000E04C00002040420F0024
:102980007047002104E000F001021144C9B2400880
:102990000028F8D10846704770B52A4D88B023A3A7
:1029A000287824A225A1012807D0032802D00228D4
:1029B00005D01946002005AC06E01146FAE722A131
:1029C000F8E72254401CC0B20A5C0AB10828F8D3C8
:1029D00020212154401CC0B24B212154401CC6B2BE
:1029E00000F036F808B1312000E03020A055761C08
:1029F000F0B20021215413480DF1040C3830B5F920
:102A00000E408178B5F90C30B5F90A208CE81E002B
:102A100081790091B0F904304278017805A8FFF778
:102A200043FDA86AFFF774FE08B070BD513220570D
:102A30004149540051322052554E00005132204C31
:102A40004F53540000000020513220444F4E4500A7
:102A500010B501210348FEF7C7F9012800D0002076
:102A600010BD0000000002400B4808B500780128A6
:102A700010D109480E30831F00F12A0100909A1EE0
:102A80000648FFF78BF9002804D1BDE80840032071
:102A900000F05AB808BD00000000002074000020BB
:102AA00038B50D4C2078012815D1206A01690091B4
:102AB000C368B4F90820B4F90610084800F02CFAED
:102AC0000649B1F928006081B1F92A10A181BDE859
:102AD0003840FFF7D1BB38BD000000208000002047
:102AE00070B51648FFF752F914480C3000F0FEF9A3
:102AF000134C002504F13800E58025816581A5810E
:102B0000E5818079A8B1FDF7E7FE6570A570E570F5
:102B1000FEF77CF9C4E909050121217000F04AF9AA
:102B2000FFF7A2FFBDE87040002220210548FEF714
:102B300068B9BDE87040032000F006B874000020BA
:102B4000000000200008024010B50446FEF75EF9C0
:102B500000F05AF800F038F9022C04D1FFF716FB08
:102B60006420FEF721F8FFF7BFFB0B48FFF70EF9D3
:102B700009480C3000F0BAF9084900220848CA8018
:102B80000A814A818A81CA810C700122BDE8104005
:102B90002021FEF736B9000074000020000000205C
:102BA00000080240174910B50878897800F07E00C7
:102BB00001F00E04FFF7E5FE042805D32046FFF7D9
:102BC000E0FE08B1012100E000210E480023383862
:102BD000012244781CB181B1C17881B110E009B102
:102BE000837008E08178052904D2491CC9B281703C
:102BF000052900D34270002010BDC370FBE7C270EE
:102C0000012010BD3800002003490A78012A02D1B2
:102C10004A6A801A886270470000002010B5504C44
:102C200094B0207800EE100A04F13800B8EE400AA3
:102C30008DED000A017800EE101AB8EE400A8DED15
:102C4000010A417800EE101AB8EE400A8DED020A32
:102C5000817900EE101AB8EE400A8DED030AB0F942
:102C6000041000EE101A3F49B8EEC00A8DED040AB8
:102C700091ED060AB8EEC00A8DED050A91ED070A3E
:102C8000B8EEC00A8DED060AB4F90E2000EE102A47
:102C9000B8EEC00A8DED070A807800EE100AB8EE93
:102CA000400A8DED080A206A828A00EE102AB8EEEA
:102CB000400A8DED090A90ED030AB8EEC00A8DEDC9
:102CC0000A0A0069404200EE100AB8EEC00A8DED13
:102CD0000B0A91ED010AB8EEC00A8DED0C0A91EDD8
:102CE000040AB8EEC00A8DED0D0AB4F90A0000EE30
:102CF000100AB8EEC00A8DED0E0AB4F90C0000EE11
:102D0000100AB8EEC00A8DED0F0AFFF7A1FE00EE23
:102D1000100AB8EE400A8DED100AE06ADFED120AE3
:102D200000EE100A00205021B8EE400A8DED110A85
:102D300094ED0A0AB8EE400A80EE201A8DED121AC0
:102D40008DF84C008DF84D0080208DF84E007F20CE
:102D50008DF84F00684600F0DFFB14B010BD000096
:102D6000000000208000002000007A44704700002E
:102D700010B5002000F008F8BDE81040042101481B
:102D8000FEF778BFCC010020B42800D9B4204FF45E
:102D90007A714143B422B1FBF2F1044A01F57A7130
:102DA000126891630249488070470000CC010020FE
:102DB0006C000020034901220A7048600020FFF7E0
:102DC000E3BF00006C0000200249012008700020D1
:102DD000FFF7DABF6C00002070B4164914224B686C
:102DE000C01AB0FBF2F2002A22D002EB820003EB01
:102DF000800048602D2408784FF0FF3300250EE056
:102E00004E88002807DD761C2D2E02D34C801846F4
:102E100005E04E8003E0012E08D84D800120521EAF
:102E2000EED20870488870BCFFF7AEBF761EF0E7A0
:102E300070BC70476C00002070B50446049D0029EA
:102E400004DC00F063F80020286070BDA07A38B37D
:102E50006668981BC31700EB937006EBA0006060D8
:102E600001FB02F04FF4967390FBF3F02860626868
:102E7000801A0A2290FBF2F5226810441A4A904206
:102E800002DC5242904200DA10464FF4FA6290FBA4
:102E9000F2F22A4402F196059D4205D8206009E02D
:102EA00001206360A072DBE7962A01DD962201E033
:102EB0006FF0950211444FF41670814204DC002932
:102EC00001DA002000E008B2B4F9081001F11402A0
:102ED00012B2904201DD104604E0143909B2884272
:102EE00000DA0846208170BDE093040010B5044666
:102EF00000F00CF804F10C0000F008F80020A061CC
:102F0000E061206260622085608510BD0021016063
:102F1000416001818172704738B5044604981546B6
:102F20004042C4E9083004F11800009040F6151240
:102F30002046FFF781FF208504F11C00009040F639
:102F40000F1229461038636AFFF776FF608538BD97
:102F5000FDF762BF30B593B030216846FDF775FBD1
:102F600014210CA8FDF771FB1E480025016841F0F3
:102F700080510160006800F0805011901A4801688B
:102F800041F4804101600068022400F48040119007
:102F900001200090000401908001CDE90640192035
:102FA00008904FF4A870CDE9090404200B906846FE
:102FB000FEF798F808B172B6FEE70CA90F2081E879
:102FC00031004FF4A0500F904FF480501090052125
:102FD0000CA8FDF7BBFF002801D072B6FEE713B0C6
:102FE00030BD0000403802400070004070B5194C00
:102FF0002068194A10F00C01184804D0184D042913
:1030000003D0082903D002601BE0056019E01149D4
:10301000091F0B68C3F380560B6803F03F0316B11A
:10302000B5FBF3F201E0B2FBF3F20B680968C3F3FE
:1030300088135A43C1F30141491C4900B2FBF1F125
:1030400001602168074AC1F30311515C0268CA405C
:10305000026070BD083802400024F4004C000020DB
:1030600040787D01FE3B00080248016841F4700190
:103070000160704788ED00E00148FEF76CBC00007D
:10308000AC000020F0B50268294C2A4D2A4E2B4F87
:103090002B4B4FF0804CA04209D0604507D0A8428E
:1030A00005D0B04203D0B84201D0984204D122F0FA
:1030B000700E4A6842EA0E02A0421BD0604519D049
:1030C000A84217D0B04215D0B84213D0984211D0C0
:1030D0001C4DA8420ED01C4DA8420BD01B4DA8423F
:1030E00008D01B4DA84205D01A4DA84202D01A4D57
:1030F000A84203D122F44075CA682A434D6922F0E0
:1031000080022A4302608A68C2620A688262A04220
:1031100001D0984201D1096901630121416101692E
:10312000C90703D0016921F001010161F0BD000070
:10313000000001400004004000080040000C004076
:1031400000040140004001400044014000480140AB
:1031500000180040001C00400020004010B501F0A5
:103160001F030121046A99408C430462016A9A405A
:103170001143016210BD10B5846842EA032224F4B1
:103180007F440A432243826010BD826822F07002AD
:103190000A4342F00701816070470000F0B5036AFE
:1031A000026A22F00102026242688469124E24F02F
:1031B00073050C682C4323F002058B682B430D4DDF
:1031C000A84201D0B04205D123F00807CB683B43A9
:1031D00023F00403A84201D0B04205D14D6922F486
:1031E000407215438A692A43426084614968416399
:1031F0000362F0BD0000014000040140F0B5026A26
:10320000036A23F010030362436884690D6824F4A1
:10321000E64444EA05248D6822F0200242EA0512C1
:103220000F4D104EA84201D0B04206D1CF6822F017
:10323000800242EA071222F04002A84201D0B042C6
:1032400007D14D6923F4406343EA85038D6943EA5E
:10325000850343608461496881630262F0BD0000B8
:103260000000014000040140F0B5026A036A23F443
:10327000807303624368C46922F4007224F073050A
:103280000C68124E2C438D6842EA05220E4DA8426E
:1032900001D0B04206D1CF6822F4006242EA072290
:1032A00022F48062A84201D0B04207D14D6923F4D4
:1032B000405343EA05138D6943EA05134360C46133
:1032C0004968C1630262F0BD000001400004014092
:1032D00030B5046A026A22F4805202624268C3690D
:1032E0000D6823F4E64343EA05238D6824F4005473
:1032F00044EA0534084DA84202D0084DA84204D142
:103300004D6922F4804242EA85124260C3614968F5
:103310000164046230BD000000000140000401406F
:1033200010B5036A046A24F001040462846924F07D
:10333000F00444EA021423F00A020A4384610262A0
:1033400010BD10B5036A046A24F010040462846995
:1033500023F0A00324F4704444EA023243EA01114A
:103360008261016210BD0000F0B506464B4885B091
:10337000016841F01001016048481438016841F0CB
:1033800001010160464C0025E56014216846FDF707
:103390005CF94FF4C060009002200190012002907F
:1033A000032003900720049069463E48FDF724FC63
:1033B000012211462520FDF797FD2520FDF786FD0A
:1033C000FFF714FE384F3868400800EE100A30014D
:1033D000B8EE401A00EE100AB8EE400AC1EE000A3C
:1033E000BCEEE00A10EE100A80B200EE100AB8EE51
:1033F000400A30EEC00AF3EE000A20EE200ABCEECE
:10340000C00A10EE101A89B241EA0010A060E0680C
:1034100040F00400E060E06840F00800E060E06830
:1034200020F48050E0602561206920F44050206144
:103430006561606920F040006061606920F0800093
:103440006061E06820F08000E060E06840F020000B
:10345000E060E06840F01000E0606FF0F000206095
:10346000E06840F40050E0601049A1F5466041601A
:1034700000F5666181600EA0FCF796FFFFF7B6FDD0
:103480001A493868B0FBF1F119A0FCF78DFF3146FD
:103490002048FCF789FF05B0F0BD00004438024029
:1034A00000100140000002404C000020740E00207B
:1034B0000D0D0D3D3D3D3D3D3D3D3D3D3D3D202006
:1034C00053544D333246343037564520CDE2C9E8A7
:1034D00020B3F5CABCBBAFB1A8B8E6203D3D3D3D29
:1034E0003D3D3D3D3D3D3D0D0000000040420F0093
:1034F000CFB5CDB3CAB1D6D3C6B5C2CA202020201D
:103500002020202020202020202564204D487A0DD6
:1035100000000000E83C0008F0B50E4B00224FF41C
:10352000006C16469D680AE09C89875C2F55641CD8
:10353000A4B29C81644500D19E81521C92B28A4201
:10354000F2D30548C168090603D4C16841F080017F
:10355000C160F0BD14020020001001402DE9F047C9
:10356000264D2868264C00064FF0000705F104069A
:103570004FF4007218D521480C300168090613D5A4
:10358000E189A3685B5C3360491C89B2E1819142A7
:1035900000D1E781E189A289914203D1016821F03C
:1035A00080010160BDE8F0872868DFF85880800658
:1035B0000ED5B8F80600904203D313A0FCF7F4FE32
:1035C00019E032681B4B1A54401CA8F80600E9E7C2
:1035D0002868C006E6D52780914616496068FCF742
:1035E000EFFFB8F806102180A8F806704946114888
:1035F000FDF72BF828683068D4E70000004C004045
:103600004402002050000020BEAFB8E6A3BA5541E6
:10361000525434B5A5D6A1BDD3CAD5C1BFA3ACD22F
:10362000D1B3ACB3F6BDD3CAD5BBBAB4E6B4F3D00C
:10363000A10D2100740800202DE9F041224C2068E2
:10364000224D00064FF000074FF4007116D5E068D8
:10365000000613D5E889AA68125C6260401C80B23B
:10366000E881884200D1EF81E889A989884203D1A5
:10367000E06820F08000E060BDE8F0812068144E32
:1036800080060CD53089884203D312A0FCF78CFE4B
:1036900017E061681A4A1154401C3081ECE7206839
:1036A000C006E9D52F8088460A4615496868FCF7A8
:1036B00087FF30892880378141461148FCF7C5FFD4
:1036C00020686068D8E700000050004054020020E5
:1036D00050000020BEAFB8E6A3BA5541525435B5EC
:1036E000A5D6A1BDD3CAD5C1BFA3ACD2D1B3ACB30B
:1036F000F6BDD3CAD5BBBAB4E6B4F3D0A10D210050
:10370000740A00202DE9F041244C2068244D000665
:103710004FF0000717D5E068000614D5E889A968BE
:10372000095C6160401C80B2E881B0F5006F00D197
:10373000EF81E889A989884203D1E06820F0800000
:10374000E060BDE8F0812068164E80064FF40071FD
:103750000DD53088884203D313A0FCF725FE1AE06C
:1037600061680F4A60321154401C3080E9E72068DC
:10377000C006E6D588460A4609492F806031686848
:10378000FCF71EFF308828800548378041466030AE
:10379000FCF75BFF20686068D3E700000010014081
:1037A0001402002050000020BEAFB8E6A3BA554175
:1037B000525431B5A5D6A1BDD3CAD5C1BFA3ACD291
:1037C000D1B3ACB3F6BDD3CAD5BBBAB4E6B4F3D06B
:1037D000A10D21002DE9F047264D2868264C000652
:1037E0004FF0000705F104064FF4007218D5214888
:1037F0000C300168090613D5E189A3685B5C33606E
:10380000491C89B2E181914200D1E781E189A28915
:10381000914203D1016821F080010160BDE8F08789
:103820002868DFF8588080060ED5B8F8020090426C
:1038300003D313A0FCF7B8FD19E032681B4B1A54F0
:10384000401CA8F80200E9E72868C006E6D52780F2
:10385000914616496068FCF7B3FEB8F80210218063
:10386000A8F8027049461148FCF7EFFE2868306856
:10387000D4E7000000440040240200205000002053
:10388000BEAFB8E6A3BA5541525432B5A5D6A1BDD4
:10389000D3CAD5C1BFA3ACD2D1B3ACB3F6BDD3CAE2
:1038A000D5BBBAB4E6B4F3D0A10D21007404002056
:1038B0002DE9F047264D2868264C00064FF00007FA
:1038C00005F104064FF4007218D521480C30016848
:1038D000090613D5E189A3685B5C3360491C89B292
:1038E000E181914200D1E781E189A289914203D12E
:1038F000016821F080010160BDE8F0872868DFF8E9
:10390000588080060ED5B8F80400904203D313A067
:10391000FCF74AFD19E032681B4B1A54401CA8F80A
:103920000400E9E72868C006E6D5278091461649D5
:103930006068FCF745FEB8F804102180A8F8047010
:1039400049461148FCF781FE28683068D4E700003A
:10395000004800403402002050000020BEAFB8E60E
:10396000A3BA5541525433B5A5D6A1BDD3CAD5C1CA
:10397000BFA3ACD2D1B3ACB3F6BDD3CAD5BBBAB436
:10398000E6B4F3D0A10D2100740600202DE9F04724
:10399000264D2868264C00064FF0000705F1040666
:1039A0004FF4007218D521480C300168090613D570
:1039B000E189A3685B5C3360491C89B2E181914273
:1039C00000D1E781E189A289914203D1016821F008
:1039D00080010160BDE8F0872868DFF85880800624
:1039E0000ED5B8F80A00904203D313A0FCF7DCFC14
:1039F00019E032681B4B1A54401CA8F80A00E9E78A
:103A00002868C006E6D52780914616496068FCF70D
:103A1000D7FDB8F80A102180A8F80A704946114865
:103A2000FCF713FE28683068D4E70000001401405A
:103A30006402002050000020BEAFB8E6A3BA554192
:103A4000525436B5A5D6A1BDD3CAD5C1BFA3ACD2F9
:103A5000D1B3ACB3F6BDD3CAD5BBBAB4E6B4F3D0D8
:103A6000A10D2100740C0020FEE70907090E0028B3
:103A700004DB00F1E02080F80014704700F00F0034
:103A800000F1E02080F8141D704730380A2801D278
:103A90000120704700207047704703B50121684638
:103AA000FFF73AFD00980CBDFDF7BEF9FFF752FA9B
:103AB000FEF736FAFEF7A6FAFEF7DAFAFEF7E0FAB4
:103AC000FEF7E6FAFEF724FB012220214648FDF727
:103AD00098F94FF41650FFF747FC4448FDF762FD94
:103AE000FCF7C6FFFEF754FCFCF7D4FE08B172B633
:103AF000FEE7FCF7CBFE3E4C2062FEF779FB08B1F7
:103B000072B6FEE7FFF734F908B172B6FEE738483F
:103B10003830FCF7FDFF0020FFF716F8FDF776F9C7
:103B2000E16A5038C4E90C10FEF736FF4FF4FA761C
:103B3000FDF76CF90546FFF767F82078012802D1F8
:103B40002846FFF749F92069281A0A2812D328487D
:103B500025613830FCF7DCFF2078012808D1FFF719
:103B600021F828B10220FEF7EFFFFEF715FF01E074
:103B7000FEF77AFFE06A216B88420DD02063616B0B
:103B8000681A502808D365632078012820D0FEF7F2
:103B9000A7FF00BFFEF700FF6069281A142804D3AE
:103BA0006561FCF7B5FEFEF77BFFA069281A642863
:103BB00002D3A561FFF732F820780128E069A5EB70
:103BC000000009D0B042B3D3E561FEF7E5FEAFE7F0
:103BD0000020FEF7B9FFDDE7B042A9D3E561A06A96
:103BE000FEF796FDA4E7000000080240AC000020AC
:103BF000000000204FF04070E1EE100A7047000016
:103C00000000000000000102030406070809F9FB98
:103C1000FDFF0103050700003E5149453E00427F7C
:103C2000400042615149462141454B311814127FF1
:103C30001027454545393C4A49493001710905037A
:103C40003649494936064949291E7E1111117E7FA0
:103C5000494949363E414141227F4141221C7F4929
:103C60004949417F090909013E4149497A7F0808CC
:103C7000087F00417F41002040413F017F0814221E
:103C8000417F404040407F020C027F7F0408107F4C
:103C90003E4141413E7F090909063E4151215E7F77
:103CA00009192946464949493101017F01013F402F
:103CB00040403F1F2040201F3F4038403F631408D2
:103CC000146307087008076151494543453A4E4F50
:103CD0004C494E45000004000008000000000000B0
:103CE0000002000100001000554152543120B3F58C
:103CF000CABCBBAFC5E4D6C3202020202020202092
:103D00002025642D4E6F6E652D382D313B20D2D18C
:103D1000CDEAB3C9B3F5CABCBBAFC5E4D6C3A1A253
:103D2000CAD5B7A2C5E4D6C30D0000004C3D0008BB
:103D30000000002074000000C4010008C03D00081D
:103D4000740000207C3E0000E0010008000000003C
:103D50000000000000000000000000000000000063
:103D60000000000000000000000000000000000053
:103D70000000000000000000000000000000000043
:103D80000000000000000000000000000100000032
:103D900010000000000000000024F40000000000FB
:103DA0000000000000000000000000000000000013
:103DB0000000000000000000010000000000000002
:040000050800018965
:00000001FF
