:020000040800F2
:10000000303D002031020008B7150008A714000891
:10001000B515000831080008351F00080000000071
:10002000000000000000000000000000BB150008F8
:100030003308000800000000B9150008BD150008CD
:100040004B0200084B0200084B0200084B0200085C
:100050004B0200084B0200084B0200084B0200084C
:100060004B0200084B0200084B0200084B0200083C
:100070004B0200084B0200084B0200084B0200082C
:100080004B0200084B0200084B0200084B0200081C
:100090004B0200084B0200084B0200084B0200080C
:1000A0004B020008E51600084B0200084B0200084E
:1000B0004B0200084B0200084B0200084B020008EC
:1000C0004B0200084B0200084B0200084B020008DC
:1000D0004B020008D11B0008A11C00087D1D000870
:1000E0004B0200084B0200084B0200084B020008BC
:1000F0004B0200084B0200084B0200084B020008AC
:100100004B0200084B0200084B0200084B0200089B
:10011000291A0008051B00084B0200084B020008C2
:100120004B0200084B0200084B0200084B0200087B
:100130004B0200084B0200084B0200084B0200086B
:100140004B0200084B0200084B0200084B0200085B
:100150004B0200084B0200084B020008591E000821
:100160004B0200084B0200084B0200084B0200083B
:100170004B0200084B0200084B0200080000000080
:100180004B0200084B02000800F002F800F041F8B2
:100190000AA090E8000C82448344AAF10107DA45E2
:1001A00001D100F036F8AFF2090EBAE80F0013F0F3
:1001B000010F18BFFB1A43F0010318475C1E000033
:1001C0007C1E0000103A24BF78C878C1FAD85207C4
:1001D00024BF30C830C144BF04680C6070470000C1
:1001E0000023002400250026103A28BF78C1FBD840
:1001F000520728BF30C148BF0B607047642900F028
:10020000BB80002070471FB501F0CEFE1FBD10B5AA
:1002100010BD00F0DBFA1146FFF7F5FF01F0AAFE72
:1002200000F0F9FA03B4FFF7F2FF03BC01F09AFE05
:100230000948804709480047FEE7FEE7FEE7FEE77A
:10024000FEE7FEE7FEE7FEE7FEE7FEE704480549B6
:10025000054A064B70470000D516000889010008C2
:10026000302B0020303D0020302D0020302D00208C
:10027000704753EA020C00F069802DE9F04B4FF013
:100280000006002B1FBFB3FA83F503FA05F424FA26
:1002900005F65E4012BF1643B2FA82F502FA05F483
:1002A000C5F120051EBF22FA05FC44EA0C042035E6
:1002B00056EA044C4FEA144418BF641C4FF000087F
:1002C0004FF00009904271EB030C39D3002919BF9C
:1002D000B1FA81F701FA07F6B0FA80F700FA07F6EB
:1002E000C7F120071EBF20FA07FC46EA0C0620379C
:1002F000B6FBF4FCA7EB0507103F07F01F0BCBF193
:1003000020060CFA0BFB2CFA06F644BFB346002677
:10031000202FA4BF5E464FF0000B5BEA060C08BF1F
:100320004FF0010B19EB0B09ABFB027C48EB060805
:10033000C01B06FB02CC0BFB03CC71EB0C01C1E72D
:100340000B46024641464846BDE8F08B13B54FF0D8
:1003500000004FF00001AFF30080BDE81C40704783
:100360000FB4044910B503AA029800F0E7F910BCD5
:100370005DF814FB240000202DE9F041064600241E
:1003800010687529314616A510D0AFF300800028FB
:1003900002DA404213A507E031688A0701D512A5A9
:1003A00002E0490704D511A5012401E0AFF3008064
:1003B00000210A2206F1240709E0B0FBF2FCB0FBA1
:1003C000F2F302FB1C00303078541846491C002818
:1003D000F3D123462A463046BDE8F04100F03CB94F
:1003E000000000002D0000002B0000002000000095
:1003F0002DE9F05F894604464FF0000ADFF874B13A
:10040000FB44C0F820A02046E1688847002874D04B
:10041000252806D0D4E901219047206A401C20629B
:10042000F1E700265F462046E16888472028054618
:1004300007DB312D05D2781910F8200C08B10643DE
:10044000F1E7B00701D526F00406C4F81CA0002788
:10045000C4F818A02A2D09D0284601F07CFD38B335
:1004600004EB8708303DC8F8185019E059F8041B10
:10047000204604EB87029161E1688847012F054619
:1004800018D1E069002820DA26F020061DE0D8F80F
:10049000180000EB800005EB40003038C8F8180069
:1004A0002046E1688847054601F055FD0028EED159
:1004B000012F0AD02E2D08D12046E16888477F1CE5
:1004C0000546022F46F02006C4DBA069002803DAA7
:1004D000404246F00106A061F00701D026F0100668
:1004E0006C2D0BD0682D09D04C2D39D06A2D35D00C
:1004F000742D35D07A2D33D016E038E0E1682F46E0
:1005000020468847B842054609D16C2F26D04FF4C3
:100510008060E168064320468847054604E06C2F6A
:100520001AD04FF4807006430DB3A5F1410019288D
:1005300002D8203546F400664A4629462046266001
:100540004E46FFF75BFE80B101280BD0F61D26F06A
:10055000070000F1080956E74020E4E78020D8E7CB
:100560000020D6E706F104094DE7284652E7206A45
:10057000BDE8F09FBE1B0000032A40F2308010F05F
:10058000030C00F0158011F8013BBCF1020F62442E
:1005900098BF11F801CB00F8013B38BF11F8013BBF
:1005A000A2F1040298BF00F801CB38BF00F8013B6C
:1005B00011F0030300F0D480083AC0F0088051F82D
:1005C000043B083A51F804CBA0E80810F5E7121DE7
:1005D0005CBF51F8043B40F8043BAFF30080D20706
:1005E00024BF11F8013B11F801CB48BF11F8012BD2
:1005F00024BF00F8013B00F801CB48BF00F8012BF5
:1006000070474FF0000200B51346944696462039D5
:1006100022BFA0E80C50A0E80C50B1F12001BFF4BB
:10062000F7AF090728BFA0E80C5048BF0CC05DF821
:1006300004EB890028BF40F8042B08BF704748BF6F
:1006400020F8022B11F0804F18BF00F8012B7047E3
:1006500070477047704770472DE9F0470D4699463F
:100660009246044600F124080168880604D5E06932
:1006700021F01001216000E00120A84201DD471BAC
:1006800000E00027A1697A1902EB0900081AA061AD
:100690002078C00602D42046AFF30080002608E090
:1006A000D4E901211AF806009047206A401C761C04
:1006B00020624E45F4DB2078C0060AD52046AFF311
:1006C000008006E0D4E9012130209047206A401CD8
:1006D0002062381EA7F10107F4DC07E0D4E901210C
:1006E00018F805009047206A401C2062281EA5F1DA
:1006F0000105F3DC2046AFF300802078000602D528
:100700000220BDE8F0870120FBE7000001694A1CD8
:1007100002610878704700B58FB0CDE90131002142
:10072000059105497944CDE9031011466846FFF764
:100730005FFE0FB000BD0000E5FFFFFF074B70B587
:100740000D467B44FFF7E7FF0446284600F03AF8E1
:1007500010B14FF0FF3070BD204670BD2118000071
:1007600010B5203AC0F00B80B1E81850203AA0E84C
:100770001850B1E81850A0E81850BFF4F5AF5FEA80
:10078000027C24BFB1E81850A0E8185044BF18C933
:1007900018C0BDE810405FEA827C24BF51F8043BDA
:1007A00040F8043B08BF7047D20728BF31F8023B2E
:1007B00048BF11F8012B28BF20F8023B48BF00F8C2
:1007C000012B7047007B00F080007047754600F0F9
:1007D0002BF8AE4605006946534620F007008546D3
:1007E00018B020B5FFF732FDBDE820404FF00006FD
:1007F0004FF000074FF000084FF0000B21F0070109
:10080000AC46ACE8C009ACE8C009ACE8C009ACE84B
:10081000C0098D46704710B50446AFF300802046EE
:10082000BDE81040FFF7FEBC00487047D02A00200A
:10083000FEE7704772B6FEE72DE9F84FDFF8BCA17E
:100840000022012503264FF00F090AF1040BAAF13B
:10085000040E00BF0B6805FA02F42340A34270D1D6
:100860000F7907F00307012F01D0022F16D18768F7
:100870004FEA420806FA08FC27EA0C07D1F80CC038
:100880000CFA08FC4CEA070CC0F808C04768A743FC
:100890000C79C4F3001494403C4344600C79E44365
:1008A000A4070AD0C4684FEA420C06FA0CF7BC430E
:1008B0008F6807FA0CF72743C7600C7904F003042C
:1008C000022C12D1D40800EB840CDCF8204057072E
:1008D000FF0E09FA07F824EA0804D1F8108008FA94
:1008E00007F848EA0408CCF8208004684FEA420C74
:1008F00006FA0CF7BC430F7907F0030707FA0CF769
:10090000274307604C6814F4403F70D03C4C276884
:1009100047F480472760246822F0030704F48044EA
:100920000094384C07EB040CDCF8084897074FEAB2
:10093000177809FA08F7BC43334FB84202D10027B1
:1009400024E054E0314FB84201D101271EE0304F7E
:10095000B84201D1022719E02E4FB84201D1032736
:1009600014E02D4FB84201D104270FE02B4FB842BD
:1009700001D105270AE02A4FB84201D1062705E038
:10098000284FB84201D1072700E0082707FA08F7E7
:100990002743CCF80878DAF800405746D1F804C06D
:1009A0009C435FEACC2C00D51C433C60DBF8004044
:1009B0005F46D1F804C09C435FEA8C2C00D51C43F1
:1009C0003C60DEF800407746D1F804C09C435FEA03
:1009D0008C3C00D51C433C60084F083F3C68D1F874
:1009E00004C09C435FEACC3C00D51C433C60521CD5
:1009F000102AFFF42FAFBDE8F88F0000083C01403B
:100A0000443802400030014000000240000402402F
:100A100000080240000C0240001002400014024096
:100A200000180240001C0240426921EA02030A4009
:100A300043EA0241816170470AB18161704709044C
:100A4000FBE70000014880687047000004000020B8
:100A500002488168027811448160704704000020D8
:100A60000B4810B5016841F400710160016841F460
:100A700080610160016841F480710160032000F031
:100A80006FF80F2000F006F800F024F8002010BDE9
:100A9000003C024070B50D4D04464FF47A71287841
:100AA000B1FBF0F00A490968B1FBF0F000F0ECFA94
:100AB00048B9102C07D200222146501E00F030F811
:100AC00000206C6070BD012070BD0000040000209B
:100AD000100000200A4808B5016841F48041016017
:100AE000006800F4804000900548001F016841F054
:100AF00080510160006800F08050009008BD000047
:100B000044380240002809DB00F01F020121914017
:100B10004009800000F1E020C0F80011704700009B
:100B2000F0B40E4B1B680C46C3F30223C3F1070558
:100B3000042D00D90425191D072901D2002300E046
:100B4000DB1E012606FA05F1491E214099409E4010
:100B5000761E16403143F0BC01F0EDB90CED00E01B
:100B6000064900F0070208684FF6FF03184040EA04
:100B70000220034A10430860704700000CED00E0BB
:100B80000000FA052DE9F0470E46050065D0DFF8B4
:100B90001481D8F80000F7B200F00700B04207D285
:100BA00088F80070D8F8000000F00700B04254D177
:100BB00028683D4C810712D5400703D5206840F4D2
:100BC000E05020602878000703D5206840F460409A
:100BD00020602068A96820F0F00008432060287891
:100BE000C0072DD0304968680839012812D0022882
:100BF00013D0032811D00968890700292DDA21684C
:100C000021F0030101432160FFF71CFF814641F2FF
:100C1000883A0EE009688903EFE709688901ECE783
:100C2000FFF710FFA0EB0901514502D90320BDE8F1
:100C3000F0872068696800F00C00B0EB810FEFD1FD
:100C4000D8F80010404601F00701B14207D90770FB
:100C5000006800F00700B04201D00120E7E72878E3
:100C6000400705D52068E96820F4E050084320607B
:100C70002878000706D52068296920F4604040EAFA
:100C8000C100206000F018F82168084AC1F3031180
:100C9000515CC8400649086006480068FFF7FAFE44
:100CA0000020C4E7003C024008380240B21F0008A0
:100CB0001000002008000020154810B5006810F052
:100CC0000C02144813D01449042A0FD0082A0ED15C
:100CD0000F4C241F2268236802F03F025B0207D5F5
:100CE0002068C0F38810A0FB010106E0084610BD93
:100CF0002168C1F38811A1FB00010023FFF7B9FAB5
:100D00002168C1F30141491C4900B0FBF1F010BD5D
:100D1000083802400024F40040787D012DE9F84FA6
:100D200004006ED02078DFF84C93C007A9F10405C9
:100D30004AD009F104000168C1F38101012908D0FA
:100D40000068C0F3810002280AD1D9F800004002EF
:100D500006D52868800337D560680028E1D033E0E5
:100D60006068B0F5803F10D0B0F5A02F286810D093
:100D700020F480302860286820F480202860606893
:100D8000A8B1FFF75FFE06460DE0286840F480300A
:100D9000F4E740F480202860F7E700BFFFF752FE39
:100DA000801B642873D828688003F7D50CE0FFF710
:100DB00049FE064605E000BFFFF744FE801B64289D
:100DC000F0D828688003F7D42078DFF8AC82800759
:100DD0004FF0000A3ED5A748001D016811F00C0F26
:100DE00008D00068C0F3810002280BD1D9F80000B8
:100DF000400207D42868800716D5E068012800D192
:100E000012E033E1E068B8B10120C8F80000FFF754
:100E100019FE064605E000BFFFF714FE801B0228FE
:100E2000C0D828688007F7D52868216920F0F80025
:100E300040EAC10028600DE0C8F800A0FFF702FEFC
:100E4000064604E0FFF7FEFD801B02281FD8286835
:100E50008007F7D42078000722D5864F874861693C
:100E6000703771B101210160FFF7ECFD064604E027
:100E7000FFF7E8FD801B022809D838688007F7D5FE
:100E80000EE0C0F800A0FFF7DDFD064605E082E0B9
:100E9000FFF7D8FD801B02287DD838688007F7D47B
:100EA0002078400768D5DFF8CCB100270BF13C0B68
:100EB000DBF80000C0000BD4DBF8001041F08051DB
:100EC000CBF80010DBF80000012700F08050009004
:100ED0006B4E3068C00510D4306840F480703060CC
:100EE000FFF7B0FD009005E0FFF7ACFD0099401A58
:100EF000022850D83068C005F6D55E4EA0686C3622
:100F000001280FD00528306810D020F00100306093
:100F1000306820F004003060A068B8B1FFF792FD9F
:100F200000900FE0306840F00100F4E740F004006A
:100F30003060F7E7FFF786FD0099411A41F28830EB
:100F4000814266D830688007F4D50EE0FFF77AFD5D
:100F5000009007E0FFF776FD0099411A41F28830D2
:100F6000814256D830688007F4D42FB1DBF80010E6
:100F700021F08051CBF80010A069C8B33D49091D8C
:100F80000968C1F3810102294AD00228504607D0DE
:100F9000C8F8600000E03CE0FFF754FD04463BE089
:100FA0004746C8F86000FFF74DFD064605E000BF64
:100FB000FFF748FD801B02282BD828688001F7D452
:100FC000D4E907010843A16A2E4A490802EB01410E
:100FD000626A41EA8211084394F82C1040EA0161E8
:100FE000C9F8001001203866FFF72CFD044606E022
:100FF0003EE000BFFFF726FD001B022809D8286845
:101000008001F7D534E000BFFFF71CFD001B02286C
:1010100002D90320BDE8F88F28688001F4D427E0C6
:101020000128F7D0D9F80000E26900F4800191426C
:101030001CD1226A00F03F01914217D147F6C071DE
:10104000626A0140B1EB821F10D1A26A4FF0FF33F8
:1010500000F4403103EB5202B1EB024F06D194F899
:101060002C1000F07060B0EB016F01D00120D1E7CF
:101070000020CFE70438024000004742800E47427C
:10108000007000400000FFFF10B5401EB0F1807FEF
:1010900001D3012010BD4FF0E02460610F216017E3
:1010A00000F049FF0020A06107202061002010BD52
:1010B0007047704770B590F83C20012A32D0012467
:1010C00080F83C40022280F83D2003685A689D6801
:1010D00022F070060A6832435A60134B02689A4243
:1010E00014D0B2F1804F11D0104B9A420ED0104B59
:1010F0009A420BD00F4B9A4208D00F4B9A4205D020
:101100000E4B9A4202D00E4B9A4204D1496825F008
:1011100080031943916080F83D40002180F83C1025
:10112000084670BD022070BD000001400004004070
:1011300000080040000C0040000401400040014055
:101140000018004010B5040003D094F83D0010B121
:1011500007E0012010BD002084F83C00204600F08C
:101160001FF8022084F83D00211D206800F0C0FA1D
:10117000012084F8460084F83E0084F83F0084F89B
:10118000400084F8410084F8420084F8430084F869
:10119000440084F8450084F83D00002010BD0000A4
:1011A00008B500680B49884212D10B48016841F02C
:1011B000010101600068002200F00100009011466A
:1011C0001920FFF7ADFCBDE808401920FFF79ABCD5
:1011D00008BD0000000001404438024090F83D1076
:1011E000012901D001207047022180F83D100168DB
:1011F000CA6842F00102CA6000681149884214D0EE
:10120000B0F1804F11D00F4988420ED00E4988426C
:101210000BD00E49884208D00D49884205D00D49AF
:10122000884202D00C49884204D1816801F007014C
:10123000062903D0016841F00101016000207047D8
:10124000000001400004004000080040000C004085
:1012500000040140004001400018004070B5044601
:1012600090F83C000025012817D0012684F83C6046
:10127000022084F83D002068826822F0770222F480
:101280007F4282600868502838D00DDC20284FD07B
:1012900005DC90B3102811D14AE0022070BD30283F
:1012A00046D040280AD13BE060282FD070280DD0CE
:1012B000B0F5805F03D0B0F5005F12D0012584F84F
:1012C0003D60002084F83C00284670BDCB68D1E921
:1012D0000121206800F078FA2068816841F07701E8
:1012E00009E0CB68D1E90121206800F06DFA20689F
:1012F000816841F480418160E1E719E0CA6849688A
:10130000206800F073FA5021206806E0CA68496836
:10131000206800F07CFA6021206800F05FFACEE7D8
:10132000CA684968206800F061FA40212068F4E743
:10133000226801461046F0E770472DE9F041044667
:101340000068C66805694FF00007A90713D5B10703
:1013500011D5F91E0161012020772068806980077E
:10136000204602D0FFF7E8FF04E000F07EF82046B8
:1013700000F07CF82777680716D5700714D5216828
:101380006FF004000861022020772068806910F463
:10139000407F204602D0FFF7CFFF04E000F065F861
:1013A000204600F063F82777280715D5300713D5B6
:1013B00021686FF008000861042020772068C06968
:1013C0008007204602D0FFF7B7FF04E000F04DF899
:1013D000204600F04BF82777E80616D5F00614D51E
:1013E00021686FF010000861082020772068C0692C
:1013F00010F4407F204602D0FFF79EFF04E000F08B
:1014000034F8204600F032F82777E80708D0F007D4
:1014100006D021686FF001000861204600F028F82E
:10142000280608D5300606D521686FF080000861CF
:101430002046FFF73DFE680608D5700606D52168F0
:101440006FF040000861204600F02CF8A8060AD58D
:10145000B00608D521686FF0200008612046BDE87D
:10146000F041FFF726BEBDE8F081704770470000ED
:1014700010B50068084988420CD1084C2088411CEE
:101480002180B0F57A7F05D304210548FFF7CCFA17
:101490000020208010BD000000000140000000205E
:1014A000000402407047FEE7F0B587B0142168469B
:1014B000FFF7A7F821480024016841F0800101608E
:1014C000016801F080010591016841F004010160AB
:1014D000016801F004010591016841F00201016019
:1014E000016801F002010591016841F0010101600C
:1014F0000068134E00F001000590002220213046C4
:10150000FFF79AFA0F4F002204213846FFF794FAAA
:10151000202000900125CDE901546946304603940E
:10152000FFF78AF904200090CDE901546946384656
:101530000394FFF781F907B0F0BD00003038024096
:10154000000802400004024010B586B0002418488C
:101550000094019402940394049414490594016046
:10156000A721C0E9011440F2E731C0E9031480214A
:10157000C0E90541FFF7E6FD08B1FFF75BF94FF45D
:101580008050009069460A48FFF768FE08B1FFF7EF
:1015900051F9049404A906480594FFF78BFD00282F
:1015A00001D0FFF747F906B010BD00000000014070
:1015B00028000020FEE7FEE770477047FFF748BAB3
:1015C00030B593B030216846FFF71BF814210CA802
:1015D000FFF717F81E480025016841F080510160AF
:1015E000006800F0805011901A48016841F4804171
:1015F00001600068022400F48040119001200090F6
:10160000000401908001CDE90640192008904FF4B4
:10161000A870CDE9090404200B906846FFF77EFB13
:1016200008B172B6FEE70CA90F2081E831004FF433
:10163000A0500F904FF48050109005210CA8FFF798
:10164000A1FA002801D072B6FEE713B030BD000049
:10165000403802400070004070B5194C2068194AAB
:1016600010F00C01184804D0184D042903D00829A3
:1016700003D002601BE0056019E01149091F0B68E7
:10168000C3F380560B6803F03F0316B1B5FBF3F2CA
:1016900001E0B2FBF3F20B680968C3F388135A4305
:1016A000C1F30141491C4900B2FBF1F1016021681D
:1016B000074AC1F30311515C0268CA40026070BD61
:1016C000083802400024F4001000002040787D011A
:1016D000B21F00080248016841F4700101607047C0
:1016E00088ED00E00148FFF728BE00002800002038
:1016F000F0B50268294C2A4D2A4E2B4F2B4B4FF048
:10170000804CA04209D0604507D0A84205D0B04225
:1017100003D0B84201D0984204D122F0700E4A683A
:1017200042EA0E02A0421BD0604519D0A84217D051
:10173000B04215D0B84213D0984211D01C4DA842E7
:101740000ED01C4DA8420BD01B4DA84208D01B4DFB
:10175000A84205D01A4DA84202D01A4DA84203D182
:1017600022F44075CA682A434D6922F080022A4358
:1017700002608A68C2620A688262A04201D098420E
:1017800001D109690163012141610169C90703D0E0
:10179000016921F001010161F0BD0000000001407C
:1017A0000004004000080040000C0040000401401C
:1017B0000040014000440140004801400018004042
:1017C000001C00400020004010B5846842EA03225B
:1017D00024F47F440A432243826010BD826822F0D1
:1017E00070020A4342F007018160704710B5036A36
:1017F000046A24F001040462846924F0F00444EAD9
:10180000021423F00A020A438461026210BD10B57B
:10181000036A046A24F010040462846923F0A003BC
:1018200024F4704444EA023243EA01118261016205
:1018300010BD0000F0B506464B4885B0016841F088
:101840001001016048481438016841F0010101604D
:10185000464C0025E56014216846FEF7D2FE4FF4A1
:10186000C0600090022001900120029003200390AC
:101870000720049069463E48FEF7DEFF012211462C
:101880002520FFF74DF92520FFF73CF9FFF7E4FE8F
:10189000384F3868400800EE100A3001B8EE401AA0
:1018A00000EE100AB8EE400AC1EE000ABCEEE00AF3
:1018B00010EE100A80B200EE100AB8EE400A30EEC8
:1018C000C00AF3EE000A20EE200ABCEEC00A10EEB9
:1018D000101A89B241EA0010A060E06840F00400EC
:1018E000E060E06840F00800E060E06820F48050CC
:1018F000E0602561206920F44050206165616069E5
:1019000020F040006061606920F080006061E06864
:1019100020F08000E060E06840F02000E060E068D7
:1019200040F01000E0606FF0F0002060E06840F4EC
:101930000050E0601049A1F54660416000F5666125
:1019400081600EA0FEF70CFDFFF786FE1A4938688D
:10195000B0FBF1F119A0FEF703FD31462048FEF778
:10196000FFFC05B0F0BD000044380240001001400B
:101970000000024010000020D00C00200D0D0D3D95
:101980003D3D3D3D3D3D3D3D3D3D202053544D338E
:101990003246343037564520CDE2C9E820B3F5CA87
:1019A000BCBBAFB1A8B8E6203D3D3D3D3D3D3D3D12
:1019B0003D3D3D0D0000000040420F00CFB5CDB3CE
:1019C000CAB1D6D3C6B5C2CA2020202020202020EC
:1019D00020202020202564204D487A0D00000000A2
:1019E000D41F0008F0B50E4B00224FF4006C1646D1
:1019F0009D680AE09C89875C2F55641CA4B29C8179
:101A0000644500D19E81521C92B28A42F2D30548AD
:101A1000C168090603D4C16841F08001C160F0BD0E
:101A200070000020001001402DE9F047264D286885
:101A3000264C00064FF0000705F104064FF4007233
:101A400018D521480C300168090613D5E189A3682F
:101A50005B5C3360491C89B2E181914200D1E7812E
:101A6000E189A289914203D1016821F080010160DE
:101A7000BDE8F0872868DFF8588080060ED5B8F8F2
:101A80000600904203D313A0FEF76AFC19E0326807
:101A90001B4B1A54401CA8F80600E9E72868C0064A
:101AA000E6D52780914616496068FEF765FDB8F8CF
:101AB00006102180A8F8067049461148FEF7A1FDDE
:101AC00028683068D4E70000004C0040A0000020E7
:101AD00014000020BEAFB8E6A3BA5541525434B545
:101AE000A5D6A1BDD3CAD5C1BFA3ACD2D1B3ACB327
:101AF000F6BDD3CAD5BBBAB4E6B4F3D0A10D21006C
:101B0000D00600202DE9F041224C2068224D00062D
:101B10004FF000074FF4007116D5E068000613D5AA
:101B2000E889AA68125C6260401C80B2E881884241
:101B300000D1EF81E889A989884203D1E06820F0CB
:101B40008000E060BDE8F0812068144E80060CD56E
:101B50003089884203D312A0FEF702FC17E06168C7
:101B60001A4A1154401C3081ECE72068C006E9D5C0
:101B70002F8088460A4615496868FEF7FDFC3089C3
:101B80002880378141461148FEF73BFD2068606898
:101B9000D8E7000000500040B000002014000020F2
:101BA000BEAFB8E6A3BA5541525435B5A5D6A1BDCE
:101BB000D3CAD5C1BFA3ACD2D1B3ACB3F6BDD3CADF
:101BC000D5BBBAB4E6B4F3D0A10D2100D0080020F3
:101BD0002DE9F041244C2068244D00064FF0000709
:101BE00017D5E068000614D5E889A968095C61602A
:101BF000401C80B2E881B0F5006F00D1EF81E88928
:101C0000A989884203D1E06820F08000E060BDE847
:101C1000F0812068164E80064FF400710DD5308893
:101C2000884203D313A0FEF79BFB1AE061680F4ABA
:101C300060321154401C3080E9E72068C006E6D5C8
:101C400088460A4609492F8060316868FEF794FC8F
:101C5000308828800548378041466030FEF7D1FC47
:101C600020686068D3E70000001001407000002089
:101C700014000020BEAFB8E6A3BA5541525431B5A6
:101C8000A5D6A1BDD3CAD5C1BFA3ACD2D1B3ACB385
:101C9000F6BDD3CAD5BBBAB4E6B4F3D0A10D2100CA
:101CA0002DE9F047264D2868264C00064FF0000726
:101CB00005F104064FF4007218D521480C30016874
:101CC000090613D5E189A3685B5C3360491C89B2BE
:101CD000E181914200D1E781E189A289914203D15A
:101CE000016821F080010160BDE8F0872868DFF815
:101CF000588080060ED5B8F80200904203D313A096
:101D0000FEF72EFB19E032681B4B1A54401CA8F852
:101D10000200E9E72868C006E6D527809146164903
:101D20006068FEF729FCB8F802102180A8F802705C
:101D300049461148FEF765FC28683068D4E7000082
:101D4000004400408000002014000020BEAFB8E630
:101D5000A3BA5541525432B5A5D6A1BDD3CAD5C1F7
:101D6000BFA3ACD2D1B3ACB3F6BDD3CAD5BBBAB462
:101D7000E6B4F3D0A10D2100D00200202DE9F047F8
:101D8000264D2868264C00064FF0000705F1040692
:101D90004FF4007218D521480C300168090613D59C
:101DA000E189A3685B5C3360491C89B2E18191429F
:101DB00000D1E781E189A289914203D1016821F034
:101DC00080010160BDE8F0872868DFF85880800650
:101DD0000ED5B8F80400904203D313A0FEF7C0FA62
:101DE00019E032681B4B1A54401CA8F80400E9E7BC
:101DF0002868C006E6D52780914616496068FEF738
:101E0000BBFBB8F804102180A8F8047049461148BB
:101E1000FEF7F7FB28683068D4E700000048004070
:101E20009000002014000020BEAFB8E6A3BA5541D0
:101E3000525433B5A5D6A1BDD3CAD5C1BFA3ACD228
:101E4000D1B3ACB3F6BDD3CAD5BBBAB4E6B4F3D004
:101E5000A10D2100D00400202DE9F047264D28686F
:101E6000264C00064FF0000705F104064FF40072FF
:101E700018D521480C300168090613D5E189A368FB
:101E80005B5C3360491C89B2E181914200D1E781FA
:101E9000E189A289914203D1016821F080010160AA
:101EA000BDE8F0872868DFF8588080060ED5B8F8BE
:101EB0000A00904203D313A0FEF752FA19E03268E9
:101EC0001B4B1A54401CA8F80A00E9E72868C00612
:101ED000E6D52780914616496068FEF74DFBB8F8B5
:101EE0000A102180A8F80A7049461148FEF789FBBC
:101EF00028683068D4E7000000140140C0000020CA
:101F000014000020BEAFB8E6A3BA5541525436B50E
:101F1000A5D6A1BDD3CAD5C1BFA3ACD2D1B3ACB3F2
:101F2000F6BDD3CAD5BBBAB4E6B4F3D0A10D210037
:101F3000D00A0020FEE70907090E002804DB00F1A3
:101F4000E02080F80014704700F00F0000F1E0205E
:101F500080F8141D704730380A2801D201207047DC
:101F600000207047704703B501216846FFF73AFD2E
:101F700000980CBDFEF774FDFFF722FBFFF794FA03
:101F8000FFF7E2FA012220210548FEF755FD4FF444
:101F9000E130FFF74FFC0348FFF720F9FEE70000B0
:101FA00000080240280000204FF04070E1EE100AC7
:101FB0007047000000000000000001020304060753
:101FC00008090400000800000000000000020001F1
:101FD00000001000554152543120B3F5CABCBBAFCC
:101FE000C5E4D6C320202020202020202025642DD9
:101FF0004E6F6E652D382D313B20D2D1CDEAB3C95D
:10200000B3F5CABCBBAFC5E4D6C3A1A2CAD5B7A2BB
:10201000C5E4D6C30D0000003820000800000020F1
:1020200028000000C40100086020000828000020EB
:10203000083D0000E0010008000000000100000071
:1020400010000000000000000024F4000000000068
:102050000000000000000000000000000000000080
:040000050800018965
:00000001FF
