:020000040800F2
:10000000583E00203102000871210008FB1C000846
:1000100015200008790800082D34000800000000B1
:10002000000000000000000000000000112900088E
:100030007B0800080000000055270008132900086D
:100040004B0200084B0200084B0200084B0200085C
:100050004B0200084B0200084B0200084B0200084C
:100060004B0200084B0200084B0200084B0200083C
:100070004B0200084B0200084B0200084B0200082C
:100080004B0200084B0200084B0200084B0200081C
:100090004B0200084B0200084B0200084B0200080C
:1000A0004B0200083D2A00084B0200084B020008E2
:1000B0004B0200084B0200084B0200084B020008EC
:1000C0004B0200084B0200084B0200084B020008DC
:1000D0004B020008C9300008993100087532000849
:1000E0004B0200084B0200084B0200084B020008BC
:1000F0004B0200084B0200084B0200084B020008AC
:100100004B0200084B0200084B0200084B0200089B
:10011000212F0008FD2F00084B0200084B020008A9
:100120004B0200084B0200084B0200084B0200087B
:100130004B0200084B0200084B0200084B0200086B
:100140004B0200084B0200084B0200084B0200085B
:100150004B0200084B0200084B0200085133000814
:100160004B0200084B0200084B0200084B0200083B
:100170004B0200084B0200084B0200080000000080
:100180004B0200084B02000800F002F800F041F8B2
:100190000AA090E8000C82448344AAF10107DA45E2
:1001A00001D100F036F8AFF2090EBAE80F0013F0F3
:1001B000010F18BFFB1A43F0010318474435000034
:1001C00064350000103A24BF78C878C1FAD85207C5
:1001D00024BF30C830C144BF04680C6070470000C1
:1001E0000023002400250026103A28BF78C1FBD840
:1001F000520728BF30C148BF0B607047642900F028
:10020000DF80002070471FB503F0DEF91FBD10B579
:1002100010BD00F0FFFA1146FFF7F5FF03F026F9D5
:1002200000F01DFB03B4FFF7F2FF03BC03F016F967
:100230000948804709480047FEE7FEE7FEE7FEE77A
:10024000FEE7FEE7FEE7FEE7FEE7FEE704480549B6
:10025000054A064B704700002D2A00088901000856
:10026000582C0020583E0020582E0020582E0020E8
:10027000704753EA020C00F069802DE9F04B4FF013
:100280000006002B1FBFB3FA83F503FA05F424FA26
:1002900005F65E4012BF1643B2FA82F502FA05F483
:1002A000C5F120051EBF22FA05FC44EA0C042035E6
:1002B00056EA044C4FEA144418BF641C4FF000087F
:1002C0004FF00009904271EB030C39D3002919BF9C
:1002D000B1FA81F701FA07F6B0FA80F700FA07F6EB
:1002E000C7F120071EBF20FA07FC46EA0C0620379C
:1002F000B6FBF4FCA7EB0507103F07F01F0BCBF193
:1003000020060CFA0BFB2CFA06F644BFB346002677
:10031000202FA4BF5E464FF0000B5BEA060C08BF1F
:100320004FF0010B19EB0B09ABFB027C48EB060805
:10033000C01B06FB02CC0BFB03CC71EB0C01C1E72D
:100340000B46024641464846BDE8F08B13B54FF0D8
:1003500000004FF00001AFF30080BDE81C40704783
:1003600010B54C1084EA530404D54042C1F1000199
:1003700038BF491E1B4204D55242C3F1000338BFA7
:100380005B1EFFF776FF14F0804F04D04042C1F1AE
:10039000000138BF491E14F0004F04D05242C3F18F
:1003A000000338BF5B1E10BD0FB4044910B503AA8B
:1003B000029800F0E7F910BC5DF814FB480000203B
:1003C0002DE9F0410646002410687529314616A52E
:1003D00010D0AFF30080002802DA404213A507E0F6
:1003E00031688A0701D512A502E0490704D511A595
:1003F000012401E0AFF3008000210A2206F1240766
:1004000009E0B0FBF2FCB0FBF2F302FB1C00303061
:1004100078541846491C0028F3D123462A46304612
:10042000BDE8F04100F03CB9000000002D000000E4
:100430002B000000200000002DE9F05F89460446F3
:100440004FF0000ADFF874B1FB44C0F820A020464A
:10045000E1688847002874D0252806D0D4E9012116
:100460009047206A401C2062F1E700265F46204644
:10047000E16888472028054607DB312D05D2781929
:1004800010F8200C08B10643F1E7B00701D526F0BB
:100490000406C4F81CA00027C4F818A02A2D09D00F
:1004A000284602F0D4FF38B304EB8708303DC8F883
:1004B000185019E059F8041B204604EB870291619B
:1004C000E1688847012F054618D1E069002820DA45
:1004D00026F020061DE0D8F8180000EB800005EBA0
:1004E00040003038C8F818002046E16888470546C3
:1004F00002F0ADFF0028EED1012F0AD02E2D08D139
:100500002046E16888477F1C0546022F46F02006FA
:10051000C4DBA069002803DA404246F00106A0616E
:10052000F00701D026F010066C2D0BD0682D09D0F5
:100530004C2D39D06A2D35D0742D35D07A2D33D04D
:1005400016E038E0E1682F4620468847B842054665
:1005500009D16C2F26D04FF48060E1680643204615
:100560008847054604E06C2F1AD04FF4807006438C
:100570000DB3A5F14100192802D8203546F40066D4
:100580004A462946204626604E46FFF737FE80B190
:1005900001280BD0F61D26F0070000F1080956E7E8
:1005A0004020E4E78020D8E70020D6E706F10409E0
:1005B0004DE7284652E7206ABDE8F09F5E32000012
:1005C000032A40F2308010F0030C00F0158011F87F
:1005D000013BBCF1020F624498BF11F801CB00F857
:1005E000013B38BF11F8013BA2F1040298BF00F8AB
:1005F00001CB38BF00F8013B11F0030300F0D480B9
:10060000083AC0F0088051F8043B083A51F804CB8E
:10061000A0E80810F5E7121D5CBF51F8043B40F854
:10062000043BAFF30080D20724BF11F8013B11F85F
:1006300001CB48BF11F8012B24BF00F8013B00F8A3
:1006400001CB48BF00F8012B70474FF0000200B506
:10065000134694469646203922BFA0E80C50A0E8E5
:100660000C50B1F12001BFF4F7AF090728BFA0E893
:100670000C5048BF0CC05DF804EB890028BF40F85F
:10068000042B08BF704748BF20F8022B11F0804FA1
:1006900018BF00F8012B70477047704770477047CC
:1006A0002DE9F0470D4699469246044600F124088C
:1006B0000168880604D5E06921F01001216000E09E
:1006C0000120A84201DD471B00E00027A1697A193B
:1006D00002EB0900081AA0612078C00602D4204667
:1006E000AFF30080002608E0D4E901211AF80600E3
:1006F0009047206A401C761C20624E45F4DB20782F
:10070000C0060AD52046AFF3008006E0D4E90121F7
:1007100030209047206A401C2062381EA7F1010754
:10072000F4DC07E0D4E9012118F805009047206ABD
:10073000401C2062281EA5F10105F3DC2046AFF322
:1007400000802078000602D50220BDE8F087012055
:10075000FBE7000001694A1C02610878704700B598
:100760008FB0CDE901310021059105497944CDE9EA
:10077000031011466846FFF75FFE0FB000BD000092
:10078000E5FFFFFF074B70B50D467B44FFF7E7FF22
:100790000446284600F03AF810B14FF0FF3070BD23
:1007A000204670BDD12C000010B5203AC0F00B805F
:1007B000B1E81850203AA0E81850B1E81850A0E865
:1007C0001850BFF4F5AF5FEA027C24BFB1E81850BF
:1007D000A0E8185044BF18C918C0BDE810405FEA2F
:1007E000827C24BF51F8043B40F8043B08BF7047AB
:1007F000D20728BF31F8023B48BF11F8012B28BFB0
:1008000020F8023B48BF00F8012B7047007B00F046
:1008100080007047754600F02BF8AE46050069462B
:10082000534620F00700854618B020B5FFF70EFDAF
:10083000BDE820404FF000064FF000074FF00008E1
:100840004FF0000B21F00701AC46ACE8C009ACE862
:10085000C009ACE8C009ACE8C0098D46704710B5C6
:100860000446AFF300802046BDE81040FFF7DABC35
:1008700000487047F82B0020FEE77047401A80B20E
:1008800000B2704700487047E02B00200E4910B5B9
:100890000968002048620D49096848623C210A48FD
:1008A00000F0C4FF08B1012010BD3C21074800F052
:1008B000BDFF20B13C21044800F0FFFFF3E700F04A
:1008C00007F8002010BD0000A8000020F000002064
:1008D00009480068416A0948018009490968496A6C
:1008E0004180084900200860486008814881C8604C
:1008F0000861888270470000A80000205000002096
:10090000F0000020E02B00202DE9F04705462048AC
:100910000068406A1FFA80F91E480068406A1E4C51
:100920001FFA80F848462188FFF7A8FF074661882C
:100930004046FFF7A3FFA4F80090A4F80280174CEC
:1009400006462781608120683844206061688819E4
:1009500060600020ADB14FF47A7887FB08012A4629
:100960000023FFF7FDFCE06086FB08012A46002318
:10097000FFF7F6FC2061B5F5803F05D34FF6FF7019
:1009800003E0E060206100E0A8B2A082BDE8F0874B
:10099000A8000020F000002050000020E02B0020E4
:1009A00072B6FEE72DE9F05F4FF00008234F814655
:1009B00080F8008044464FF4807A4FF0010B00200D
:1009C000E10701D04FF40070A10701D540F4806029
:1009D000610701D540F4006040F06060B861142008
:1009E00000F02EF8002635465146384600F0E2F970
:1009F000012801D1761CF6B26D1C072D02D203200E
:100A000000F01EF8EDB2072DEED3042E04D30BFA3E
:100A100004F0C0B240EA080846B1072E06D099F8A3
:100A200000100BFA04F0014389F80010641CE4B2D2
:100A3000082CC4D34046BDE8F09F000000100240DF
:100A4000064A10B553680649064C0968B1FBF4F133
:100A500041435068C01A8842FBD310BD001000E02B
:100A60003400002040420F0070B586B01421684663
:100A7000FFF7EBFD1F480024016841F01001016001
:100A8000016801F010010591016841F00801016061
:100A9000006800F0080005901748016841F0807177
:100AA000016016484460016841F001010160050DD4
:100AB000134E00222946304600F089F901200095A6
:100AC000CDE9010469463046039400F07BF8B01587
:100AD000CDE9000469463046029400F073F84FF403
:100AE000F850CDE9000469460648029400F06AF81F
:100AF00006B070BD30380240FCED00E0001000E0B0
:100B000000100240000C0240F8B504466846FFF7AA
:100B100049FF204A0125917811B9107050709570E5
:100B2000117892F801C00B4641EA0C01014003EA3A
:100B30000C06314321700E469DF8001080EA030731
:100B40000F4380EA0C010F43677053701070124816
:100B500000680022C0F30420A070104B114610461C
:100B600005FA00F7374204D01F56491C3A4412B226
:100B7000C9B2401CC0B20828F2D341B102EB8200D6
:100B8000400090FBF1F0A57100B2A080F8BD0020FC
:100B9000A071FAE74C000020100C0240E23500087A
:100BA00070B5044600F018F90546601C02D00448F0
:100BB0000078044400F010F9401BA042FAD370BD45
:100BC000280000202DE9F84FDFF8BCA10022012504
:100BD00003264FF00F090AF1040BAAF1040E00BF1F
:100BE0000B6805FA02F42340A34270D10F7907F095
:100BF0000307012F01D0022F16D187684FEA420860
:100C000006FA08FC27EA0C07D1F80CC00CFA08FC1D
:100C10004CEA070CC0F808C04768A7430C79C4F336
:100C2000001494403C4344600C79E443A4070AD088
:100C3000C4684FEA420C06FA0CF7BC438F6807FA07
:100C40000CF72743C7600C7904F00304022C12D17F
:100C5000D40800EB840CDCF820405707FF0E09FA9B
:100C600007F824EA0804D1F8108008FA07F848EADF
:100C70000408CCF8208004684FEA420C06FA0CF70E
:100C8000BC430F7907F0030707FA0CF72743076007
:100C90004C6814F4403F70D03C4C276847F48047C0
:100CA0002760246822F0030704F480440094384C41
:100CB00007EB040CDCF8084897074FEA177809FAA5
:100CC00008F7BC43334FB84202D1002724E054E078
:100CD000314FB84201D101271EE0304FB84201D157
:100CE000022719E02E4FB84201D1032714E02D4FFF
:100CF000B84201D104270FE02B4FB84201D105279C
:100D00000AE02A4FB84201D1062705E0284FB84231
:100D100001D1072700E0082707FA08F72743CCF896
:100D20000878DAF800405746D1F804C09C435FEADF
:100D3000CC2C00D51C433C60DBF800405F46D1F86A
:100D400004C09C435FEA8C2C00D51C433C60DEF859
:100D500000407746D1F804C09C435FEA8C3C00D544
:100D60001C433C60084F083F3C68D1F804C09C43DA
:100D70005FEACC3C00D51C433C60521C102AFFF4B7
:100D80002FAFBDE8F88F0000083C01404438024016
:100D90000030014000000240000402400008024010
:100DA000000C0240001002400014024000180240F3
:100DB000001C02400069084000D0012070474269D1
:100DC00021EA02030A4043EA0241816170470AB105
:100DD000816170470904FBE70148806870470000A3
:100DE0002800002002488168027811448160704721
:100DF000280000200B4810B5016841F40071016023
:100E0000016841F480610160016841F48071016012
:100E1000032000F06FF80F2000F006F800F024F82F
:100E2000002010BD003C024070B50D4D04464FF44B
:100E30007A712878B1FBF0F00A490968B1FBF0F04B
:100E400000F0ECFA48B9102C07D200222146501EBF
:100E500000F030F800206C6070BD012070BD000013
:100E600028000020340000200A4808B5016841F439
:100E700080410160006800F4804000900548001F38
:100E8000016841F080510160006800F080500090DE
:100E900008BD000044380240002809DB00F01F02B2
:100EA000012191404009800000F1E020C0F80011CC
:100EB00070470000F0B40E4B1B680C46C3F30223CE
:100EC000C3F10705042D00D90425191D072901D2F6
:100ED000002300E0DB1E012606FA05F1491E214031
:100EE00099409E40761E16403143F0BC02F09FBAF6
:100EF0000CED00E0064900F0070208684FF6FF031A
:100F0000184040EA0220034A10430860704700007E
:100F10000CED00E00000FA052DE9F0470E46050053
:100F200065D0DFF81481D8F80000F7B200F00700B0
:100F3000B04207D288F80070D8F8000000F007002F
:100F4000B04254D128683D4C810712D5400703D5E3
:100F5000206840F4E05020602878000703D520681E
:100F600040F4604020602068A96820F0F000084349
:100F700020602878C0072DD03049686808390128DA
:100F800012D0022813D0032811D00968890700293C
:100F90002DDA216821F0030101432160FFF71CFFD6
:100FA000814641F2883A0EE009688903EFE7096853
:100FB0008901ECE7FFF710FFA0EB0901514502D9C9
:100FC0000320BDE8F0872068696800F00C00B0EBF2
:100FD000810FEFD1D8F80010404601F00701B1426F
:100FE00007D90770006800F00700B04201D0012067
:100FF000E7E72878400705D52068E96820F4E05045
:10100000084320602878000706D52068296920F465
:10101000604040EAC100206000F018F82168084AEA
:10102000C1F30311515CC8400649086006480068D6
:10103000FFF7FAFE0020C4E7003C024008380240F7
:10104000D2350008340000202C000020154810B5CF
:10105000006810F00C02144813D01449042A0FD071
:10106000082A0ED10F4C241F2268236802F03F0289
:101070005B0207D52068C0F38810A0FB010106E0E1
:10108000084610BD2168C1F38811A1FB00010023AF
:10109000FFF7EFF82168C1F30141491C4900B0FB9B
:1010A000F1F010BD083802400024F40040787D01C2
:1010B0002DE9F84F04006ED02078DFF84C93C0077C
:1010C000A9F104054AD009F104000168C1F38101C6
:1010D000012908D00068C0F3810002280AD1D9F89C
:1010E0000000400206D52868800337D560680028D4
:1010F000E1D033E06068B0F5803F10D0B0F5A02FAC
:10110000286810D020F480302860286820F48020DF
:1011100028606068A8B1FFF75FFE06460DE028680A
:1011200040F48030F4E740F480202860F7E700BF07
:10113000FFF752FE801B642873D828688003F7D518
:101140000CE0FFF749FE064605E000BFFFF744FE4E
:10115000801B6428F0D828688003F7D42078DFF853
:10116000AC8280074FF0000A3ED5A748001D0168F9
:1011700011F00C0F08D00068C0F3810002280BD1D9
:10118000D9F80000400207D42868800716D5E06827
:10119000012800D112E033E1E068B8B10120C8F8BD
:1011A0000000FFF719FE064605E000BFFFF714FE3A
:1011B000801B0228C0D828688007F7D528682169D5
:1011C00020F0F80040EAC10028600DE0C8F800A057
:1011D000FFF702FE064604E0FFF7FEFD801B022833
:1011E0001FD828688007F7D42078000722D5864FBB
:1011F00087486169703771B101210160FFF7ECFD2B
:10120000064604E0FFF7E8FD801B022809D838688D
:101210008007F7D50EE0C0F800A0FFF7DDFD064619
:1012200005E082E0FFF7D8FD801B02287DD83868F2
:101230008007F7D42078400768D5DFF8CCB10027C5
:101240000BF13C0BDBF80000C0000BD4DBF8001006
:1012500041F08051CBF80010DBF80000012700F0CE
:10126000805000906B4E3068C00510D4306840F458
:1012700080703060FFF7B0FD009005E0FFF7ACFD37
:101280000099401A022850D83068C005F6D55E4E45
:10129000A0686C3601280FD00528306810D020F0E7
:1012A00001003060306820F004003060A068B8B100
:1012B000FFF792FD00900FE0306840F00100F4E786
:1012C00040F004003060F7E7FFF786FD0099411A0F
:1012D00041F28830814266D830688007F4D50EE04C
:1012E000FFF77AFD009007E0FFF776FD0099411ABD
:1012F00041F28830814256D830688007F4D42FB14B
:10130000DBF8001021F08051CBF80010A069C8B3C1
:101310003D49091D0968C1F3810102294AD002280B
:10132000504607D0C8F8600000E03CE0FFF754FDED
:1013300004463BE04746C8F86000FFF74DFD06460F
:1013400005E000BFFFF748FD801B02282BD8286866
:101350008001F7D4D4E907010843A16A2E4A49085D
:1013600002EB0141626A41EA8211084394F82C10B1
:1013700040EA0161C9F8001001203866FFF72CFD32
:10138000044606E03EE000BFFFF726FD001B0228F2
:1013900009D828688001F7D534E000BFFFF71CFDAD
:1013A000001B022802D90320BDE8F88F28688001BD
:1013B000F4D427E00128F7D0D9F80000E26900F45E
:1013C000800191421CD1226A00F03F01914217D165
:1013D00047F6C071626A0140B1EB821F10D1A26A68
:1013E0004FF0FF3300F4403103EB5202B1EB024FF8
:1013F00006D194F82C1000F07060B0EB016F01D0B2
:101400000120D1E70020CFE7043802400000474226
:10141000800E4742007000400000FFFF10B5401EE4
:10142000B0F1807F01D3012010BD4FF0E024606156
:101430000F21601701F0FBFF0020A0610720206151
:10144000002010BD7047704770B590F83C20012A0D
:1014500032D0012480F83C40022280F83D2003680D
:101460005A689D6822F070060A6832435A60134B2E
:1014700002689A4214D0B2F1804F11D0104B9A42B8
:101480000ED0104B9A420BD00F4B9A4208D00F4B04
:101490009A4205D00E4B9A4202D00E4B9A4204D18A
:1014A000496825F080031943916080F83D40002190
:1014B00080F83C10084670BD022070BD000001405D
:1014C0000004004000080040000C004000040140FF
:1014D000004001400018004010B5040003D094F80B
:1014E0003D0010B107E0012010BD002084F83C0051
:1014F000204600F01FF8022084F83D00211D2068DE
:1015000001F0A2FA012084F8460084F83E0084F835
:101510003F0084F8400084F8410084F8420084F8D9
:10152000430084F8440084F8450084F83D0000201E
:1015300010BD000008B500680B49884212D10B4865
:10154000016841F0010101600068002200F0010023
:10155000009011461920FFF7ADFCBDE808401920A6
:10156000FFF79ABC08BD000000000140443802406B
:1015700090F83D10012901D001207047022180F828
:101580003D100168CA6842F00102CA600068114952
:10159000884214D0B0F1804F11D00F4988420ED04C
:1015A0000E4988420BD00E49884208D00D49884226
:1015B00005D00D49884202D00C49884204D1816887
:1015C00001F00701062903D0016841F00101016023
:1015D0000020704700000140000400400008004067
:1015E000000C004000040140004001400018004091
:1015F00070B5044690F83C000025012817D001265C
:1016000084F83C60022084F83D002068826822F063
:10161000770222F47F4282600868502838D00DDCBF
:1016200020284FD005DC90B3102811D14AE00220C9
:1016300070BD302846D040280AD13BE060282FD02A
:1016400070280DD0B0F5805F03D0B0F5005F12D0E8
:10165000012584F83D60002084F83C00284670BDD8
:10166000CB68D1E90121206801F067FA2068816820
:1016700041F0770109E0CB68D1E90121206801F050
:101680005CFA2068816841F480418160E1E719E0FB
:10169000CA684968206801F025FB5021206806E0EF
:1016A000CA684968206801F02EFB6021206801F0BB
:1016B0004EFACEE7CA684968206801F013FB402162
:1016C0002068F4E7226801461046F0E72DE9F04172
:1016D0000D46040003D094F83D0018B108E0012045
:1016E000BDE8F081002084F83C00204600F040F87E
:1016F000022084F83D002068816844F2070291438B
:101700008160211D206801F09FF92268906891692D
:10171000166A2B68AF69034340F20330814341EA04
:101720000721A868EF6908434FF6FC418843E96840
:1017300040EA0720014328692F6A000140EA073088
:10174000084369686D6926F0AA0646EA051529432B
:1017500093602268906154F8460B0162012004F8FE
:101760001F09E0752076E0762077A0750020B7E7A6
:1017700030B587B0044614216846FEF766FF264858
:1017800024682549103802220123B4F1804F1DD06E
:10179000224DAC4218D10C6844F002040C60096878
:1017A00001F002010591016841F004010160006847
:1017B000694600F004000590C0208DE80D000392FA
:1017C00017480492FFF7FEF907B030BD0C6844F0EB
:1017D00001040C60096801F001010591016841F004
:1017E00001010160016801F001010591016841F00A
:1017F000020101600068694600F0020005902020A7
:101800008DE80D000748CDE90323FFF7DBF9082039
:10181000009069460448D5E7403802400004004083
:1018200000080240000002400004024070B590F839
:101830003E60044690F83F5090F8423090F84320C4
:10184000022021B104290ED0012E1BD114E0012E5B
:1018500018D1012B16D184F83E0084F842000122F1
:101860000021206820E0012D0CD1012A0AD184F842
:101870003F0084F8430014E0012D03D1012B01D176
:10188000012A01D0012070BD84F83E0084F83F0099
:1018900084F8420084F8430001220021206801F00E
:1018A0003FF901220421206801F03AF9206801681B
:1018B00041F001010160002070BD30B504460068B0
:1018C0000D0023D0042D04D00022114601F028F988
:1018D00020680022042101F023F92068016A41F206
:1018E0001112114207D1016A9210114203D101680D
:1018F00021F00101016001205DB1042D0DD004F83B
:101900003E0F607020716071002030BD00221146D2
:10191000E1E704F83E0F2071F6E704F83F0FFAE71D
:1019200070472DE9F04104460068C66805694FF02C
:101930000007A90713D5B10711D5F91E01610120D0
:101940002077206880698007204602D0FFF7E8FFF3
:1019500004E000F0A9F8204600F04EF92777680768
:1019600016D5700714D521686FF0040008610220B5
:1019700020772068806910F4407F204602D0FFF76E
:10198000CFFF04E000F090F8204600F035F927770B
:10199000280715D5300713D521686FF008000861B6
:1019A000042020772068C0698007204602D0FFF716
:1019B000B7FF04E000F078F8204600F01DF9277723
:1019C000E80616D5F00614D521686FF010000861FE
:1019D000082020772068C06910F4407F204602D09C
:1019E000FFF79EFF04E000F05FF8204600F004F9E6
:1019F0002777E80708D0F00706D021686FF00100CC
:101A00000861204600F05EF9280608D5300606D5A4
:101A100021686FF0800008612046FFF713FD68061B
:101A200008D5700606D521686FF040000861204691
:101A300000F062F9A8060AD5B00608D521686FF053
:101A4000200008612046BDE8F041FFF7FCBCBDE87E
:101A5000F081000010B586B0044614216846FEF7F8
:101A6000F4FD0E492068884215D10D480021026816
:101A700042F008020260006800F0080005904FF490
:101A8000C04000900220CDE9010103900490694616
:101A90000448FFF797F806B010BD000000080040AA
:101AA00030380240000C0240704770B5044690F890
:101AB0003C0000260D4601280FD0012084F83C0090
:101AC0006AB1042A1DD0082A2FD00C2A3FD0012643
:101AD000002084F83C00304670BD022070BD2068B4
:101AE00001F03EF82068816941F0080181612068B9
:101AF000816921F004018161206881692A691143AB
:101B000011E0206801F05CF82068816941F400610F
:101B100081612068816921F4806181612068816927
:101B20002A6941EA02218161D2E7206801F07EF84A
:101B30002068C16941F00801C1612068C16921F0D4
:101B40000401C1612068C1692A69114311E020685C
:101B500001F0A0F82068C16941F40061C16120680A
:101B6000C16921F48061C1612068C1692A6941EAC3
:101B70000221C161ACE710B5040003D094F83D0028
:101B800010B107E0012010BD002084F83C00204681
:101B900000F01EF8022084F83D00211D206800F0AE
:101BA00053FF012084F8460084F83E0084F83F008B
:101BB00084F8400084F8410084F8420084F843002F
:101BC00084F8440084F8450084F83D00002010BDEE
:101BD00008B500680649884208D10648016841F006
:101BE00004010160006800F00400009008BD0000DE
:101BF00000080040403802407047000010B504461D
:101C0000022249B104290ED0082913D094F84100CA
:101C1000012816D0012010BD94F83E000128F9D10A
:101C200084F83E200FE094F83F000128F2D184F8B8
:101C30003F2008E094F840000128EBD184F84020D0
:101C400001E084F841200122206800F069FF164974
:101C50002068164A884201D0904203D1436C43F475
:101C6000004343642068884213D0B0F1804F10D005
:101C70000F4988420DD00F4988420AD00E49884248
:101C800007D0904205D00D49884202D00C498842C5
:101C900004D1816801F00701062903D0016841F0F1
:101CA00001010160002010BD00000140000401405E
:101CB0000004004000080040000C004000400140CB
:101CC0000018004010B50068084988420CD1084C43
:101CD000A088411CA180B0F57A7F05D30421054876
:101CE000FFF76DF80020A08010BD0000000001404B
:101CF00000000020000402407047FEE74FF4167118
:101D0000884201DD08467047002801DA002070474C
:101D100000B270470021018041808180C180017242
:101D2000417270472DE9F047884617460446002166
:101D300098F80620007ADDF820901E468A466AB19F
:101D400020B1B8F804002188401A01B2B8F90400A3
:101D500008448500C82D1BDDC8251EE060B1607AEF
:101D6000082809D2401C607260883880A0881880DA
:101D7000E188A9F800102AE02046FFF7CBFFA7F87A
:101D800000A0A6F800A0A9F800A00020BDE8F087F8
:101D90006FF0C700854200DA0546A9F8005005F546
:101DA0009670FFF7ABFF3880C5F59670FFF7A6FF7A
:101DB0003080B8F804002080388860803088A080A7
:101DC000B9F80000E0800120207284F809A0012009
:101DD000DCE770B58CB00E46054624216846FEF758
:101DE00034FC002409940A94C5E900644FF6FF709E
:101DF000C5E902402C61AC610320CDE9000401205B
:101E0000CDE9020408210491CDE90540CDE907415F
:101E100069462846FFF75AFC08B1FEF7C1FD099450
:101E200009A928460A94FFF70FFB002801D0FEF706
:101E3000B7FD0CB070BD0000F0B587B01421684646
:101E4000FEF703FC2C480024016841F0800101608A
:101E5000016801F080010591016841F00401016011
:101E6000016801F004010591016841F0020101607F
:101E7000016801F002010591016841F00101016072
:101E800000681E4E00F0010005900022202130461F
:101E9000FEF79DFF1A4F002204213846FEF797FFF8
:101EA000202000900125CDE9015469463046039475
:101EB000FEF788FE04200090CDE9015469463846BB
:101EC0000394FEF77FFE02200095CDE901406946AC
:101ED0000C48FEF777FE00221F213046FEF777FF01
:101EE0001F200090CDE90154694630460394FEF767
:101EF00069FE07B0F0BD0000303802400008024023
:101F0000000402400000024010B586B000241848CA
:101F1000009401940294039404941449059401607C
:101F2000A721C0E9011440F2E731C0E90314802180
:101F3000C0E90541FFF7D0FA08B1FEF731FD4FF4D3
:101F40008050009069460A48FFF752FB08B1FEF73F
:101F500027FD049404A906480594FFF775FA0028A4
:101F600001D0FEF71DFD06B010BD000000000140CD
:101F7000600000204FF080410148FFF72ABF0000B9
:101F8000A800002001490248FFF723BF00040040D9
:101F9000F000002010B58AB0002407941C21684688
:101FA0000894FEF752FB1A481849C0E9001442F29F
:101FB000CF01C0E90241802104618161FFF7DBFDAF
:101FC00008B1FEF7EDFC079407A911480894FFF744
:101FD0003BFA08B1FEF7E4FC6020CDE9000402946E
:101FE000042269460A480494FFF75FFD08B1FEF732
:101FF000D7FC082269460648FFF757FD08B1FEF7EF
:10200000CFFC0348FFF726FD0AB010BD00080040D2
:1020100038010020FEE74FF47A71884202DC494221
:10202000884200DA0846704710B500F079F80421BC
:102030000748FFF7E3FD08B1012010BD082104485F
:10204000FFF7DCFD0028F8D000F06AF8F4E70000A4
:1020500038010020002800DA404205490968C96AB1
:10206000491C48434FF47A71B0FBF1F0704700000F
:102070003801002070B51D461646DDE90432012AFC
:1020800001D0012400E00024002B03DA134622468D
:102090001C4603E002D14FF000021446FEF797FE03
:1020A000224629463046BDE87040FEF790BE00004B
:1020B0002DE9FC410D46FFF7AEFF04462846FFF729
:1020C000AAFF0127144ECDE90047054632460223F8
:1020D00039461046FFF7CEFFCDE9005732460823B8
:1020E00004211046FFF7C6FF2046FFF7B3FF0B4F52
:1020F000396888632846FFF7ADFF3968C8632C4309
:1021000007D0012202B03046BDE8F0411021FEF7B1
:102110005EBE0022F6E70000000802403801002001
:1021200010B5114C002210212046FEF750FE0F4A38
:102130000021106881631068C1630A4601212046AE
:10214000FEF745FE002202212046FEF740FE002257
:1021500004212046FEF73BFE20460022BDE8104049
:102160000821FEF734BE00000008024038010020BC
:10217000FEE710B5044600F0E7F9782000F00AFA0F
:10218000002000F007FA204600F004FABDE81040F5
:1021900000F0EFB970B501703A21417000210125BE
:1021A0000BE000BF05FA01F4144201D0312400E035
:1021B00030244618491CB470C9B29942F2D318446D
:1021C0000021817070BD000030B587B014216846D1
:1021D000FEF73BFA3D480021026842F0020202602D
:1021E000006800F0020005903948026842F08072F1
:1021F000026038484160016841F001010160364DDC
:102200004FF44074012221462846FEF7E0FD1120DC
:10221000CDE9004001200290022003906946284643
:10222000FEF7D0FC6420FEF7BBFCAE20FFF7A1FF59
:102230002020FFF79EFF0220FFF79BFF8120FFF782
:1022400098FF7F20FFF795FFA120FFF792FFC8209E
:10225000FFF78FFFA620FFF78CFFA820FFF789FF6D
:102260003F20FFF786FFD320FFF783FF0020FFF713
:1022700080FFD520FFF77DFF8020FFF77AFFD92070
:10228000FFF777FFF120FFF774FFDA20FFF771FF08
:102290001220FFF76EFFDB20FFF76BFF4020FFF7F8
:1022A00068FF8D20FFF765FF1420FFF762FFAF2066
:1022B000FFF75FFF002409A1204600F093F9641C9A
:1022C000E4B2082CF7D307B030BD0000303802402C
:1022D000FCED00E0001000E00004024000000000FF
:1022E0002DE9FF4F93B08F4E8A468146DDE92215D6
:1022F000DDE920CB45CE249C8DE845008AA603AFBE
:1023000045CE87E845008BA28CA6D2E90002CDE934
:10231000090245CE06AF87E845000A2091FBF0F19F
:102320000AB295FBF0F104261E2709B23546BCF12E
:10233000000F2AD0002B02DAC3F100031BB24FF0CA
:10234000450C8DF800C04FF03A0C8DF801C002DA50
:102350004FF02D0C01E04FF02B0C8DF802C093FBD9
:10236000F0FC0CF1300C8DF803C04FF02E0C8DF802
:1023700004C093FBF0FC00FB1C3303F130038DF829
:1023800005304FF000038DF806304FF0640892FBE3
:10239000F8F393FBF0FC00FB1C3303F130038DF8E2
:1023A0000E3092FBF0F393FBF0FC00FB1C3303F1C7
:1023B00030038DF80F3092FBF0F300FB132202F193
:1023C00030028DF8102091FBF8F292FBF0F300FB45
:1023D000132202F130028DF8142091FBF0F292FBEF
:1023E000F0F300FB132202F130028DF8152091FB6F
:1023F000F0F200FB121101F130018DF81610002CE3
:1024000002DA614209B200E0214691FBF0F109B223
:10241000B1F57A7F01DB40F2E731002C01DA2D22A1
:1024200000E02B228DF8262091FBF8F292FBF0F3CE
:1024300000FB132230328DF8272091FBF0F292FB43
:10244000F0F300FB132230328DF8282091FBF0F2DC
:1024500000FB121130318DF8291097FBF0F191FB40
:10246000F0F200FB121130318DF8191097FBF0F1EA
:1024700000FB117130318DF81A1096FBF0F191FBD1
:10248000F0F200FB121130318DF81D1096FBF0F1C7
:1024900000FB116130318DF81E1095FBF0F191FBBE
:1024A000F0F200FB121130318DF8211095FBF0F1A4
:1024B00000FB115030308DF822004946002000F01A
:1024C00091F80823524647210BA8FFF763FE0BA99A
:1024D000012000F087F8082355210EA8159AFFF770
:1024E00059FE0EA9022000F07DF86946032000F095
:1024F00079F803A9042000F075F809A9052000F077
:1025000071F805235A46412111A8FFF743FE11A98E
:10251000062000F067F806A9072000F063F817B05E
:10252000BDE8F08FA03600084C3A30303020523AE7
:1025300030303000433A2B30303000004230302011
:10254000503030204430300070B501214C0220461C
:1025500000F0E4F801210D02284600F0DFF8002128
:10256000204600F0DBF82846BDE87040002100F06E
:10257000D5B810B54FF400740021204600F0CEF815
:102580000121080200F0CAF82046BDE810400121F0
:1025900000F0C4B82DE9F04100244FF4007705465F
:1025A0007E10E909384600F0B9F80121304600F004
:1025B000B5F80021304600F0B1F86806641C050E3D
:1025C000E4B2082CEDD30121384600F0A7F8012130
:1025D000304600F0A3F83046BDE8F041002100F09D
:1025E0009DB80000F0B5A3B00C46064680216846B1
:1025F000FEF72BF80020074620AB6D465CE000BFDD
:10260000A2F13001092910D8DFF80CC102EB8202D7
:102610000021624402EB010C1CF8F0CC03F801C06D
:10262000491CC9B20529F5D33AE0A2F141011929A3
:1026300015D8DFF8E4C002EB82020CF1320C002165
:1026400002EB0C0202EB010CACF5805C9CF8BBCEFB
:1026500003F801C0491CC9B20529F3D320E08DF865
:1026600080702B2A4AD02D2A48D000218DF8811065
:102670002B2A45D02D2A45D03A2A45D02E2A45D09E
:102680005FF000018DF882102B2A41D02D2A3FD017
:102690003A2A3FD05FF000018DF883108DF88470E6
:1026A00000215A5C2A54401C491CC9B2C0B20529F9
:1026B000F7D3401CC0B2641C22780AB17A289FD399
:1026C000B036F0B2FFF755FD0020FFF752FD1020A5
:1026D000FFF74FFDFFF738FF7820FFF75BFF402043
:1026E000FFF758FF0024285DFFF754FF641CE4B295
:1026F000802CF8D3FFF73DFF23B0F0BD0821B5E7EC
:102700001C21BFE70821BDE72421BBE74021B9E731
:102710000821C1E72421BFE7EC3500080A4610B5BF
:1027200001460848FEF753FB074A51680748084B23
:102730000068B0FBF3F0400053685B1A8342FBD3A0
:1027400010BD000000040240001000E03400002032
:1027500040420F007047000030B5134985B008783B
:1027600001281DD002281DD010A000BFB1F90A50C9
:10277000B1F90840B1F906300B490DF1040C2031D4
:102780008A788CE83C008A790092B1F904304A7862
:102790000978FFF7A5FD05B0BDE8304000F02CB882
:1027A00004A0E3E705A0E1E700000020483320573C
:1027B0004149540048332052554E00004833204CC4
:1027C0004F53540010B50446FFF7AAFC0748FFF723
:1027D000A1FA074900220748CA800A814A810C7081
:1027E0000122BDE810402021FEF7F1BA540000207C
:1027F0000000002000080240444800B5017891B074
:1028000000EE101A00F12001B8EE400A8DED000A2A
:102810000A7800EE102AB8EE400A8DED010A4A78D7
:1028200000EE102AB8EE400A8DED020A8A7900EE19
:10283000102AB8EE400A8DED030AB1F9042000EE2B
:10284000102AB8EEC00A8DED040AB0F9062000EE99
:10285000102AB8EEC00A8DED050AB0F9082000EE86
:10286000102AB8EEC00A8DED060AB0F90A2000EE73
:10287000102AB8EEC00A8DED070A897800EE101A0A
:10288000B8EE400A8DED080AC069818A00EE101A80
:10289000B8EE400A8DED090AB0F9081000EE101AE2
:1028A000B8EEC00A8DED0A0AB0F90A1000EE101A4F
:1028B0004421B8EEC00A8DED0B0A90ED030AB8EE84
:1028C000C00A8DED0C0A90ED040AB8EEC00A8DED39
:1028D0000D0A90ED000AB8EEC00A8DED0E0A90EDDB
:1028E000010A0020B8EEC00A8DED0F0A8DF84000F5
:1028F0008DF8410080208DF842007F208DF8430044
:10290000684600F0EBFA11B000BD000000000020A6
:102910007047FEF767BA000030B593B030216846C3
:10292000FDF793FE14210CA8FDF78FFE1E4800252D
:10293000016841F080510160006800F08050119002
:102940001A48016841F4804101600068022400F4E3
:102950008040119001200090000401908001CDE999
:102960000640192008904FF4A870CDE9090404200E
:102970000B906846FEF79CFB08B172B6FEE70CA907
:102980000F2081E831004FF4A0500F904FF4805099
:10299000109005210CA8FEF7BFFA002801D072B6EE
:1029A000FEE713B030BD0000403802400070004028
:1029B00070B5194C2068194A10F00C01184804D061
:1029C000184D042903D0082903D002601BE00560DC
:1029D00019E01149091F0B68C3F380560B6803F017
:1029E0003F0316B1B5FBF3F201E0B2FBF3F20B6863
:1029F0000968C3F388135A43C1F30141491C4900D4
:102A0000B2FBF1F101602168074AC1F30311515C87
:102A10000268CA40026070BD083802400024F40019
:102A20003400002040787D01D2350008024801685A
:102A300041F470010160704788ED00E00148FEF745
:102A400070BF000060000020F0B50268294C2A4DDC
:102A50002A4E2B4F2B4B4FF0804CA04209D06045A3
:102A600007D0A84205D0B04203D0B84201D0984266
:102A700004D122F0700E4A6842EA0E02A0421BD036
:102A8000604519D0A84217D0B04215D0B84213D033
:102A9000984211D01C4DA8420ED01C4DA8420BD01C
:102AA0001B4DA84208D01B4DA84205D01A4DA84284
:102AB00002D01A4DA84203D122F44075CA682A43B5
:102AC0004D6922F080022A4302608A68C2620A6865
:102AD0008262A04201D0984201D1096901630121BB
:102AE00041610169C90703D0016921F00101016158
:102AF000F0BD00000000014000040040000800405C
:102B0000000C00400004014000400140004401402E
:102B10000048014000180040001C00400020004018
:102B200010B501F01F030121046A99408C4304622F
:102B3000016A9A401143016210BD10B5846842EAEF
:102B4000032224F47F440A432243826010BD82683A
:102B500022F070020A4342F00701816070470000D2
:102B6000F0B5036A026A22F00102026242688469D7
:102B7000124E24F073050C682C4323F002058B6879
:102B80002B430D4DA84201D0B04205D123F00807D8
:102B9000CB683B4323F00403A84201D0B04205D1E7
:102BA0004D6922F4407215438A692A434260846168
:102BB000496841630362F0BD000001400004014028
:102BC000F0B5026A036A23F0100303624368846964
:102BD0000D6824F4E64444EA05248D6822F02002BE
:102BE00042EA05120F4D104EA84201D0B04206D164
:102BF000CF6822F0800242EA071222F04002A84287
:102C000001D0B04207D14D6923F4406343EA850304
:102C10008D6943EA85034360846149688163026288
:102C2000F0BD00000000014000040140F0B5026A60
:102C3000036A23F4807303624368C46922F4007258
:102C400024F073050C68124E2C438D6842EA05226D
:102C50000E4DA84201D0B04206D1CF6822F40062E6
:102C600042EA072222F48062A84201D0B04207D192
:102C70004D6923F4405343EA05138D6943EA051374
:102C80004360C4614968C1630262F0BD0000014055
:102C90000004014030B5046A026A22F480520262E4
:102CA0004268C3690D6823F4E64343EA05238D684F
:102CB00024F4005444EA0534084DA84202D0084DDB
:102CC000A84204D14D6922F4804242EA8512426052
:102CD000C36149680164046230BD00000000014026
:102CE0000004014010B5036A046A24F00104046280
:102CF000846924F0F00444EA021423F00A020A432F
:102D00008461026210BD10B5036A046A24F01004E5
:102D10000462846923F0A00324F4704444EA02327C
:102D200043EA01118261016210BD0000F0B5064660
:102D30004B4885B0016841F01001016048481438E3
:102D4000016841F001010160464C0025E560142155
:102D50006846FDF77AFC4FF4C060009002200190B5
:102D600001200290032003900720049069463E480A
:102D7000FDF728FF012211462520FEF79BF82520AC
:102D8000FEF78AF8FFF714FE384F3868400800EE67
:102D9000100A3001B8EE401A00EE100AB8EE400AF0
:102DA000C1EE000ABCEEE00A10EE100A80B200EE9E
:102DB000100AB8EE400A30EEC00AF3EE000A20EE28
:102DC000200ABCEEC00A10EE101A89B241EA0010C7
:102DD000A060E06840F00400E060E06840F00800B7
:102DE000E060E06820F48050E0602561206920F414
:102DF000405020616561606920F040006061606959
:102E000020F080006061E06820F08000E060E06811
:102E100040F02000E060E06840F01000E0606FF0FB
:102E2000F0002060E06840F40050E0601049A1F537
:102E30004660416000F5666181600EA0FDF7B4FA5E
:102E4000FFF7B6FD1A493868B0FBF1F119A0FDF79C
:102E5000ABFA31462048FDF7A7FA05B0F0BD0000F7
:102E600044380240001001400000024034000020BD
:102E7000E00D00200D0D0D3D3D3D3D3D3D3D3D3DF9
:102E80003D3D202053544D33324634303756452093
:102E9000CDE2C9E820B3F5CABCBBAFB1A8B8E62003
:102EA0003D3D3D3D3D3D3D3D3D3D3D0D0000000076
:102EB00040420F00CFB5CDB3CAB1D6D3C6B5C2CA52
:102EC00020202020202020202020202020256420B9
:102ED0004D487A0D00000000BC360008F0B50E4BDE
:102EE00000224FF4006C16469D680AE09C89875CBE
:102EF0002F55641CA4B29C81644500D19E81521C54
:102F000092B28A42F2D30548C168090603D4C16867
:102F100041F08001C160F0BD80010020001001403F
:102F20002DE9F047264D2868264C00064FF0000793
:102F300005F104064FF4007218D521480C300168E1
:102F4000090613D5E189A3685B5C3360491C89B22B
:102F5000E181914200D1E781E189A289914203D1C7
:102F6000016821F080010160BDE8F0872868DFF882
:102F7000588080060ED5B8F80600904203D313A0FF
:102F8000FDF712FA19E032681B4B1A54401CA8F8DE
:102F90000600E9E72868C006E6D52780914616496D
:102FA0006068FDF70DFBB8F806102180A8F80670E0
:102FB00049461148FDF749FB28683068D4E700000E
:102FC000004C0040B001002038000020BEAFB8E641
:102FD000A3BA5541525434B5A5D6A1BDD3CAD5C163
:102FE000BFA3ACD2D1B3ACB3F6BDD3CAD5BBBAB4D0
:102FF000E6B4F3D0A10D2100E00700202DE9F04157
:10300000224C2068224D00064FF000074FF400715B
:1030100016D5E068000613D5E889AA68125C6260DC
:10302000401C80B2E881884200D1EF81E889A989FB
:10303000884203D1E06820F08000E060BDE8F081C4
:103040002068144E80060CD53089884203D312A024
:10305000FDF7AAF917E061681A4A1154401C308143
:10306000ECE72068C006E9D52F8088460A46154956
:103070006868FDF7A5FA30892880378141461148F4
:10308000FDF7E3FA20686068D8E7000000500040D0
:10309000C001002038000020BEAFB8E6A3BA5541F9
:1030A000525435B5A5D6A1BDD3CAD5C1BFA3ACD2A4
:1030B000D1B3ACB3F6BDD3CAD5BBBAB4E6B4F3D082
:1030C000A10D2100E00900202DE9F041244C2068E9
:1030D000244D00064FF0000717D5E068000614D510
:1030E000E889A968095C6160401C80B2E881B0F59C
:1030F000006F00D1EF81E889A989884203D1E06897
:1031000020F08000E060BDE8F0812068164E800667
:103110004FF400710DD53088884203D313A0FDF71A
:1031200043F91AE061680F4A60321154401C308044
:10313000E9E72068C006E6D588460A4609492F8097
:1031400060316868FDF73CFA308828800548378090
:1031500041466030FDF779FA20686068D3E70000E7
:10316000001001408001002038000020BEAFB8E60A
:10317000A3BA5541525431B5A5D6A1BDD3CAD5C1C4
:10318000BFA3ACD2D1B3ACB3F6BDD3CAD5BBBAB42E
:10319000E6B4F3D0A10D21002DE9F047264D2868B3
:1031A000264C00064FF0000705F104064FF40072AC
:1031B00018D521480C300168090613D5E189A368A8
:1031C0005B5C3360491C89B2E181914200D1E781A7
:1031D000E189A289914203D1016821F08001016057
:1031E000BDE8F0872868DFF8588080060ED5B8F86B
:1031F0000200904203D313A0FDF7D6F819E032681D
:103200001B4B1A54401CA8F80200E9E72868C006C6
:10321000E6D52780914616496068FDF7D1F9B8F8E0
:1032200002102180A8F8027049461148FDF70DFAF6
:1032300028683068D4E70000004400409001002076
:1032400038000020BEAFB8E6A3BA5541525432B59B
:10325000A5D6A1BDD3CAD5C1BFA3ACD2D1B3ACB39F
:10326000F6BDD3CAD5BBBAB4E6B4F3D0A10D2100E4
:10327000E00300202DE9F047264D2868264C000683
:103280004FF0000705F104064FF4007218D52148ED
:103290000C300168090613D5E189A3685B5C3360D3
:1032A000491C89B2E181914200D1E781E189A2897B
:1032B000914203D1016821F080010160BDE8F087EF
:1032C0002868DFF8588080060ED5B8F804009042D0
:1032D00003D313A0FDF768F819E032681B4B1A54AA
:1032E000401CA8F80400E9E72868C006E6D5278056
:1032F000914616496068FDF763F9B8F8041021801B
:10330000A8F8047049461148FDF79FF9286830680D
:10331000D4E7000000480040A00100203800002051
:10332000BEAFB8E6A3BA5541525433B5A5D6A1BD38
:10333000D3CAD5C1BFA3ACD2D1B3ACB3F6BDD3CA47
:10334000D5BBBAB4E6B4F3D0A10D2100E00500204E
:103350002DE9F047264D2868264C00064FF000075F
:1033600005F104064FF4007218D521480C300168AD
:10337000090613D5E189A3685B5C3360491C89B2F7
:10338000E181914200D1E781E189A289914203D193
:10339000016821F080010160BDE8F0872868DFF84E
:1033A000588080060ED5B8F80A00904203D313A0C7
:1033B000FCF7FAFF19E032681B4B1A54401CA8F8BE
:1033C0000A00E9E72868C006E6D527809146164935
:1033D0006068FDF7F5F8B8F80A102180A8F80A70BF
:1033E00049461148FDF731F928683068D4E70000F4
:1033F00000140140D001002038000020BEAFB8E624
:10340000A3BA5541525436B5A5D6A1BDD3CAD5C12C
:10341000BFA3ACD2D1B3ACB3F6BDD3CAD5BBBAB49B
:10342000E6B4F3D0A10D2100E00B0020FEE7090770
:10343000090E002804DB00F1E02080F8001470473A
:1034400000F00F0000F1E02080F8141D70473038C4
:103450000A2801D20120704700207047704703B549
:1034600001216846FFF73AFD00980CBD08B5FDF74D
:10347000C1FCFFF751FAFEF7DFFCFEF745FDFEF752
:1034800079FDFEF77FFDFEF785FDDFF8288101223B
:1034900020214046FDF79BFC4FF41650FFF746FCF9
:1034A0004548FEF765F8FDF7DFFAFEF78DFEFDF7FC
:1034B000EDF908B172B6FEE7FDF7E4F93F4CE061C3
:1034C000FEF7B2FD08B172B6FEE73D48FEF722FCFA
:1034D0003A482030FDF718FB0020FFF773F9DFF8BA
:1034E000E49000275FF00106FDF776FC05462069B1
:1034F000281A0A2818D3314825612030FDF704FB2B
:103500002078012810D12D480A30831E021F00F1B7
:10351000160100902A48FEF705FCE0B3B4F9081044
:10352000B4F90600FEF7C4FD01214846FDF742FC50
:10353000012800D000206178884201D06070E560E9
:10354000A17888421AD0E268A91A142916D3A0706B
:10355000A0B12078012826D01948FEF7DBFB1748D8
:10356000E7802781203067818079F0B1FDF7B0F9DD
:103570002670002220214046FDF729FC6069281AA8
:10358000642802D36561FDF7BFF9A069281A642891
:10359000AAD3A56100E002E0FFF7DEF8A4E702206D
:1035A000FFF710F9C0E7002000E00220FFF70AF95A
:1035B000E4E7000000080240600000200000002056
:1035C00054000020000002404FF04070E1EE100A6D
:1035D000704700000000000000000102030406071D
:1035E0000809F9FBFDFF0103050700003E514945AD
:1035F0003E00427F400042615149462141454B31E6
:103600001814127F1027454545393C4A4949300175
:10361000710905033649494936064949291E7E1173
:1036200011117E7F494949363E414141227F414146
:10363000221C7F494949417F090909013E41494905
:103640007A7F0808087F00417F41002040413F0108
:103650007F081422417F404040407F020C027F7F60
:103660000408107F3E4141413E7F090909063E4161
:1036700051215E7F09192946464949493101017F97
:1036800001013F4040403F1F2040201F3F40384045
:103690003F631408146307087008076151494543E4
:1036A000453A4E4F4C494E450000040000080000CA
:1036B00000000000000200010000100055415254BB
:1036C0003120B3F5CABCBBAFC5E4D6C3202020204F
:1036D000202020202025642D4E6F6E652D382D3141
:1036E0003B20D2D1CDEAB3C9B3F5CABCBBAFC5E468
:1036F000D6C3A1A2CAD5B7A2C5E4D6C30D000000A7
:10370000203700080000002054000000C401000819
:103710007437000854000020043E0000E001000857
:103720000000000000000000000000000000000099
:103730000000000000000000000000000000000089
:103740000000000000000000010000001000000068
:10375000000000000024F400000000000000000051
:103760000000000000000000000000000000000059
:043770000000000055
:040000050800018965
:00000001FF
